:100000000C9472000C9491000C9491000C9491004B
:100010000C9491000C9491000C9491000C9491001C
:100020000C9491000C9491000C9493000C9491000A
:100030000C9491000C9491000C9491000C949100FC
:100040000C9491000C9414010C9491000C94910068
:100050000C9491000C9491000C9491000C949100DC
:100060000C9491000C9491000C9491000C949100CC
:100070000C9491000C9491000C9491000C949100BC
:100080000C9491000C9491000C9491000C949100AC
:100090000C9491000C9491000C9491000C9491009C
:1000A0000C9491000C9491000C9491000C9491008C
:1000B0000C9491000C9491000C9491000C9491007C
:1000C0000C9491000C9491000C9491000C9491006C
:1000D0000C9491000C9491000C9491000C9491005C
:1000E0000C94910011241FBECFEFD1E2DEBFCDBF33
:1000F00012E0A0E0B2E0E4EEF3E000E00BBF02C0EB
:1001000007900D92A035B107D9F712E0A0E5B2E053
:1001100001C01D92AC35B107E1F70E94ED000C94CF
:10012000F1010C9400001F920F920FB60F92112450
:100130002F933F938F939F93109258023091030116
:10014000209157028091570290915B0223278927C3
:100150002823203119F434FF08C004C0203211F0E4
:10016000203419F481E080935802309357029F9114
:100170008F913F912F910F900FBE0F901F90189568
:1001800010928000E1E8F0E092E090838081886046
:10019000808390936F0082E19FE190938900809328
:1001A000880099E29093A00081E08093A1001092D2
:1001B000AD001092AC001092AB001092AA00909388
:1001C00090008093910010929D0010929C001092DC
:1001D0009B0010929A007894089581E080935402D5
:1001E000809358020E9490010E94C0008FE7809384
:1001F0005B021092570220E030E040E050E0DA016C
:10020000C9019C01AD012F5F3F4F4F4F5F4F80E011
:1002100090E0A0E0B0E0203068E236076BE64607E9
:100220006EEE560770F7EBCF1F920F920FB60F923C
:1002300011242F933F934F935F936F937F938F93EB
:100240009F93AF93BF93EF93FF93809150028823C6
:1002500019F48FEF90E002C080EF90EF909352027C
:100260008093510280915102909152020E94B301F9
:10027000809153020E94E001809153028F5F80932E
:100280005302843091F085303CF4823071F0833039
:1002900064F4813081F509C0863039F086302CF065
:1002A000873019F0883039F513C080E890E09093DA
:1002B000AB008093AA009093AD008093AC00909324
:1002C0009B0080939A0090939D0080939C0017C0A0
:1002D00080E890E09093AB008093AA009093AD00EB
:1002E0008093AC0090939B0080939A0090939D0024
:1002F00080939C0002C0883014F010925302FF914A
:10030000EF91BF91AF919F918F917F916F915F918D
:100310004F913F912F910F900FBE0F901F90189506
:1003200090EF9AB98BB18F708BB99DB980E38093B0
:10033000010180E880930401E5E0F1E080818068BC
:10034000808390930A01EBE0F1E080818F708083DD
:100350000895909100018295880F880F807C9823E2
:10036000892F992708959C0140E050E020FF04C0A8
:1003700080910B01806203C080910B018F7D80937F
:100380000B0180910B01806180930B010000809133
:100390000B018F7E80930B014F5F5F4F4031510502
:1003A00019F036952795E2CF80910B0180648093F8
:1003B0000B01000080910B018F7B80930B0108954E
:1003C000EBE0F1E09081906890839BB19F789BB9BE
:1003D0009BB18295807F982B9BB980818F7780839A
:0403E0000895FFCFAE
:1003E400FF0000000000000000000000000000000A
:1003F40080808080808080808080808080808080F9
:10040400000000000000000000000000000000FFE9
:1004140001010101010101010101010101010101C8
:100424003C3C7E7EFFFFFFFFFFFFFFFF7E7E3C3CE8
:00000001FF
