:100000000C9472000C9491000C9491000C9491004B
:100010000C9491000C9491000C9491000C9491001C
:100020000C9491000C9491000C9493000C9491000A
:100030000C9491000C9491000C9491000C949100FC
:100040000C9491000C94E8000C9491000C94910095
:100050000C9491000C9491000C9491000C949100DC
:100060000C9491000C9491000C9491000C949100CC
:100070000C9491000C9491000C9491000C949100BC
:100080000C9491000C9491000C9491000C949100AC
:100090000C9491000C9491000C9491000C9491009C
:1000A0000C9491000C9491000C9491000C9491008C
:1000B0000C9491000C9491000C9491000C9491007C
:1000C0000C9491000C9491000C9491000C9491006C
:1000D0000C9491000C9491000C9491000C9491005C
:1000E0000C94910011241FBECFEFD1E2DEBFCDBF33
:1000F00012E0A0E0B2E0ECE2F3E000E00BBF02C0EF
:1001000007900D92A035B107D9F712E0A0E5B2E053
:1001100001C01D92AB35B107E1F70E94D9000C94E4
:1001200095010C9400001F920F920FB60F921124AC
:100130002F933F938F939F93109257023091030117
:10014000209156028091560290915A0223278927C6
:100150002823203119F434FD08C004C0203211F0E6
:10016000203419F481E080935702309356029F9116
:100170008F913F912F910F900FBE0F901F90189568
:1001800010928000E1E8F0E083E080838081886065
:10019000808322E020936F008DE093E090938900AC
:1001A00080938800209368008EEF80936C00789491
:1001B000089581E080935302809357020E94350195
:1001C0000E94C0008FE780935A0210925602FFCF20
:1001D0001F920F920FB60F9211242F933F934F93BC
:1001E0005F936F937F938F939F93AF93BF93EF939F
:1001F000FF9380915702882381F0E0915202FF27FC
:10020000E7FDF095EE0FFF1FE05CFD4F80819181CF
:10021000909351028093500204C0109251021092A8
:10022000500280915002909151020E94570180919A
:1002300052020E948401809152028F5F8093520289
:10024000883014F010925202FF91EF91BF91AF915C
:100250009F918F917F916F915F914F913F912F91DE
:100260000F900FBE0F901F90189590EF9AB98BB119
:100270008F708BB980E38093010180E88093040143
:10028000E5E0F1E080818068808390930A01EBE0F3
:10029000F1E080818F7080830895909100018295B4
:1002A000880F880F807C9823892F992708959C01B7
:1002B00040E050E020FF04C080910B01806203C049
:1002C00080910B018F7D80930B0180910B018061E8
:1002D00080930B01000080910B018F7E80930B01B6
:1002E0004F5F5F4F4031510519F036952795E2CFAA
:1002F00080910B01806480930B01000080910B01C1
:100300008F7B80930B010895EBE0F1E09081906882
:1003100090839BB19F789BB99BB18295807F982BEE
:0C0320009BB980818F7780830895FFCF08
:10032C00FF000000000000000000000000000000C2
:10033C0080808080808080808080808080808080B1
:10034C00000000000000000000000000000000FFA2
:10035C000101010101010101010101010101010181
:10036C003C3C7E7EFFFFFFFFFFFFFFFF7E7E3C3CA1
:00000001FF
