:100000000C9490000C94BA000C94BA000C94BA00B2
:100010000C94BA000C94BA000C94BA000C94BA0078
:100020000C94BA000C94BA000C94B4170C94881772
:100030000C94BA000C9495220C94BA000C94BA005B
:100040000C94BA000C94C2220C94BA000C94BA001E
:100050000C94BA000C94EF220C94BA000C94BA00E1
:100060000C94BA000C94750D0C94BA000C94BA0060
:100070000C94BA000C94BA000C94BA000C94BA0018
:100080000C9468220C94BA000C94BA000C94BA0038
:100090000C943C0D0C94BA000C94BA000C94BA0069
:1000A0000C94BA000C94BA000C943B220C94BA0045
:1000B0000C94BA000C94BA000C94BA000C940E2262
:1000C0000C94BA000C94BA000C9401120C94BA006F
:1000D0000C94BA000C94BA000C94BA000C94BA00B8
:1000E0000C94BA00000000000000000000000000B6
:1000F0000000000000000000000000000000000000
:1001000000000000000000000000000000000000EF
:10011000000000000000000000000000FC12EF12D0
:1001200011241FBECFEFD1E2DEBFCDBF13E0A0E0B0
:10013000B2E0EAE9FFE500E00BBF02C007900D92D4
:10014000AE34B107D9F713E0AEE4B3E001C01D92BD
:10015000A33BB107E1F711E0CEE1D1E004C0229763
:10016000FE010E94BD2FCC31D107C9F70E9417199B
:100170000C94C12F0C940000CF93DF93CDB7DEB762
:10018000A8970FB6F894DEBF0FBECDBF9E8F8D8FA0
:10019000ABE0B1E0EBE0F1E0808180688C93ABE212
:1001A000B0E0EBE2F0E080818F788C93ABE2B0E0DE
:1001B000EBE2F0E08081282FED8DFE8D808999277C
:1001C0008770907082959295907F9827807F98276E
:1001D000822B8C9319861A861B861C8649C029851A
:1001E0003A854B855C852DA33EA34FA358A78985EF
:1001F0009A85AB85BC852D8D3E8D880F991FFC019E
:10020000E20FF31F40815181ED8DFE8D808999278A
:10021000880F991FFC01E050FE4F8081282F332763
:100220008FE090E0BC01621B730B9B0181E090E0CA
:10023000022E02C0880F991F0A94E2F784239523A7
:100240001CA2009711F071E07CA3CE010D96EDA1E8
:10025000FEA1E80FF91F8CA1808389859A85AB8563
:10026000BC850196A11DB11D89879A87AB87BC8784
:1002700089859A85AB85BC8588309105A105B10536
:1002800008F4ADCF1D821E821F8218864FC08D815B
:100290009E81AF81B8859C01AD01285F3F4F4F4FD4
:1002A0005F4F28A339A34AA35BA38D819E81AF81B1
:1002B000B8852D8D3E8D880F991FFC01E20FF31F2D
:1002C00040815181ED8DFE8D80899927880F991F7E
:1002D000FC01EF5FFD4F8081282F33278FE090E0F6
:1002E000BC01621B730B9B0181E090E0022E02C0F7
:1002F000880F991F0A94E2F7842395231F8E009795
:1003000011F071E07F8FCE010D96E8A1F9A1E80F01
:10031000F91F8F8D80838D819E81AF81B885019675
:10032000A11DB11D8D839E83AF83B8878D819E8172
:10033000AF81B88588309105A105B10508F4A7CF34
:1003400019821A821B821C8235C089819A81AB81F5
:10035000BC819E01235F3F4FF901E80FF91F8081A7
:10036000882341F0ABE0B1E0EBE0F1E08081806216
:100370008C9307C0ABE0B1E0EBE0F1E080818F7DD2
:100380008C93ABE0B1E0EBE0F1E0808180618C9395
:10039000ABE0B1E0EBE0F1E080818F7E8C9389816E
:1003A0009A81AB81BC810196A11DB11D89839A837D
:1003B000AB83BC8389819A81AB81BC8180319105FB
:1003C000A105B10510F2ABE0B1E0EBE0F1E0808116
:1003D00080648C93ABE0B1E0EBE0F1E080818F7B57
:1003E0008C93ABE0B1E0EBE0F1E090818FE7892303
:1003F0008C93ED8DFE8D80898F5FED8DFE8D808BD2
:10040000ED8DFE8D8089883019F4ED8DFE8D108A7A
:10041000A8960FB6F894DEBF0FBECDBFDF91CF9187
:100420000895CF93DF93CDB7DEB726970FB6F89434
:10043000DEBF0FBECDBF9E838D83ED81FE81108A0E
:1004400019821A821B821C820FC08D819E810E949C
:10045000BC0089819A81AB81BC810196A11DB11D2F
:1004600089839A83AB83BC8389819A81AB81BC8168
:1004700088309105A105B10540F326960FB6F89492
:10048000DEBF0FBECDBFDF91CF910895CF93DF9335
:10049000CDB7DEB729970FB6F894DEBF0FBECDBF3C
:1004A0009F838E8379876887EFE5F0E0908180E80D
:1004B00089238D83F89419821A821B821C8225C09D
:1004C00049815A816B817C8189819A81880F991F2A
:1004D0009C0188859985F901E80FF91FA081B181F8
:1004E0002E813F81CA01880F991FFC01E20FF31F83
:1004F000B183A08389819A81AB81BC810196A11DC2
:10050000B11D89839A83AB83BC8389819A81AB8136
:10051000BC8188309105A105B10590F2AFE5B0E04E
:10052000EFE5F0E090818D81892B8C9329960FB6B1
:10053000F894DEBF0FBECDBFDF91CF910895EF924B
:10054000FF920F931F93CF93DF93CDB7DEB76D97D5
:100550000FB6F894DEBF0FBECDBF9B8B8A8B7D8B11
:100560006C8B4E8B2F8B088FE98EEFE5F0E090813E
:1005700080E88923898BF8941D861E861F86188A39
:10058000888D9927AA27BB2789879A87AB87BC873D
:10059000D8C01D821E821F821886898D9927AA279E
:1005A000BB2789839A83AB83BC8392C08D859E854C
:1005B000880F991F9C018C899D89F901E80FF91F0B
:1005C000408151818E89282F33278D819E81B901E9
:1005D000681B790BCB0101979C0181E090E0022E12
:1005E00002C0880F991F0A94E2F78423952300978D
:1005F00061F1E984FA840B851C8589859A85AB8530
:10060000BC852A893B89880F991FFC01E20FF31FE3
:100610004081518129813A818FE090E0821B930BC8
:100620009C0181E090E002C0880F991F2A95E2F7B3
:10063000482B592B2A893B89C701880F991FFC0138
:10064000E20FF31F518340832DC0E984FA840B85A8
:100650001C8589859A85AB85BC852A893B89880F4D
:10066000991FFC01E20FF31F4081518129813A81DA
:100670008FE090E0821B930B9C0181E090E002C030
:10068000880F991F2A95E2F7809590954823592362
:100690002A893B89C701880F991FFC01E20FF31FCC
:1006A000518340838D819E81AF81B8850196A11DC4
:1006B000B11D8D839E83AF83B88789819A81AB8179
:1006C000BC810196A11DB11D89839A83AB83BC8334
:1006D000898D282F33278E899927820F931F9B8F0F
:1006E0008A8F8A8D9B8D8131910524F060E170E0C5
:1006F0007B8F6A8F8A8D9B8D9C01442737FD4095A7
:10070000542F89819A81AB81BC8182179307A407FA
:10071000B50708F44BCF8D859E85AF85B8890196C6
:10072000A11DB11D8D879E87AF87B88B89859A855E
:10073000AB85BC850196A11DB11D89879A87AB87C2
:10074000BC87888D282F33278F899927820F931F85
:100750009D8F8C8F6C8D7D8D6930710524F088E0C4
:1007600090E09D8F8C8F6C8D7D8D9B01442737FD94
:100770004095542F89859A85AB85BC858217930750
:10078000A407B50708F405CFAFE5B0E0EFE5F0E06A
:1007900090818989892B8C936D960FB6F894DEBF72
:1007A0000FBECDBFDF91CF911F910F91FF90EF90C2
:1007B0000895CF93DF93CDB7DEB763970FB6F89464
:1007C000DEBF0FBECDBF98878F836987EFE5F0E06E
:1007D000908180E889238E83F8941A821B821C8280
:1007E0001D8278C08A819B81AC81BD812F81388533
:1007F000880F991FFC01E20FF31F808191811982FC
:10080000992314F481E089834A815B816C817D8125
:100810008A819B81AC81BD812F813885880F991F8A
:10082000FC01E20FF31F80819181DC01AA0FBB1F45
:100830002F813885CA01880F991FFC01E20FF31F31
:10084000B183A0838A819B81AC81BD81888B998B88
:10085000AA8BBB8B8A819B81AC81BD812F8138851E
:10086000880F991FFC01E20FF31F0190F081E02D2A
:10087000FF87EE878985882379F08981882329F08D
:10088000A1E0B0E0BB87AA8702C01B861A868A85D2
:100890009B859D878C8702C01D861C864E855F8543
:1008A000AC85BD854A2B5B2B2F813885888999893A
:1008B000880F991FFC01E20FF31F518340838A8147
:1008C0009B81AC81BD810196A11DB11D8A839B8353
:1008D000AC83BD838A819B81AC81BD8188309105C9
:1008E000A105B10508F47ECFAFE5B0E0EFE5F0E09B
:1008F00090818E81892B8C9363960FB6F894DEBF1E
:100900000FBECDBFDF91CF910895CF93DF93CDB7C9
:10091000DEB763970FB6F894DEBF0FBECDBF9887E2
:100920008F836987EFE5F0E0908180E889238E83EB
:10093000F8941A821B821C821D8276C08A819B8158
:10094000AC81BD812F813885880F991FFC01E20F92
:10095000F31F808191818170907089834A815B81CE
:100960006C817D818A819B81AC81BD812F8138859D
:10097000880F991FFC01E20FF31F80819181DC0138
:10098000B695A7952F813885CA01880F991FFC015C
:10099000E20FF31FB183A0838A819B81AC81BD816B
:1009A000888B998BAA8BBB8B8A819B81AC81BD8103
:1009B0002F813885880F991FFC01E20FF31F0190EA
:1009C000F081E02DFF87EE878985882379F0898182
:1009D000882329F0A0E0B0E8BB87AA8702C01B8665
:1009E0001A868A859B859D878C8702C01D861C86FA
:1009F0004E855F85AC85BD854A2B5B2B2F81388565
:100A000088899989880F991FFC01E20FF31F518390
:100A100040838A819B81AC81BD810196A11DB11D5E
:100A20008A839B83AC83BD838A819B81AC81BD819A
:100A300088309105A105B10508F480CFAFE5B0E09D
:100A4000EFE5F0E090818E81892B8C9363960FB651
:100A5000F894DEBF0FBECDBFDF91CF910895CF9345
:100A6000DF93CDB7DEB72C970FB6F894DEBF0FBE7D
:100A7000CDBF998788876A87EFE5F0E0908180E8AD
:100A800089238F83F894E885F985808191819E83FD
:100A90008D8381E090E0A0E0B0E089839A83AB830E
:100AA000BC832CC089819A81AB81BC81AC01BD0122
:100AB000415050406040704089819A81AB81BC8137
:100AC00028853985880F991FFC01E20FF31FA0814B
:100AD000B18128853985CA01880F991FFC01E20F71
:100AE000F31FB183A08389819A81AB81BC81019678
:100AF000A11DB11D89839A83AB83BC8389819A81AF
:100B0000AB81BC8188309105A105B10558F28A8579
:100B1000882329F08D819E819C878B8702C01C864B
:100B20001B86E885F9858B859C8597878687AFE549
:100B3000B0E0EFE5F0E090818F81892B8C932C96CB
:100B40000FB6F894DEBF0FBECDBFDF91CF910895F1
:100B5000CF93DF93CDB7DEB72C970FB6F894DEBFF7
:100B60000FBECDBF998788876A87EFE5F0E0908157
:100B700080E889238F83F894E885F98586859785B1
:100B80009E838D8387E090E0A0E0B0E089839A8324
:100B9000AB83BC8329C049815A816B817C81898167
:100BA0009A81AB81BC810197A109B109288539855A
:100BB000880F991FFC01E20FF31FA081B1812885E6
:100BC0003985CA01880F991FFC01E20FF31FB18319
:100BD000A08389819A81AB81BC810197A109B10968
:100BE00089839A83AB83BC8389819A81AB81BC81E1
:100BF0000097A105B10579F68A85882329F08D81B2
:100C00009E819C878B8702C01C861B86E885F985A0
:100C10008B859C8591838083AFE5B0E0EFE5F0E0C4
:100C200090818F81892B8C932C960FB6F894DEBF20
:100C30000FBECDBFDF91CF910895CF93DF93CDB796
:100C4000DEB722970FB6F894DEBF0FBECDBF9A83F2
:100C5000898389819A8160E00E94D90322960FB628
:100C6000F894DEBF0FBECDBFDF91CF910895CF9333
:100C7000DF93CDB7DEB722970FB6F894DEBF0FBE75
:100C8000CDBF9A83898389819A8160E00E9485041F
:100C900022960FB6F894DEBF0FBECDBFDF91CF9185
:100CA0000895CF93DF93CDB7DEB722970FB6F894B0
:100CB000DEBF0FBECDBF9A83898389819A8160E0B0
:100CC0000E942F0522960FB6F894DEBF0FBECDBF4F
:100CD000DF91CF910895CF93DF93CDB7DEB7229701
:100CE0000FB6F894DEBF0FBECDBF9A83898389818A
:100CF0009A8160E00E94A80522960FB6F894DEBFA4
:100D00000FBECDBFDF91CF910895CF93DF93CDB7C5
:100D1000DEB722970FB6F894DEBF0FBECDBF9A8321
:100D2000898389819A8161E00E94D90322960FB656
:100D3000F894DEBF0FBECDBFDF91CF910895CF9362
:100D4000DF93CDB7DEB722970FB6F894DEBF0FBEA4
:100D5000CDBF9A83898389819A8161E00E9485044D
:100D600022960FB6F894DEBF0FBECDBFDF91CF91B4
:100D70000895CF93DF93CDB7DEB722970FB6F894DF
:100D8000DEBF0FBECDBF9A83898389819A8161E0DE
:100D90000E942F0522960FB6F894DEBF0FBECDBF7E
:100DA000DF91CF910895CF93DF93CDB7DEB7229730
:100DB0000FB6F894DEBF0FBECDBF9A8389838981B9
:100DC0009A8161E00E94A80522960FB6F894DEBFD2
:100DD0000FBECDBFDF91CF910895CF93DF93CDB7F5
:100DE000DEB723970FB6F894DEBF0FBECDBF9B834F
:100DF0008A83EFE5F0E0908180E889238983F89485
:100E00008A819B8120E1FC01DF01822F1D928A955E
:100E1000E9F7AFE5B0E0EFE5F0E090818981892B5B
:100E20008C9323960FB6F894DEBF0FBECDBFDF9133
:100E3000CF910895CF93DF93CDB7DEB722970FB64A
:100E4000F894DEBF0FBECDBF9A838983AAE0B1E0DC
:100E5000EAE0F1E08081806F8C93ABE0B1E0EBE001
:100E6000F1E090818FE089238C93AAE2B0E0EAE27E
:100E7000F0E08081806F8C93ABE2B0E0EBE2F0E0D9
:100E800090818FE089238C9389819A810E94ED065D
:100E900022960FB6F894DEBF0FBECDBFDF91CF9183
:100EA0000895CF93DF93CDB7DEB722970FB6F894AE
:100EB000DEBF0FBECDBF9A83898389819A810E944C
:100EC0001A07E981FA81108A22960FB6F894DEBFDC
:100ED0000FBECDBFDF91CF910895CF93DF93CDB7F4
:100EE000DEB722970FB6F894DEBF0FBECDBF9A8350
:100EF000898389819A810E941A07E981FA81108A7F
:100F000022960FB6F894DEBF0FBECDBFDF91CF9112
:100F100008950F931F93CF93DF93CDB7DEB78091E2
:100F20004E0390914F03009761F481E190E00E949D
:100F3000CA1D8C01C8010E94510710934F030093F2
:100F40004E0380914E0390914F03DF91CF911F91FB
:100F50000F910895CF93DF93CDB7DEB7EDE2F0E0C8
:100F600080EF8083E1E0F1E080E38083E4E0F1E082
:100F700080E88083A5E0B1E0E5E0F1E08081806871
:100F80008C93DF91CF9108950F931F93CF93DF93AD
:100F9000CDB7DEB72F970FB6F894DEBF0FBECDBF2B
:100FA0008D837F836E83598748873B872A871D8778
:100FB0000C878E819F819C014427552780E492E411
:100FC000AFE0B0E0BC01CD010E94472FDA01C901BA
:100FD0000197A109B10989839A83AB83BC838D8171
:100FE000282F33273F872E878E859F85009731F0E6
:100FF0002E853F852130310559F153C0E5ECF0E0F5
:1010000089819A81AB81BC81892F9A2FAB2FBB2715
:101010008083E4ECF0E089818083E2ECF0E08A8573
:10102000992782959295907F9827807F9827282FDF
:101030008C859927880F991F880F991F880F991FF2
:10104000282B88859927880F991F822B808329C098
:10105000EDECF0E089819A81AB81BC81892F9A2FD8
:10106000AB2FBB278083ECECF0E089818083EAEC36
:10107000F0E08A85992782959295907F9827807FC6
:101080009827282F8C859927880F991F880F991FDB
:10109000880F991F282B88859927880F991F822BE5
:1010A00080832F960FB6F894DEBF0FBECDBFDF91C1
:1010B000CF911F910F910895CF93DF93CDB7DEB7F6
:1010C00025970FB6F894DEBF0FBECDBF89836A8324
:1010D0004B838981282F33273D832C838C819D81ED
:1010E000009731F02C813D812130310539F14BC021
:1010F0008A81882341F0A1ECB0E0E1ECF0E080814E
:1011000088608C9307C0A1ECB0E0E1ECF0E0808156
:10111000877F8C938B81882341F0A1ECB0E0E1ECD8
:10112000F0E0808180698C932EC0A1ECB0E0E1EC0E
:10113000F0E090818FE689238C9325C08A818823F3
:1011400041F0A9ECB0E0E9ECF0E0808188608C939C
:1011500007C0A9ECB0E0E9ECF0E08081877F8C93D8
:101160008B81882341F0A9ECB0E0E9ECF0E08081CC
:1011700080698C9308C0A9ECB0E0E9ECF0E09081C4
:101180008FE689238C9325960FB6F894DEBF0FBEA9
:10119000CDBFDF91CF910895CF93DF93CDB7DEB769
:1011A00024970FB6F894DEBF0FBECDBF89836A8344
:1011B0008981282F33273C832B838B819C81009747
:1011C00039F02B813C812130310571F017C00000CE
:1011D000E0ECF0E0808180E08823C9F7E6ECF0E005
:1011E0008A8180830BC00000E8ECF0E0808180E021
:1011F0008823C9F7EEECF0E08A81808324960FB64D
:10120000F894DEBF0FBECDBFDF91CF9108950F934D
:101210001F93CF93DF93CDB7DEB72A970FB6F8941D
:10122000DEBF0FBECDBF9A8389837C836B835E83D1
:101230004D8338872F831A870987E981FA81E081F6
:1012400089859A852F8138854D815E816B817C816E
:101250008C018E2F0E94C407E981FA818B819C81C9
:1012600092838183E981FA818D819E819483838336
:10127000E981FA818F81988596838583E981FA8156
:1012800089859A85908787832A960FB6F894DEBF62
:101290000FBECDBFDF91CF911F910F9108950F9396
:1012A0001F93CF93DF93CDB7DEB722970FB6F89495
:1012B000DEBF0FBECDBF9A83898389819A8100E00A
:1012C00010E020E030E043E050E060E875E20E948A
:1012D000070922960FB6F894DEBF0FBECDBFDF918F
:1012E000CF911F910F910895CF93DF93CDB7DEB7C4
:1012F00024970FB6F894DEBF0FBECDBF9A838983C3
:101300006B834C83E981FA8180814C816B810E94DF
:101310005C08E981FA818B818187E981FA818C817E
:10132000828724960FB6F894DEBF0FBECDBFDF9143
:10133000CF910895CF93DF93CDB7DEB723970FB644
:10134000F894DEBF0FBECDBF9A8389836B838981FA
:101350009A81FC01E15FFD4F80819181A281B3817F
:10136000803021E0920720E0A20720E0B20751F18F
:1013700089819A81FC01E15FFD4F80819181A28189
:10138000B38129813A81820F931FFC01E55FFE4FF3
:101390008B81808389819A81FC01E15FFD4F80818F
:1013A0009181A281B3819C01AD012F5F3F4F4F4FCF
:1013B0005F4F89819A81FC01E15FFD4F208331837A
:1013C0004283538323960FB6F894DEBF0FBECDBF82
:1013D000DF91CF910895CF93DF93CDB7DEB76897B4
:1013E0000FB6F894DEBF0FBECDBF9A8789877C8782
:1013F0006B872D873E874F87588B89859A85FC019F
:10140000E55FFD4F208131814281538180E091E091
:10141000A0E0B0E0821B930BA40BB50B2D853E859D
:101420004F8558892D8B3E8B4F8B588F898B9A8B8C
:10143000AB8BBC8B89899A89AB89BC892D893E8904
:101440004F89588D281739074A075B0740F48D8963
:101450009E89AF89B88D898B9A8BAB8BBC8B298980
:101460003A894B895C892D833E834F835887198243
:101470001A821B821C822EC089859A85FC01E55F39
:10148000FD4F208131814281538189819A81AB81D5
:10149000BC81BA01A901480F591F6A1F7B1F8981AE
:1014A0009A819C018B859C85F901E80FF91F2081A9
:1014B00089859A85840F951FFC013B96208389813D
:1014C0009A81AB81BC810196A11DB11D89839A834C
:1014D000AB83BC8329813A814B815C818D819E8164
:1014E000AF81B885281739074A075B0728F2898535
:1014F0009A85FC01E55FFD4F208131814281538156
:101500008D819E81AF81B885280F391F4A1F5B1FCF
:1015100089859A85FC01E55FFD4F208331834283F5
:1015200053838D819E81AF81B885BC01CD016896C2
:101530000FB6F894DEBF0FBECDBFDF91CF910895F7
:10154000CF93DF93CDB7DEB726970FB6F894DEBF03
:101550000FBECDBF9E838D8319821A821B821C828F
:101560001CC089819A81AB81BC812D813E81820F13
:10157000931FFC013B969081ED81FE818081692F54
:101580000E94CC0889819A81AB81BC810196A11D02
:10159000B11D89839A83AB83BC838D819E81FC01BD
:1015A000E55FFD4F208131814281538189819A819C
:1015B000AB81BC8182179307A407B50790F28D8198
:1015C0009E810B9620E031E0FC01DF01C9011D92F4
:1015D0000197E9F78D819E81FC01E55FFD4F108247
:1015E00011821282138226960FB6F894DEBF0FBEC8
:1015F000CDBFDF91CF910895EF92FF920F931F938C
:10160000CF93DF93CDB7DEB7A5970FB6F894DEBFC3
:101610000FBECDBF9F878E87798B688B2A8B3B8BC4
:101620004C8B5D8B8A899B89AC89BD890097A1050C
:10163000B10549F02A893B894C895D892E8F3F8FFE
:1016400048A359A308C080E091E0A0E0B0E08E8FED
:101650009F8FA8A3B9A38E859F85FC01E15FFD4FF5
:1016600080819181A281B3812E8D3F8D48A159A1A6
:10167000281739074A075B0710F58A899B89AC89C7
:10168000BD890097A105B10549F08A899B89AC897C
:10169000BD898A8F9B8FAC8FBD8F08C020E031E061
:1016A00040E050E02A8F3B8F4C8F5D8F8A8D9B8D61
:1016B000AC8DBD8D8AA39BA3ACA3BDA30DC08E85AD
:1016C0009F85FC01E15FFD4F208131814281538183
:1016D0002AA33BA34CA35DA38AA19BA1ACA1BDA15E
:1016E0008A879B87AC87BD878A859B85AC85BD85AE
:1016F0000097A105B10529F41E8A1F8A188E198E3C
:10170000CAC0EFE5F0E0908180E889238987F894EA
:101710001D821E821F82188621C08D819E819C01A0
:1017200088899989A901480F591F8D819E81AF81B0
:10173000B8852E853F85820F931FFC01E55FFE4F24
:101740008081DA018C938D819E81AF81B88501966D
:10175000A11DB11D8D839E83AF83B8872D813E81EE
:101760004F8158858A859B85AC85BD8528173907AB
:101770004A075B0790F28E859F85FC01E15FFD4F74
:1017800020813181428153818A859B85AC85BD85CD
:10179000281739074A075B07B9F48E859F85855F4F
:1017A0009E4F20E031E0FC01DF01A9011D92415074
:1017B0005040E1F78E859F85FC01E15FFD4F10826F
:1017C00011821282138257C019821A821B821C82D4
:1017D0002BC0E980FA800B811C8129813A814B81E1
:1017E0005C818A859B85AC85BD85820F931FA41F74
:1017F000B51F2E853F85820F931FFC01E55FFE4FCD
:1018000020818E859F858E0D9F1DFC01E55FFE4F1B
:10181000208389819A81AB81BC810196A11DB11D74
:1018200089839A83AB83BC8329813A814B815C8114
:101830008A859B85AC85BD85281739074A075B07D4
:1018400040F28E859F85FC01E15FFD4F2081318153
:10185000428153818A859B85AC85BD85281B390BC8
:101860004A0B5B0B8E859F85FC01E15FFD4F20835A
:10187000318342835383AFE5B0E0EFE5F0E0908140
:101880008985892B8C938A859B85AC85BD858E8BBC
:101890009F8BA88FB98F8E899F89A88DB98DBC0128
:1018A000CD01A5960FB6F894DEBF0FBECDBFDF9178
:1018B000CF911F910F91FF90EF900895CF93DF93F9
:1018C000CDB7DEB723970FB6F894DEBF0FBECDBFFE
:1018D0009A8389836B83E981FA818B8180838981F3
:1018E0009A810B9620E031E0FC01DF01C9011D92D5
:1018F0000197E9F789819A81855F9E4F20E031E069
:10190000FC01DF01C9011D920197E9F789819A81E4
:10191000FC01E55FFD4F10821182128213828981E2
:101920009A81FC01E15FFD4F1082118212821382C5
:10193000E981FA811186E981FA81128689819A8189
:101940000E944F0923960FB6F894DEBF0FBECDBF9D
:10195000DF91CF910895CF93DF93CDB7DEB7239773
:101960000FB6F894DEBF0FBECDBF9A8389836B8319
:10197000E981FA818B81808389819A810B9620E0AD
:1019800031E0FC01DF01C9011D920197E9F789816E
:101990009A81855F9E4F20E031E0FC01DF01C901A3
:1019A0001D920197E9F789819A81FC01E55FFD4F5E
:1019B000108211821282138289819A81FC01E15F77
:1019C000FD4F1082118212821382E981FA81118601
:1019D000E981FA81128689819A810E944F092396B2
:1019E0000FB6F894DEBF0FBECDBFDF91CF91089543
:1019F000EF92FF920F931F93CF93DF93CDB7DEB794
:101A000021970FB6F894DEBF0FBECDBF89838981C1
:101A10009927880F991FFC01E05BFC4F8081918121
:101A20000097A1F48981E82EFF2483E192E00E94CF
:101A3000CA1D8C016981C8010E945E0CC701880F14
:101A4000991FFC01E05BFC4F11830083898199277A
:101A5000880F991FFC01E05BFC4F808191812196EA
:101A60000FB6F894DEBF0FBECDBFDF91CF911F91AF
:101A70000F91FF90EF9008951F920F920FB60F9263
:101A800011242F933F934F935F936F937F938F9383
:101A90009F93AF93BF93EF93FF93CF93DF93CDB714
:101AA000DEB72197DEBFCDBFEEECF0E08081898309
:101AB00081E00E94F80C69810E949A092196F894AD
:101AC000DEBFCDBFDF91CF91FF91EF91BF91AF917D
:101AD0009F918F917F916F915F914F913F912F9146
:101AE0000F900FBE0F901F9018951F920F920FB678
:101AF0000F9211242F933F934F935F936F937F9394
:101B00008F939F93AF93BF93EF93FF93CF93DF9305
:101B1000CDB7DEB72197DEBFCDBFE6ECF0E0808128
:101B2000898380E00E94F80C69810E949A092196BD
:101B3000F894DEBFCDBFDF91CF91FF91EF91BF91C0
:101B4000AF919F918F917F916F915F914F913F9155
:101B50002F910F900FBE0F901F901895CF93DF938A
:101B6000CDB7DEB722970FB6F894DEBF0FBECDBF5C
:101B70009A83898389819A81892F99279927229627
:101B80000FB6F894DEBF0FBECDBFDF91CF910895A1
:101B9000CF93DF93CDB7DEB722970FB6F894DEBFB1
:101BA0000FBECDBF9A83898322960FB6F894DEBF0D
:101BB0000FBECDBFDF91CF910895CF93DF93CDB707
:101BC000DEB727970FB6F894DEBF0FBECDBF9F8359
:101BD0008E83EFE5F0E0908180E889238983F89493
:101BE000EE81FF8181859285A385B4858A839B835D
:101BF000AC83BD83AFE5B0E0EFE5F0E09081898193
:101C0000892B8C938A819B81AC81BD81BC01CD01E4
:101C100027960FB6F894DEBF0FBECDBFDF91CF91F0
:101C20000895CF93DF93CDB7DEB723970FB6F8941F
:101C3000DEBF0FBECDBF9A8389836B83E981FA81B2
:101C40008B81868B23960FB6F894DEBF0FBECDBF77
:101C5000DF91CF910895CF93DF93CDB7DEB72B9768
:101C60000FB6F894DEBF0FBECDBF9B838A834C8333
:101C70005D836E837F83EFE5F0E0908180E88923C8
:101C80008983F894EA81FB818C819D81AE81BF813B
:101C9000828B938BA48BB58BEA81FB812185328566
:101CA00043855485EA81FB8182899389A489B5891A
:101CB000281739074A075B070CF5EA81FB81858500
:101CC0009685A785B0899B878A872A853B8533239C
:101CD0003CF48A859B85909581959F4F9B878A8749
:101CE0002A853B85C901AA2797FDA095BA2FEA81CD
:101CF000FB8185879687A787B08B22C0EA81FB810D
:101D000085859685A785B0899987888788859985EF
:101D100099233CF428853985309521953F4F3987A3
:101D2000288788859985909581959F4FAA2797FD4B
:101D3000A095BA2FEA81FB8185879687A787B08B0C
:101D4000AFE5B0E0EFE5F0E090818981892B8C93DD
:101D50002B960FB6F894DEBF0FBECDBFDF91CF91AB
:101D60000895CF93DF93CDB7DEB727970FB6F894DA
:101D7000DEBF0FBECDBF9B838A834C835D836E83A2
:101D80007F83EFE5F0E0908180E889238983F894F0
:101D9000EA81FB812185328543855485EA81FB8177
:101DA00082899389A489B589281739074A075B076F
:101DB0005CF4EA81FB818C819D81AE81BF81858746
:101DC0009687A787B08B11C08C819D81AE81BF8122
:101DD000B095A095909581959F4FAF4FBF4FEA81E9
:101DE000FB8185879687A787B08BAFE5B0E0EFE5ED
:101DF000F0E090818981892B8C9327960FB6F89417
:101E0000DEBF0FBECDBFDF91CF910895CF93DF939B
:101E1000CDB7DEB724970FB6F894DEBF0FBECDBFA7
:101E20009B838A836C83EFE5F0E0908180E88923CF
:101E30008983F894EA81FB818C818483AFE5B0E0EB
:101E4000EFE5F0E090818981892B8C9324960FB681
:101E5000F894DEBF0FBECDBFDF91CF910895CF9331
:101E6000DF93CDB7DEB727970FB6F894DEBF0FBE6E
:101E7000CDBF9B838A837D836C835F834E83EFE535
:101E8000F0E0908180E889238983F894EA81FB81DE
:101E90008C819D8191838083EA81FB818E819F81EA
:101EA00093838283AFE5B0E0EFE5F0E09081898134
:101EB000892B8C9327960FB6F894DEBF0FBECDBF4B
:101EC000DF91CF910895CF93DF93CDB7DEB72397FE
:101ED0000FB6F894DEBF0FBECDBF9A8389836B83A4
:101EE0008B81882329F0E981FA818FEF878B04C0E9
:101EF000E981FA8181E0878B23960FB6F894DEBFE3
:101F00000FBECDBFDF91CF910895CF93DF93CDB7B3
:101F1000DEB722970FB6F894DEBF0FBECDBF9A830F
:101F2000898322960FB6F894DEBF0FBECDBFDF9136
:101F3000CF910895CF93DF93CDB7DEB722970FB639
:101F4000F894DEBF0FBECDBF9A838983E981FA8101
:101F50001482E981FA811582168217821086E9813E
:101F6000FA811186128613861486E981FA81158614
:101F700016861786108AE981FA8181E0818BE981D2
:101F8000FA81128A138A148A158AE981FA8181E01A
:101F9000878B89819A810E94850F22960FB6F894CB
:101FA000DEBF0FBECDBFDF91CF910895CF93DF93FA
:101FB000CDB7DEB722970FB6F894DEBF0FBECDBF08
:101FC0009A838983A8E6B0E0E8E6F0E08081866045
:101FD0008C93ACE6B0E0ECE6F0E08081806E8C9310
:101FE000ADE6B0E0EDE6F0E0808180688C9322966B
:101FF0000FB6F894DEBF0FBECDBFDF91CF9108952D
:10200000CF93DF93CDB7DEB722970FB6F894DEBF3C
:102010000FBECDBF9A83898322960FB6F894DEBF98
:102020000FBECDBFDF91CF910895CF93DF93CDB792
:10203000DEB722970FB6F894DEBF0FBECDBF9A83EE
:10204000898322960FB6F894DEBF0FBECDBFDF9115
:10205000CF910895CF93DF93CDB7DEB725970FB615
:10206000F894DEBF0FBECDBF9C838B831A8219828A
:102070008B819C81AA27BB2726E533E0AC01BD01FB
:10208000C9010E94B10E8B819C81AA27BB272EE635
:1020900033E0AC01BD01C9010E94B10E86E593E0B9
:1020A00040E050E060E070E00E942B0E8EE693E08E
:1020B00040E050E060E070E00E942B0E05C0898196
:1020C0009A8101969A8389838EE693E00E94DD0DC2
:1020D000DC01CB0182309105A105B1054CF089816D
:1020E0009A812FE0803A92071CF481E08D8301C031
:1020F0001D828D81882319F725960FB6F894DEBFCF
:102100000FBECDBFDF91CF910895CF93DF93CDB7B1
:10211000DEB788EB9BE00E942A10DF91CF910895F3
:10212000CF93DF93CDB7DEB724970FB6F894DEBF19
:102130000FBECDBF9A8389837C836B8386E593E052
:1021400061E00E94630F8EE693E060E00E94630FFF
:1021500086E593E04CE251E060E070E00E94B10E51
:102160008EE693E04CE251E060E070E00E94B10E38
:1021700089819A81AA27BB2726E533E0AC01BD01FE
:10218000C9010E942B0E8B819C81AA27BB272EE6BA
:1021900033E0AC01BD01C9010E942B0E24960FB69D
:1021A000F894DEBF0FBECDBFDF91CF910895CF93DE
:1021B000DF93CDB7DEB726970FB6F894DEBF0FBE1C
:1021C000CDBF9E838D8386E593E060E00E94630F20
:1021D0008EE693E061E00E94630F86E593E04CE2B7
:1021E00051E060E070E00E94B10E8EE693E04CE2B8
:1021F00051E060E070E00E94B10E8D819E81AA27BF
:10220000BB2726E533E0AC01BD01C9010E942B0EBE
:102210008D819E81AA27BB272EE633E0AC01BD014C
:10222000C9010E942B0E1C821B8212C01A821982C5
:1022300005C089819A8101969A83898389819A81CF
:1022400083329105B4F38B819C8101969C838B83AF
:102250008B819C812EE48032920744F326960FB640
:10226000F894DEBF0FBECDBFDF91CF910895CF931D
:10227000DF93CDB7DEB729970FB6F894DEBF0FBE58
:10228000CDBF8D837F836E835987488786E593E032
:102290004CE251E060E070E00E94B10E8EE693E007
:1022A0004CE251E060E070E00E94B10E8E819F81AF
:1022B000AA27BB2726E533E0AC01BD01C9010E9476
:1022C0002B0E88859985AA27BB272EE633E0AC0123
:1022D000BD01C9010E942B0E86E593E061E00E94DA
:1022E000630F8EE693E06D810E94630F1C821B8258
:1022F00012C01A82198205C089819A8101969A8337
:10230000898389819A8184319105B4F38B819C8181
:1023100001969C838B838B819C812EE48032920773
:1023200044F329960FB6F894DEBF0FBECDBFDF9100
:10233000CF910895CF93DF93CDB7DEB729970FB62E
:10234000F894DEBF0FBECDBF8D837F836E83598728
:10235000488786E593E04CE251E060E070E00E943F
:10236000B10E8EE693E04CE251E060E070E00E9436
:10237000B10E8E819F81AA27BB2726E533E0AC01F1
:10238000BD01C9010E942B0E88859985AA27BB270C
:102390002EE633E0AC01BD01C9010E942B0E9D81E8
:1023A00081E0292F282786E593E0622F0E94630FA2
:1023B0008EE693E060E00E94630F1C821B8212C0D5
:1023C0001A82198205C089819A8101969A8389832C
:1023D00089819A8184319105B4F38B819C81019626
:1023E0009C838B838B819C812EE48032920744F303
:1023F00029960FB6F894DEBF0FBECDBFDF91CF9107
:1024000008951F920F920FB60F921124CF93DF936E
:10241000CDB7DEB7DF91CF910F900FBE0F901F9019
:102420001895CF93DF93CDB7DEB7E0EAF0E08BE20B
:102430008083E1EAF0E081E18083E8EAF0E08FEF79
:1024400090E091838083ECEAF0E08FE790E0918365
:102450008083EAEAF0E08FE790E091838083E0E90F
:10246000F0E08BE28083E1E9F0E081E18083E8E95C
:10247000F0E08FEF90E091838083ECE9F0E08FE76C
:1024800090E091838083EAE9F0E08FE790E0918328
:1024900080837894DF91CF910895CF93DF93CDB768
:1024A000DEB723970FB6F894DEBF0FBECDBF9A8379
:1024B00089836B83E981FA818B818083E981FA8149
:1024C0001382E981FA8183E091E096838583E98133
:1024D000FA8184E08483E981FA811782E981FA81B3
:1024E00083E091E092878187E981FA8185E08087A6
:1024F000E981FA811386E981FA8183E091E0968788
:102500008587E981FA8186E08487E981FA811786E7
:10251000E981FA8186E091E0928B818BE981FA81F1
:1025200087E0808BE981FA81138A89819A810E94F0
:102530002D2689819A810E94D60F23960FB6F89492
:10254000DEBF0FBECDBFDF91CF910895CF93DF9354
:10255000CDB7DEB724970FB6F894DEBF0FBECDBF60
:102560009A8389837C836B8389819A8181309105E9
:10257000B9F48B819C812FEF8F3F920789F486E518
:1025800093E00E949A0F8EE693E00E949A0F86E8ED
:1025900093E00E9415108BE893E060E00E944D12DA
:1025A00089819A81009791F48B819C812FEF8F3FD5
:1025B000920761F48BE893E00E9400108EE693E0AE
:1025C0000E94C80D86E593E00E94C80D24960FB6C0
:1025D000F894DEBF0FBECDBFDF91CF910895CF93AA
:1025E000DF93CDB7DEB76FEF7FEF80E090E00E9422
:1025F000A612DF91CF910895CF93DF93CDB7DEB7C9
:102600006FEF7FEF81E090E00E94A612DF91CF9103
:1026100008958F92AF92CF92DF92EF92FF920F9335
:102620001F93CF93DF93CDB7DEB76C970FB6F894B7
:10263000DEBF0FBECDBF9E878D87788B6F875A8B8D
:10264000498B0B8B1C8B2D8B3E8BCF8AD88EE98EC2
:10265000FA8EAB8E8C8E8EEF90E09C878B8780E815
:102660008A87EF85F88980819181A281B3811816CC
:1026700019061A061B060CF5E989FA898081992743
:10268000AA27BB272B893C894D895E89BC01CD01D6
:102690000E94142FDC01CB01EF85F8892081318164
:1026A00042815381BC01CD010E94692FDA01C90129
:1026B0008A839B83AC83BD8308C08B899C89AD8949
:1026C000BE898A839B83AC83BD838A819B81AC81D5
:1026D000BD810097A105B10509F46FC0E989FA89A8
:1026E00081E08083EF85F8892081318142815381A7
:1026F0008A819B81AC81BD81820F931FA41FB51F6E
:102700008E839F83A887B9878B899C89AD89BE8971
:10271000181619061A061B06C4F42E813F81488537
:1027200059858F89988DA98DBA8D82179307A40733
:10273000B5075CF4EF85F8898F89988DA98DBA8DDE
:1027400080839183A283B38328C08B899C89AD89C0
:10275000BE89BB23C4F42E813F81488559858F896A
:10276000988DA98DBA8D281739074A075B075CF445
:10277000EF85F8898F89988DA98DBA8D8083918393
:10278000A283B3830AC0EF85F8898E819F81A885D3
:10279000B98580839183A283B383EF85F889808193
:1027A0009181A281B3817C018D018EA50E94CA21F5
:1027B000B801A7010E94992007C0E989FA898081A0
:1027C0008F5FE989FA898083ED85FE8520813181DB
:1027D000428153818C8D992787FD9095A92FB92F20
:1027E000820F931FA41FB51FED85FE858083918303
:1027F000A283B383ED85FE8580819181A281B3811F
:1028000083709070A070B070ED85FE858083918399
:10281000A283B383ED85FE8580819181A281B381FE
:10282000BB2354F4ED85FE8583E090E0A0E0B0E0AA
:1028300080839183A283B3838B8D869599279C0196
:10284000220F331FC9019695982F88279795879552
:10285000821B930B0E94AE0D8983ED85FE858081DE
:102860009181A281B381880F991FFC01ED5BFD4F1F
:10287000808191818130910549F48981992780581F
:102880009F4FEAA5FBA5918380830BC08981282FE8
:1028900033278FE790E0821B930BEAA5FBA591837A
:1028A0008083ED85FE8580819181A281B381880F2F
:1028B000991FFC01E55BFD4F80819181813091057D
:1028C00049F48981992780589F4FECA5FDA59183F4
:1028D00080830BC08981282F33278FE790E0821BEC
:1028E000930BECA5FDA5918380836C960FB6F894AD
:1028F000DEBF0FBECDBFDF91CF911F910F91FF9033
:10290000EF90DF90CF90AF908F9008956F927F926D
:102910008F92AF92BF92CF92DF92EF92FF920F937E
:102920001F93CF93DF93CDB7DEB722970FB6F894FE
:10293000DEBF0FBECDBF9A838983E981FA81D68835
:10294000E981FA8162817381E981FA81A081B18193
:10295000E981FA81C788E981FA81B480E981FA8145
:10296000E288F38804891589E981FA81258536850D
:102970004785508989819A81FC01719689819A8164
:102980000F2EF9E06F2E7724F02D680E791E8981C5
:102990009A810596DF927F936F93BF93AF938C2CB0
:1029A000AB2C6701780189019A01AF01B3010E9444
:1029B00009130F900F900F900F900F9022960FB663
:1029C000F894DEBF0FBECDBFDF91CF911F910F9165
:1029D000FF90EF90DF90CF90BF90AF908F907F905F
:1029E0006F900895CF93DF93CDB7DEB78EE693E077
:1029F0000E948614DF91CF910895CF93DF93CDB7D6
:102A0000DEB786E593E00E948614DF91CF910895AA
:102A1000CF92DF92EF920F93CF93DF93CDB7DEB7D4
:102A20006B970FB6F894DEBF0FBECDBF6F8378876C
:102A300089879A874B8781E090E09C838B831982FA
:102A400011C08B819C819C01220F331FC901880F0B
:102A5000991F880F991F820F931F9C838B838981F5
:102A60008F5F898399818B85981758F38B819C811F
:102A7000AA2797FDA095BA2FBC01CD010E94382B43
:102A8000688F798F8A8F9B8F8B819C81992384F4A7
:102A900020E030E040E857E4688D798D8A8D9B8D89
:102AA0000E94FD28DC01CB01888F998FAA8FBB8FF4
:102AB0002F81388549855A85688D798D8A8D9B8DC2
:102AC0000E942A29DC01CB01BC01CD010E9479279B
:102AD000DC01CB012AE030E040E050E0BC01CD0158
:102AE0000E94472FDC01CB018A838A819927880FB6
:102AF000991FFC01E75EFD4FC080D1800E948907CD
:102B00000F2EFCE0EF2EF02D01E025E043E0B601B2
:102B10000E949F028B819C81AA2797FDA095BA2FC6
:102B2000BC01CD010E94382B6C8B7D8B8E8B9F8BD3
:102B30008B819C81992384F420E030E040E857E4C5
:102B40006C897D898E899F890E94FD28DC01CB01DB
:102B50008C8B9D8BAE8BBF8B2F81388549855A8599
:102B60006C897D898E899F890E942A29DC01CB018D
:102B700020E030E040E251E4BC01CD010E94482A4F
:102B8000DC01CB01BC01CD010E947927DC01CB0126
:102B90002AE030E040E050E0BC01CD010E94472F28
:102BA000DC01CB018A838A819927880F991FFC0158
:102BB000E75EFD4FC080D1800E948907EE246894B3
:102BC000E3F801E025E043E0B6010E949F028B811B
:102BD0009C81AA2797FDA095BA2FBC01CD010E9428
:102BE000382B688B798B8A8B9B8B8B819C8199236B
:102BF00084F420E030E040E857E4688979898A89E4
:102C00009B890E94FD28DC01CB01888B998BAA8BC4
:102C1000BB8B2F81388549855A85688979898A894E
:102C20009B890E942A29DC01CB0120E030E048EC9E
:102C300052E4BC01CD010E94482ADC01CB01BC0159
:102C4000CD010E947927DC01CB012AE030E040E091
:102C500050E0BC01CD010E94472FDC01CB018A83EB
:102C60008A819927880F991FFC01E75EFD4FC0807C
:102C7000D1800E948907EE246894E2F801E025E003
:102C800043E0B6010E949F028B819C81AA2797FD99
:102C9000A095BA2FBC01CD010E94382B6C877D878F
:102CA0008E879F878B819C81992384F420E030E07C
:102CB00040E857E46C857D858E859F850E94FD28C0
:102CC000DC01CB018C879D87AE87BF872F8138853C
:102CD00049855A856C857D858E859F850E942A2928
:102CE000DC01CB0120E030E04AE754E4BC01CD0137
:102CF0000E94482ADC01CB01BC01CD010E9479274A
:102D0000DC01CB012AE030E040E050E0BC01CD0125
:102D10000E94472FDC01CB018A838A819927880F83
:102D2000991FFC01E75EFD4FC080D1800E9489079A
:102D3000EE2401E025E043E0B6010E949F0281E01D
:102D400090E09E838D830E948907FC01CE01059649
:102D50000F2EF7E0EF2EF02D05E021E041E0BC0161
:102D6000CF010E949F026B960FB6F894DEBF0FBE94
:102D7000CDBFDF91CF910F91EF90DF90CF9008956D
:102D8000CF92DF92EF920F93CF93DF93CDB7DEB761
:102D900025970FB6F894DEBF0FBECDBF6A837B8345
:102DA0008C839D838A819B81AC81BD812AE030E048
:102DB00040E050E0BC01CD010E94472FDC01CB0177
:102DC000898389819927880F991FFC01E75EFD4F50
:102DD000C080D1800E9489070F2EFCE0EF2EF02DDD
:102DE00001E025E043E0B6010E949F028A819B81B9
:102DF000AC81BD812AE030E040E050E0BC01CD0173
:102E00000E94472FDA01C9012AE030E040E050E09B
:102E1000BC01CD010E94472FDC01CB018983898150
:102E20009927880F991FFC01E75EFD4FC080D18074
:102E30000E948907EE246894E3F801E025E043E06E
:102E4000B6010E949F028A819B81AC81BD8124E6EC
:102E500030E040E050E0BC01CD010E94472FDA0194
:102E6000C9012AE030E040E050E0BC01CD010E9401
:102E7000472FDC01CB01898389819927880F991F0E
:102E8000FC01E75EFD4FC080D1800E948907EE24DF
:102E90006894E2F801E025E043E0B6010E949F0259
:102EA0008A819B81AC81BD8128EE33E040E050E017
:102EB000BC01CD010E94472FDA01C9012AE030E0B0
:102EC00040E050E0BC01CD010E94472FDC01CB0166
:102ED000898389819927880F991FFC01E75EFD4F3F
:102EE000C080D1800E948907EE2401E025E043E004
:102EF000B6010E949F0225960FB6F894DEBF0FBE62
:102F0000CDBFDF91CF910F91EF90DF90CF900895DB
:102F10001F920F920FB60F9211242F933F934F934E
:102F20005F936F937F938F939F93AF93BF93EF9331
:102F3000FF93CF93DF93CDB7DEB78BE893E00E948A
:102F4000DB26DF91CF91FF91EF91BF91AF919F91E0
:102F50008F917F916F915F914F913F912F910F9042
:102F60000FBE0F901F9018951F920F920FB60F92E1
:102F700011242F933F934F935F936F937F938F937E
:102F80009F93AF93BF93EF93FF93CF93DF93CDB70F
:102F9000DEB78BE893E00E94DB26DF91CF91FF91B3
:102FA000EF91BF91AF919F918F917F916F915F91C1
:102FB0004F913F912F910F900FBE0F901F9018953A
:102FC000CF92DF92EF920F93CF93DF93CDB7DEB71F
:102FD0008BE893E061E00E94B626982F81E0982765
:102FE00081E089278823A9F0C0901B02D0901C02A1
:102FF0000E948907EE2401E025E043E0B6010E942B
:103000009F020E94851087E090E090935503809383
:1030100054038BE893E062E00E94B626982F81E08B
:10302000982781E089278823B9F0C0901D02D090AD
:103030001E020E948907EE246894E2F801E025E070
:1030400043E0B6010E949F020E94851087E090E055
:1030500090935503809354038BE893E063E00E94C0
:10306000B626982F81E08927882381F00E9489075E
:10307000FC0189E392E0EE246894E3F801E025E0A6
:1030800043E0BC01CF010E949F0217C0C0901F0205
:10309000D09020020E948907EE246894E3F801E0B2
:1030A00025E043E0B6010E949F020E94851087E060
:1030B00090E090935503809354038BE893E064E091
:1030C0000E94B626982F81E08927882389F00E94E4
:1030D0008907FC0189E392E00F2EFCE0EF2EF02D32
:1030E00001E025E043E0BC01CF010E949F0218C02F
:1030F000C0902102D09022020E9489070F2EFCE08E
:10310000EF2EF02D01E025E043E0B6010E949F0282
:103110000E94851087E090E09093550380935403BC
:10312000DF91CF910F91EF90DF90CF900895CF93E3
:10313000DF93CDB7DEB723970FB6F894DEBF0FBE8F
:10314000CDBF9A8389836B8389819A816B810E9429
:10315000E42323960FB6F894DEBF0FBECDBFDF91F8
:10316000CF9108950F931F93CF93DF93CDB7DEB721
:1031700026970FB6F894DEBF0FBECDBF9A83898322
:1031800088E00E946223E981FA8191838083E9814A
:10319000FA8100811181C801AA2797FDA095BA2F55
:1031A000BC01CD010E94382B6B837C838D839E8371
:1031B000112384F420E030E040E857E46B817C8107
:1031C0008D819E810E94FD28DC01CB018B839C8335
:1031D000AD83BE832DE534E741EB50E46B817C8108
:1031E0008D819E810E942A29DC01CB0120E030E004
:1031F00040EA50E4BC01CD010E942A29DC01CB0148
:1032000020E030E040E854E4BC01CD010E94482AAF
:10321000DC01CB01BC01CD0126960FB6F894DEBFD0
:103220000FBECDBFDF91CF911F910F910895CF9227
:10323000DF92EF920F93CF93DF93CDB7DEB7E19795
:103240000FB6F894DEBF0FBECDBF1092550310929B
:1032500054030E94AA07109288030E9411127894C6
:1032600080E00E94CA2148EE53E060E070E00E94D6
:10327000992080E00E94CA219C0184E29DE1BC016A
:10328000C9010E94732180E00E94CA210E94EB20A4
:1032900086E593E04CEA50E06AEA70E00E942F0F66
:1032A0008EE693E04CE950E06AE970E00E942F0F4F
:1032B00086E593E061E00E94110E8EE693E065E002
:1032C0000E94110E86E593E040E050E060E070E07F
:1032D0000E942B0E8EE693E040E050E060E070E04C
:1032E0000E942B0E86E593E06FEF0E94060F8EE69C
:1032F00093E06FEF0E94060F86E593E04CE251E009
:1033000060E070E00E94B10E8EE693E04CE251E086
:1033100060E070E00E94B10E86E593E061E00E94FB
:10332000630F8EE693E060E00E94630F80911802C5
:103330008823E1F781E00E94CA2148EC50E060E078
:1033400070E00E94992081E00E94CA219C018DEFCB
:1033500094E1BC01C9010E94732181E00E94CA214D
:103360000E94EB2085E00E94CA2148EC50E060E01A
:1033700070E00E94992085E00E94CA219C0182EFA2
:1033800094E1BC01C9010E94732185E00E94CA2119
:103390000E94EB200E941C23CE014C966EE00E94FE
:1033A0009718CE014D966DE00E949718CE014E966B
:1033B0006CE00E949718CE014F966BE00E94971820
:1033C000CE01809660E00E949718CE0180969AA365
:1033D00089A3CE014F969CA38BA3CE014E969EA3AC
:1033E0008DA3CE014D9698A78FA3CE014C969AA798
:1033F00089A780EE97E12BE833E0BC01C9010E9468
:1034000010261B8E1A8E00C08A8D9B8D27E0803D72
:103410009207A9F486E893E00E94B218DC01CB0180
:103420008E8B9F8BA88FB98F8E899F89A88DB98D20
:1034300042E0BC01CD010E9408151B8E1A8E8A8DB8
:103440009B8D01969B8F8A8F809154039091550399
:103450009FA78EA78EA59FA58430910509F44DC224
:103460008EA59FA585309105ECF48EA59FA5813092
:10347000910509F4DFC28EA59FA5823091052CF439
:103480008EA59FA5009799F1BFCF8EA59FA58230ED
:10349000910509F4D4C28EA59FA58330910509F446
:1034A0000AC1B2CF8EA59FA58730910509F45DC2F0
:1034B0008EA59FA5883091056CF48EA59FA58530BB
:1034C000910509F4FEC18EA59FA58630910509F4EA
:1034D00030C29ACF8EA59FA58830910509F4A0C26D
:1034E0008EA59FA58930910509F49FC28DCFC0900C
:1034F0001B02D0901C020E9489070F2EFCE0EF2EC9
:10350000F02D01E025E043E0B6010E949F0260E952
:1035100071E080E991E00E9490101D8A1C8A1B8A4C
:103520001A8A198A188A1F861E861D861C868AE0BA
:1035300090E09B878A87198618863CC0CE018096CA
:103540000E941B249C018C899D89820F931F9D8B57
:103550008C8BCE014F960E941B249C018A899B89EB
:10356000820F931F9B8B8A8BCE014E960E941B2449
:103570009C0188899989820F931F998B888BCE0132
:103580004D960E941B249C018E859F85820F931F60
:103590009F878E87CE014C960E941B249C018C85B0
:1035A0009D85820F931F9D878C87888599850196BD
:1035B00099878887288539858A859B8528173907C3
:1035C0000CF4BCCF2A853B858C899D89B9010E946A
:1035D000332FCB019D8B8C8B2A853B858A899B89D8
:1035E000B9010E94332FCB019B8B8A8B2A853B85A7
:1035F00088899989B9010E94332FCB01998B888BD7
:103600002A853B858E859F85B9010E94332FCB018A
:103610009F878E872A853B858C859D85B9010E9471
:10362000332FCB019D878C878C899D8923E083383C
:10363000920730F08A899B8923E08338920738F417
:1036400083E090E0909355038093540326C08889CB
:10365000998923E08338920738F485E090E09093CD
:1036600055038093540319C08C859D8523E08338CE
:10367000920738F484E090E09093550380935403CC
:103680000CC08E859F8523E08338920730F486E056
:1036900090E090935503809354038BE893E00E944D
:1036A0009D26882309F4B0CE8BE893E00E94DB26A8
:1036B0000E94E017A9CE81E090E09CA78BA70E9412
:1036C0008907FC01CE018B96EE2400E021E041E069
:1036D000BC01CF010E949F020E948907FC01CE011C
:1036E0008B96EE2407E021E041E0BC01CF010E946F
:1036F0009F02C0901D02D0901E020E9489070F2ECB
:10370000FCE0EF2EF02D01E025E043E0B6010E9441
:103710009F02CE0180960E941B249F838E83CE0140
:103720004F960E941B249D838C838E819F8123E072
:103730008438920750F18C819D8123E08438920770
:1037400020F110925503109254031092A00310928E
:103750009F031CA61BA60E948907FC01CE018B9625
:10376000EE2400E021E041E0BC01CF010E949F0275
:103770000E948907FC01CE018B96EE2407E021E030
:1037800041E0BC01CF010E949F022E813F818C81CC
:103790009D812817390788F580919F039091A00398
:1037A000843691054CF480919F039091A0030C9670
:1037B0009093A00380939F031CA61BA60E948907D9
:1037C000FC01CE018B96EE2400E021E041E0BC013B
:1037D000CF010E949F0281E090E09CA78BA70E94EE
:1037E0008907FC01CE018B96EE2407E021E041E041
:1037F000BC01CF010E949F0231C080919F03909134
:10380000A0032FEF8D3992074CF080919F03909188
:10381000A0030C979093A00380939F0381E090E016
:103820009CA78BA70E948907FC01CE018B96EE24F2
:1038300000E021E041E0BC01CF010E949F021CA6F4
:103840001BA60E948907FC01CE018B96EE2407E09F
:1038500021E041E0BC01CF010E949F028E819F8147
:1038600021E08C32920730F08C819D8121E08C32F6
:103870009207D8F480919F039091A00399AB88ABF5
:1038800088A999A999232CF488A999A9019699AB9B
:1038900088AB88A999A9959587958A569F4FBC01B1
:1038A00086E990E00E949010AFCD80919F039091A7
:1038B000A00380579E4FBC0180E991E00E949010C8
:1038C000A3CDC0901F02D09020020E9489070F2E26
:1038D000FCE0EF2EF02D01E025E043E0B6010E9470
:1038E0009F0240E951E060E971E081E00E943711F8
:1038F000109255031092540387CDC0902102D090AE
:1039000022020E9489070F2EFCE0EF2EF02D01E02D
:1039100025E043E0B6010E949F0240E951E060E9E2
:1039200071E081E00E949A111092550310925403A5
:103930006BCDC0902302D09024020E9489070F2EE5
:10394000FCE0EF2EF02D01E025E043E0B6010E94FF
:103950009F0240E951E060E971E081E00E94371187
:1039600010925503109254034FCD1B821A82C090BF
:103970002502D09026020E9489070F2EFCE0EF2E30
:10398000F02D01E025E043E0B6010E949F028BE8A4
:1039900093E062E00E94B626882339F48BE893E036
:1039A00063E00E94B626882319F091E09DA701C02C
:1039B0001DA68DA5882329F010925503109254035B
:1039C00023CD88EB9BE00E942A1081E089838BE85D
:1039D00093E061E00E94B626882309F0198280E90D
:1039E00091E00E94D710898191E08927882341F0D6
:1039F00040E951E060E971E081E00E949A1107C05E
:103A000040E951E060E971E081E00E94371188EB04
:103A10009BE00E942A101092550310925403F4CC9C
:103A20001092550310925403EFCC1092550310924C
:103A30005403EACC1092550310925403E5CC109233
:103A4000550310925403E0CCCF92DF92EF920F9384
:103A5000CF93DF93CDB7DEB70E9489070E94BC00E9
:103A600080911802882309F451C08091150299278A
:103A700087FD9095880F991FFC01E75EFD4FC08080
:103A8000D1800E9489070F2EFCE0EF2EF02D01E07F
:103A900025E043E0B6010E949F02809116029091BA
:103AA00017020197909317028093160280911602D5
:103AB00090911702181619065CF08AEF90E0909327
:103AC000170280931602809115028150809315028F
:103AD000809115021816D4F01092180280911502E8
:103AE000992787FD9095880F991FFC01E75EFD4F90
:103AF000C080D1800E9489070F2EFCE0EF2EF02DB0
:103B000001E025E043E0B6010E949F02DF91CF91E2
:103B10000F91EF90DF90CF900895CF93DF93CDB7C3
:103B2000DEB7DF91CF910895CF93DF93CDB7DEB7A6
:103B300022970FB6F894DEBF0FBECDBF9A8389835C
:103B400089819A81009721F089819A810E94BE2EF5
:103B500022960FB6F894DEBF0FBECDBFDF91CF9196
:103B60000895CF93DF93CDB7DEB722970FB6F894C1
:103B7000DEBF0FBECDBF9A83898389819A810E945F
:103B8000941D22960FB6F894DEBF0FBECDBFDF9115
:103B9000CF910895CF93DF93CDB7DEB728970FB6B7
:103BA000F894DEBF0FBECDBF9E838D838D819E8135
:103BB000009721F481E090E09E838D838D819E812A
:103BC0000E941B2E9C838B8316C08091A103909131
:103BD000A2039A83898389819A81009719F41886B0
:103BE0001F8211C0E981FA8119958D819E810E9401
:103BF0001B2E9C838B838B819C81009731F38B815F
:103C00009C8198878F838F81988528960FB6F8942A
:103C1000DEBF0FBECDBFDF91CF910895CF93DF936D
:103C2000CDB7DEB722970FB6F894DEBF0FBECDBF7B
:103C30009A83898389819A810E94CA1D22960FB630
:103C4000F894DEBF0FBECDBFDF91CF910895CF9323
:103C5000DF93CDB7DEB72F970FB6F894DEBF0FBE58
:103C6000CDBF8F83488759876A877B8780E091E043
:103C70009E838D838D819E819C014427552780E002
:103C800094E2A4EFB0E0BC01CD010E94472FDA011D
:103C9000C901288539854A855B85BC01CD010E9413
:103CA000472FDA01C90189839A83AB83BC83898159
:103CB0009A81AB81BC810097A105B10519F41F86DB
:103CC0001E86CCC08F81882319F08F81823069F4E1
:103CD00089819A81AB81BC818F3F9105A105B10596
:103CE00021F018F01F861E86B9C089819A81AB81A8
:103CF000BC81803020E0920721E0A20720E0B207DB
:103D000018F01F861E86AAC08F81282F33273D8773
:103D10002C878C859D858230910509F44AC02C85BD
:103D20003D852330310554F48C859D850097C9F07D
:103D30002C853D852130310539F18CC08C859D85E0
:103D40008430910509F45DC02C853D852430310512
:103D50000CF442C08C859D858530910509F466C0C0
:103D600079C0A5E4B0E0E5E4F0E08081887F8C9341
:103D7000A5E4B0E0E5E4F0E0808184608C93E7E4C2
:103D8000F0E08981808366C0A1E8B0E0E1E8F0E07E
:103D90008081887F8C93A1E8B0E0E1E8F0E0808149
:103DA00084608C93E8E8F0E089819A819183808334
:103DB00051C0A1EBB0E0E1EBF0E08081887F8C9313
:103DC000A1EBB0E0E1EBF0E0808184608C93E3EB69
:103DD000F0E0898180833EC0A1E9B0E0E1E9F0E054
:103DE0008081887F8C93A1E9B0E0E1E9F0E08081F7
:103DF00084608C93E8E9F0E089819A8191838083E3
:103E000029C0A1EAB0E0E1EAF0E08081887F8C93EC
:103E1000A1EAB0E0E1EAF0E0808184608C93E8EA16
:103E2000F0E089819A819183808314C0A1E2B1E09E
:103E3000E1E2F1E08081887F8C93A1E2B1E0E1E2F0
:103E4000F1E0808184608C93E8E2F1E089819A81DD
:103E50009183808321E030E03F872E878E859F8588
:103E60002F960FB6F894DEBF0FBECDBFDF91CF9176
:103E70000895CF93DF93CDB7DEB723970FB6F894AD
:103E8000DEBF0FBECDBF89838981282F33273B83B7
:103E90002A838A819B818230910509F465C02A8139
:103EA0003B812330310554F48A819B810097C9F00E
:103EB0002A813B812130310559F1C6C08A819B811D
:103EC0008430910509F47EC02A813B81243031057C
:103ED0000CF461C08A819B818530910509F489C009
:103EE000B3C0A4E4B0E0E4E4F0E090818FE3892380
:103EF0008C93A4E4B0E0E4E4F0E0808180688C93EB
:103F0000AEE6B0E0EEE6F0E0808182608C939CC08B
:103F1000A0E8B0E0E0E8F0E090818FE389238C93A3
:103F2000A0E8B0E0E0E8F0E080818C7F8C93A1E82D
:103F3000B0E0E1E8F0E08081877E8C93A0E8B0E01B
:103F4000E0E8F0E0808183608C93A1E8B0E0E1E8F4
:103F5000F0E0808188618C93AFE6B0E0EFE6F0E0BE
:103F6000808182608C9370C0A0EBB0E0E0EBF0E069
:103F700090818FE389238C93A0EBB0E0E0EBF0E03D
:103F8000808180688C93A0E7B0E0E0E7F0E080817A
:103F900082608C9359C0A0E9B0E0E0E9F0E0908144
:103FA0008FE389238C93A0E9B0E0E0E9F0E0808121
:103FB00080688C93A1E7B0E0E1E7F0E08081826067
:103FC0008C9342C0A0EAB0E0E0EAF0E090818FE399
:103FD00089238C93A0EAB0E0E0EAF0E08081806879
:103FE0008C93A2E7B0E0E2E7F0E0808182608C93FE
:103FF0002BC0A0E2B1E0E0E2F1E090818FE3892301
:104000008C93A0E2B1E0E0E2F1E080818C7F8C93C0
:10401000A1E2B1E0E1E2F1E08081877E8C93A0E251
:10402000B1E0E0E2F1E0808183608C93A1E2B1E055
:10403000E1E2F1E0808188618C93A3E7B0E0E3E7FF
:10404000F0E0808182608C9323960FB6F894DEBFF7
:104050000FBECDBFDF91CF910895CF93DF93CDB742
:10406000DEB723970FB6F894DEBF0FBECDBF8983AE
:104070008981282F33273B832A838A819B81823041
:10408000910579F12A813B812330310554F48A81ED
:104090009B810097B1F02A813B8121303105C9F025
:1040A0003FC08A819B818430910559F12A813B81EF
:1040B00024303105F4F08A819B818530910549F1E6
:1040C0002FC0AEE6B0E0EEE6F0E080818D7F8C930D
:1040D00027C0AFE6B0E0EFE6F0E080818D7F8C9303
:1040E0001FC0A0E7B0E0E0E7F0E080818D7F8C9317
:1040F00017C0A1E7B0E0E1E7F0E080818D7F8C930D
:104100000FC0A2E7B0E0E2E7F0E080818D7F8C9302
:1041100007C0A3E7B0E0E3E7F0E080818D7F8C93F8
:1041200023960FB6F894DEBF0FBECDBFDF91CF91BF
:104130000895CF93DF93CDB7DEB727970FB6F894E6
:10414000DEBF0FBECDBF9B838A834C835D836E83AE
:104150007F83EA81FB8120818C819D81AE81BF813B
:10416000AC01BD01822F0E94271E8983898188238B
:1041700051F0EA81FB818C819D81AE81BF81818379
:104180009283A383B4838981992727960FB6F894E5
:10419000DEBF0FBECDBFDF91CF910895CF93DF93E8
:1041A000CDB7DEB722970FB6F894DEBF0FBECDBFF6
:1041B0009A838983E981FA8181819281A381B48183
:1041C000BC01CD0122960FB6F894DEBF0FBECDBF65
:1041D000DF91CF910895CF93DF93CDB7DEB72297CC
:1041E0000FB6F894DEBF0FBECDBF9A838983E981F5
:1041F000FA8180810E94391F22960FB6F894DEBFA3
:104200000FBECDBFDF91CF910895CF93DF93CDB790
:10421000DEB722970FB6F894DEBF0FBECDBF9A83EC
:104220008983E981FA8180810E942D2022960FB630
:10423000F894DEBF0FBECDBFDF91CF910895CF932D
:10424000DF93CDB7DEB723970FB6F894DEBF0FBE6E
:10425000CDBF9A8389836B83E981FA818B818083C7
:10426000E981FA811682158289819A8141E050E0C4
:1042700060E070E00E94992089819A810E94052166
:1042800023960FB6F894DEBF0FBECDBFDF91CF915E
:104290000895CF93DF93CDB7DEB723970FB6F89489
:1042A000DEBF0FBECDBF9A8389836B83E981FA811C
:1042B0008B818083E981FA811682158289819A81B6
:1042C00041E050E060E070E00E94992089819A818D
:1042D0000E94052123960FB6F894DEBF0FBECDBF16
:1042E000DF91CF910895CF93DF93CDB7DEB72497B9
:1042F0000FB6F894DEBF0FBECDBF9A8389837C834F
:104300006B83E981FA818B819C81968385832496D6
:104310000FB6F894DEBF0FBECDBFDF91CF910895E9
:10432000CF93DF93CDB7DEB722970FB6F894DEBFF9
:104330000FBECDBF9A838983E981FA8116821582E7
:1043400022960FB6F894DEBF0FBECDBFDF91CF919E
:104350000895CF93DF93CDB7DEB722970FB6F894C9
:10436000DEBF0FBECDBF9A838983E981FA81858143
:104370009681009731F0E981FA810580F681E02D80
:10438000199522960FB6F894DEBF0FBECDBFDF9110
:10439000CF910895EF92FF920F931F93CF93DF93E6
:1043A000CDB7DEB721970FB6F894DEBF0FBECDBFF5
:1043B000898389819927880F991FFC01ED55FC4F4E
:1043C000808191810097A1F48981E82EFF2487E004
:1043D00090E00E94CA1D8C016981C8010E941F21C2
:1043E000C701880F991FFC01ED55FC4F1183008315
:1043F00089819927880F991FFC01ED55FC4F808119
:10440000918121960FB6F894DEBF0FBECDBFDF912C
:10441000CF911F910F91FF90EF9008951F920F92EF
:104420000FB60F9211242F933F934F935F936F9387
:104430007F938F939F93AF93BF93EF93FF93CF930C
:10444000DF93CDB7DEB785E00E94CA210E94A92183
:10445000DF91CF91FF91EF91BF91AF919F918F919C
:104460007F916F915F914F913F912F910F900FBE70
:104470000F901F9018951F920F920FB60F92112454
:104480002F933F934F935F936F937F938F939F935C
:10449000AF93BF93EF93FF93CF93DF93CDB7DEB787
:1044A00084E00E94CA210E94A921DF91CF91FF914F
:1044B000EF91BF91AF919F918F917F916F915F919C
:1044C0004F913F912F910F900FBE0F901F90189515
:1044D0001F920F920FB60F9211242F933F934F9379
:1044E0005F936F937F938F939F93AF93BF93EF935C
:1044F000FF93CF93DF93CDB7DEB783E00E94CA214D
:104500000E94A921DF91CF91FF91EF91BF91AF91CF
:104510009F918F917F916F915F914F913F912F91DB
:104520000F900FBE0F901F9018951F920F920FB60D
:104530000F9211242F933F934F935F936F937F9329
:104540008F939F93AF93BF93EF93FF93CF93DF939B
:10455000CDB7DEB782E00E94CA210E94A921DF9177
:10456000CF91FF91EF91BF91AF919F918F917F91EB
:104570006F915F914F913F912F910F900FBE0F90D0
:104580001F9018951F920F920FB60F9211242F9320
:104590003F934F935F936F937F938F939F93AF93CB
:1045A000BF93EF93FF93CF93DF93CDB7DEB781E057
:1045B0000E94CA210E94A921DF91CF91FF91EF9122
:1045C000BF91AF919F918F917F916F915F914F912B
:1045D0003F912F910F900FBE0F901F9018951F9233
:1045E0000F920FB60F9211242F933F934F935F9327
:1045F0006F937F938F939F93AF93BF93EF93FF93AB
:10460000CF93DF93CDB7DEB780E00E94CA210E942E
:10461000A921DF91CF91FF91EF91BF91AF919F9130
:104620008F917F916F915F914F913F912F910F905B
:104630000FBE0F901F901895CF93DF93CDB7DEB7C5
:10464000ECE7F0E080E48083EAE7F0E087E0808355
:10465000AAE7B0E0EAE7F0E0808180688C93EBE7BE
:10466000F0E01082AEE7B0E0EEE7F0E080818F602E
:104670008C93ADE7B0E0EDE7F0E080818F6B8C9339
:10468000DF91CF910895CF93DF93CDB7DEB7ECE7FD
:10469000F0E01082AEE7B0E0EEE7F0E08081807FEE
:1046A0008C93ADE7B0E0EDE7F0E0908180E4892302
:1046B0008C93EAE7F0E01082EBE7F0E01082DF9104
:1046C000CF910895CF93DF93CDB7DEB727970FB67D
:1046D000F894DEBF0FBECDBF8C838C81843098F4FC
:1046E000ACE7B0E0ECE7F0E08081982F907E8C8121
:1046F0008F71892B8C93ABE7B0E0EBE7F0E0808122
:10470000877F8C932CC08C81883030F18C818F30E6
:1047100018F5ACE7B0E0ECE7F0E08081807E8C93A8
:10472000ABE7B0E0EBE7F0E08081877F8C938C8192
:1047300088508983ACE7B0E0ECE7F0E08081982F07
:1047400089818F71892B8C93ABE7B0E0EBE7F0E0C8
:10475000808188608C9303C01F821E822AC0AAE7D2
:10476000B0E0EAE7F0E0808180648C9301C0000053
:10477000EAE7F0E080819927807490701D820097AD
:1047800011F041E04D835D81552389F7E8E7F0E0C2
:1047900080818B83E9E7F0E080818A838A81992791
:1047A000382F22278B819927A901482B592B5F830A
:1047B0004E838E819F8127960FB6F894DEBF0FBE81
:1047C000CDBFDF91CF910895CF93DF93CDB7DEB703
:1047D00023970FB6F894DEBF0FBECDBF9A838983AF
:1047E0006B838B818F3020F4E981FA818B81808308
:1047F00023960FB6F894DEBF0FBECDBFDF91CF91E9
:104800000895CF93DF93CDB7DEB722970FB6F89414
:10481000DEBF0FBECDBF9A838983E981FA81808193
:104820000E94622322960FB6F894DEBF0FBECDBF62
:10483000DF91CF9108950F931F93CF93DF93CDB75F
:10484000DEB7E4970FB6F894DEBF0FBECDBF988BEE
:104850008F8781E08E871D861C868F8598890E94B0
:1048600001249B878A8780E090E0A0E0B0E08E83FF
:104870009F83A887B98780E090E0A0E0B0E08A83BA
:104880009B83AC83BD83198289819927880F991FE7
:10489000880F991FFC01EB50FD4F208131818A85E3
:1048A0009B858217930740F489818F5F8983898173
:1048B000833118F01E8601C01E868E85882321F75D
:1048C0008981882371F489819927880F991F880F1E
:1048D000991FFC01ED50FD4F808191819D878C8750
:1048E00092C18981833179F4898199270197880F51
:1048F000991F880F991FFC01ED50FD4F8081918118
:104900009D878C8780C189819927880F991F880F7F
:10491000991FFC01EB50FD4F00811181C801AA27AE
:1049200097FDA095BA2FBC01CD010E94382B69AB31
:104930007AAB8BAB9CAB112384F420E030E040E8F1
:1049400057E469A97AA98BA99CA90E94FD28DC01DA
:10495000CB0189AB9AABABABBCAB898199270197F3
:10496000880F991F880F991FFC01EB50FD4F0081A4
:104970001181C801AA2797FDA095BA2FBC01CD01CE
:104980000E94382B6DA77EA78FA798AB112384F4C4
:1049900020E030E040E857E46DA57EA58FA598A9FA
:1049A0000E94FD28DC01CB018DA79EA7AFA7B8AB65
:1049B0002DA53EA54FA558A969A97AA98BA99CA99F
:1049C0000E94CC28DC01CB0189A79AA7ABA7BCA782
:1049D00089819927880F991F880F991FFC01ED5035
:1049E000FD4F00811181C801AA2797FDA095BA2F1C
:1049F000BC01CD010E94382B6DA37EA38FA398A785
:104A0000112384F420E030E040E857E46DA17EA15A
:104A10008FA198A50E94FD28DC01CB018DA39EA348
:104A2000AFA3B8A7898199270197880F991F880F8D
:104A3000991FFC01ED50FD4F00811181C801AA278B
:104A400097FDA095BA2FBC01CD010E94382B69A318
:104A50007AA38BA39CA3112384F420E030E040E8E8
:104A600057E469A17AA18BA19CA10E94FD28DC01D9
:104A7000CB0189A39AA3ABA3BCA329A13AA14BA1C3
:104A80005CA16DA17EA18FA198A50E94CC28DC011C
:104A9000CB019C01AD0169A57AA58BA59CA50E94BF
:104AA000482ADC01CB018E839F83A887B9878A853A
:104AB0009B85AA2797FDA095BA2FBC01CD010E9426
:104AC000382B6D8F7E8F8F8F98A38A859B85992336
:104AD00084F420E030E040E857E46D8D7E8D8F8DCA
:104AE00098A10E94FD28DC01CB018D8F9E8FAF8F96
:104AF000B8A3898199270197880F991F880F991F5B
:104B0000FC01EB50FD4F00811181C801AA2797FDE0
:104B1000A095BA2FBC01CD010E94382B698F7A8FE6
:104B20008B8F9C8F112384F420E030E040E857E421
:104B3000698D7A8D8B8D9C8D0E94FD28DC01CB01C7
:104B4000898F9A8FAB8FBC8F298D3A8D4B8D5C8D61
:104B50006D8D7E8D8F8D98A10E94CC28DC01CB01BC
:104B60002E813F8148855985BC01CD010E94482A8C
:104B7000DC01CB018D8B9E8BAF8BB88F8981992700
:104B80000197880F991F880F991FFC01ED50FD4F69
:104B900000811181C801AA2797FDA095BA2FBC01F9
:104BA000CD010E94382B698B7A8B8B8B9C8B1123C8
:104BB00084F420E030E040E857E469897A898B8901
:104BC0009C890E94FD28DC01CB01898B9A8BAB8BE1
:104BD000BC8B29893A894B895C896D897E898F894B
:104BE000988D0E94FD28DC01CB018A839B83AC83D6
:104BF000BD836A817B818C819D810E947927DC0144
:104C0000CB019D878C878C859D85E4960FB6F894A3
:104C1000DEBF0FBECDBFDF91CF911F910F910895E1
:104C2000CF93DF93CDB7DEB724970FB6F894DEBFEE
:104C30000FBECDBF9A8389837C836B83E981FA8120
:104C40008B819C819283818324960FB6F894DEBF7A
:104C50000FBECDBFDF91CF910895CF93DF93CDB736
:104C6000DEB722970FB6F894DEBF0FBECDBF9A8392
:104C70008983E981FA811282118222960FB6F89413
:104C8000DEBF0FBECDBFDF91CF910895CF93DF93ED
:104C9000CDB7DEB722970FB6F894DEBF0FBECDBFFB
:104CA0009A838983E981FA8181819281009759F001
:104CB000E981FA818381882331F0E981FA810180D9
:104CC000F281E02D199522960FB6F894DEBF0FBE43
:104CD000CDBFDF91CF910895CF93DF93CDB7DEB7EE
:104CE00022970FB6F894DEBF0FBECDBF9A8389839B
:104CF000E981FA81138222960FB6F894DEBF0FBEC7
:104D0000CDBFDF91CF910895CF93DF93CDB7DEB7BD
:104D100022970FB6F894DEBF0FBECDBF9A8389836A
:104D2000E981FA8181E0838322960FB6F894DEBF91
:104D30000FBECDBFDF91CF910895CF93DF93CDB755
:104D4000DEB722970FB6F894DEBF0FBECDBF9A83B1
:104D50008983E981FA818381992722960FB6F89495
:104D6000DEBF0FBECDBFDF91CF910895CF93DF930C
:104D7000CDB7DEB723970FB6F894DEBF0FBECDBF19
:104D80009A8389836B838B819927019729813A8143
:104D9000880F991F880F991F820F931FFC01379668
:104DA0008081992723960FB6F894DEBF0FBECDBF42
:104DB000DF91CF910895CF93DF93CDB7DEB72997D9
:104DC0000FB6F894DEBF0FBECDBF9B838A831982D6
:104DD00066C0898199272A813B81880F991F880F96
:104DE000991F820F931FFC0135960190F081E02DF1
:104DF0008081482F5527898199272A813B81880FF7
:104E0000991F880F991F820F931FFC013496808190
:104E100099279A0102C0359527958A95E2F7C9012D
:104E2000817090708823E9F08981282F3327388793
:104E30002F83EA81FB81808189873985332311F0B3
:104E400081E0898749852A813B818F819885880FF8
:104E5000991F880F991F820F931FFC01379640837B
:104E60001BC08981282F33273E832D83EA81FB8154
:104E700080811C82882311F431E03C832A813B81AC
:104E80008D819E81880F991F880F991F820F931F14
:104E9000FC0137968C81808389818F5F898389812A
:104EA000843008F496CF198218C0898199272A8105
:104EB0003B81880F991F880F991F820F931FFC0158
:104EC00037968081882331F084E089838A819B81B1
:104ED0000E94462689818F5F89838981843028F3E7
:104EE00029960FB6F894DEBF0FBECDBFDF91CF91EC
:104EF0000895EF92FF920F931F937B018C0120E0A6
:104F000030E040E05FE40E94022B88237CF020E048
:104F100030E040E05FE4C801B7010E94CC280E9465
:104F2000A12B605070408040904804C0C801B70178
:104F30000E94A12B1F910F91FF90EF900895A0E088
:104F4000B0E0E5EAF7E20C94882FFC016A01908159
:104F5000923008F41BC1DB018C91823080F09430D8
:104F600061F4843009F012C19181EB0189819817B5
:104F700009F40CC1EFE3F3E009C1843011F4FB0143
:104F800005C1823091F4923009F000C1EA01DF01DD
:104F900088E00D9009928150E1F78181FB019181B8
:104FA0008923E6018983F601F1C0923041F36280E2
:104FB0007380EB018A809B80E480F58006811781F5
:104FC0002C813D814E815F815301A818B908C5012C
:104FD000B7FCABC080970CF457C0861497040CF450
:104FE000BEC03401EE24FF2487019181FB01818141
:104FF000981709F4A6C0992309F49CC02E193F09FB
:10500000400B510B57FDB0C0E60119827B826A82CA
:10501000F6012483358346835783E6012C813D8145
:105020004E815F8179018A01DA01C9010197A109E5
:10503000B1098F5F9F4FAF4FBF43F8F4E6016A811C
:105040007B81A8019701220F331F441F551F615018
:10505000704079018A01DA01C9010197A109B109FA
:105060008F5F9F4FAF4FBF4360F3E6017B836A833F
:10507000F601248335834683578383E0D6018C93DE
:1050800057FD39C0F60182C086149704B4F4C0E01D
:10509000D0E0DA01C90181709070A070B0705695AF
:1050A000479537952795282B392B4A2B5B2B219633
:1050B000AC16BD0671F78A0C9B1C681479040CF0C1
:1050C00094CFC0E0D0E05401A618B708D801C701BA
:1050D00081709070A070B07016950795F794E79462
:1050E000E82AF92A0A2B1B2B2196AC16BD0671F76C
:1050F0006A0C7B1C7ACFDA01C901B695A795979502
:1051000087952170307040705070282B392B4A2BB6
:105110005B2BE6012C833D834E835F838A819B81D9
:1051200001969B838A83F60131C0882799278A19C3
:105130009B0950CFE21AF30A040B150BA801970143
:1051400061CFE60199837B826A822E0D3F1D401F4D
:10515000511FF60124833583468357838ECF20E089
:1051600030E040E050E041CF81E0E60189837B827E
:105170006A8250954095309521953F4F4F4F5F4F34
:10518000F601248335834683578347CFCF01EEE072
:10519000CDB7DEB70C94A42FA0E2B0E0E2EDF8E2C8
:1051A0000C94902F69837A838B839C832D833E8319
:1051B0004F83588789E1E82EF12CEC0EFD1EB701D4
:1051C000CE0101960E94132D8E010F5E1F4FB80174
:1051D000CE0105960E94132D8A8991E089278A8B3A
:1051E000AE01475F5F4FB801C7010E949F270E9431
:1051F000F12BE6E0A0960C94AC2FA0E2B0E0E3E047
:10520000F9E20C94902F69837A838B839C832D839E
:105210003E834F83588799E1E92EF12CEC0EFD1E59
:10522000B701CE0101960E94132D8E010F5E1F4F14
:10523000B801CE0105960E94132DAE01475F5F4F66
:10524000B801C7010E949F270E94F12BE6E0A096BB
:105250000C94AC2FA0E2B0E0E0E3F9E20C94842FD0
:1052600069837A838B839C832D833E834F83588706
:105270008E01075E1F4FB801CE0101960E94132DCB
:10528000F1E1EF2EF12CEC0EFD1EB701CE010596DB
:105290000E94132D898D823078F09989923040F4E4
:1052A00020E09A8D8A89981321E02A8BB701E9C002
:1052B000843051F4923061F020E09A8D8A899813FD
:1052C00021E02A8FB801DDC0943029F4823041F703
:1052D0006FE373E0D6C0823079F3923009F32D8DFD
:1052E0003E8D4F8D58A18D899E89AF89B88D22241E
:1052F00033242101AA24BB246501EE24FF24870165
:1053000060E070E00DC06F5F7F4F6032710599F112
:10531000880F991FAA1FBB1F56954795379527954C
:1053200020FF19C0280E391E4A1E5B1E66247724F2
:105330004301281639064A065B0628F4E1E06E2E82
:10534000712C812C912CAE0CBF1CC01ED11EA60C42
:10535000B71CC81CD91CEE0CFF1C001F111FB7FF87
:10536000D2CFE1E06E2E712C812C912CE628F7280B
:1053700008291929C8CF8B8D9C8D2B893C89820FD8
:10538000931F02969C878B871A869A8D8A89981715
:1053900011F081E08A87D7FE17C08B859C85A0FE1F
:1053A0000CC0569447943794279420E030E040E0B6
:1053B00050E8222A332A442A552AD694C794B7940F
:1053C000A79401969C878B8730E0A31630E0B30644
:1053D00030E0C30630E4D30618F58B859C850EC0FB
:1053E000220C331C441C551C019720E0A21620E01F
:1053F000B20620E0C20620E4D20680F4AA0CBB1C50
:10540000CC1CDD1C57FEECCF31E0632E712C812CBF
:10541000912CA628B728C828D928E2CF9C878B874B
:10542000D601C5018F779070A070B070803491055F
:10543000A105B10551F0AD86BE86CF86D88A83E03E
:105440008987BE01675F7F4F1CC0A7FCF4CF211482
:1054500031044104510479F380E490E0A0E0B0E02D
:10546000A80EB91ECA1EDB1E80E8682E8FEF782EAC
:105470008FEF882E8FEF982EA620B720C820D92036
:10548000DACFCB010E94F12BE2E1A0960C94A02F81
:10549000A8E1B0E0EEE4FAE20C948A2F69837A8303
:1054A0008B839C832D833E834F835887B1E18B2E62
:1054B000912C8C0E9D1EB401CE0101960E94132DDD
:1054C0008E01075F1F4FB801CE0105960E94132D74
:1054D0002989223008F46AC03985323008F468C05E
:1054E0008A899A8589278A8B243009F463C02230FF
:1054F00009F460C0343041F41D8A1E8A1F8A188E58
:105500001C8A1B8AB40177C0323009F458C06B89F9
:105510007C898B859C85681B790B7C8B6B8B2D899B
:105520003E894F89588DED84FE840F8518892E158C
:105530003F054007510740F4220F331F441F551FFA
:10554000615070407C8B6B8B80E090E0A0E0B0E419
:10555000AA24BB24650160E070E02E153F054007DA
:10556000510740F0A82AB92ACA2ADB2A2E193F0976
:10557000400B510BB695A79597958795220F331F32
:10558000441F551F6F5F7F4F6F31710531F7D60193
:10559000C5018F779070A070B07080349105A1051F
:1055A000B10589F0AD8ABE8ACF8AD88EB40123C0F6
:1055B000B80121C03217D1F76FE373E01CC084E05B
:1055C000898BB40118C0A7FCEDCF21153105410529
:1055D000510541F380E490E0A0E0B0E0A80EB91ED0
:1055E000CA1EDB1E80E89FEFAFEFBFEFA822B922F3
:1055F000CA22DB22D7CFCB010E94F12BECE06896C8
:105600000C94A62FA8E1B0E0E8E0FBE20C94902F08
:1056100069837A838B839C832D833E834F83588752
:1056200081E1E82EF12CEC0EFD1EB701CE010196B2
:105630000E94132D8E01075F1F4FB801CE01059602
:105640000E94132D8989823018F42FEF3FEF0BC091
:1056500089858230D0F3B801C7010E94B22D282F6E
:10566000332727FD3095C901E6E068960C94AC2FEE
:10567000A8E0B0E0EEE3FBE20C94932F9B01AC01B9
:1056800083E089831A8257FD51C0211531054105F8
:10569000510539F482E08983CE0101960E94F12BF5
:1056A0004CC0EEE1F0E0FC83EB838A818823C9F1F2
:1056B000203010E0310710E0410710E85107C9F130
:1056C00088279927DC01821B930BA40BB50B8D83D4
:1056D0009E83AF83B8872D813E814F8158852030CE
:1056E00080E0380780E0480780E45807A8F6EB819F
:1056F000FC81DA01C901880F991FAA1FBB1F3197CE
:105700009C01AD01803010E0910710E0A10710E48A
:10571000B10778F3FC83EB838D839E83AF83B887D7
:10572000BBCF2D833E834F835887D5CF81E08A83BB
:10573000ACCF60E070E080E09FECE3E028960C9452
:10574000AF2FACE0B0E0E7EAFBE20C94942F698362
:105750007A838B839C83BE016B5F7F4FCE01019662
:105760000E94132D8D81823061F0823050F08430A0
:1057700069F48E81882359F52FEF3FEF4FEF5FE7F4
:105780002AC020E030E040E050E025C02F8138857D
:1057900037FDF7CF2F31310564F78EE190E0821BA2
:1057A000930B29853A854B855C8504C056954795B2
:1057B000379527958A95D2F78E81882361F0509589
:1057C0004095309521953F4F4F4F5F4F04C020E0EB
:1057D00030E040E050E8CA01B901E2E02C960C94B8
:1057E000B02F4F925F926F927F928F929F92AF9263
:1057F000BF92DF92EF92FF920F931F9320E030E071
:1058000040E050E0FC01E480F58006811781D18002
:105810008081823038F4D801C701A061AF77B070C1
:105820006FEFD9C0843009F46EC0823009F471C0C2
:10583000E114F1040105110509F46BC08281938123
:105840006FEF823896070CF06AC062E87FEF681B42
:10585000790B6A3171050CF080C047015801062EA2
:1058600004C0B694A794979487940A94D2F74424DA
:105870005524320181E090E0A0E0B0E004C0880F40
:10588000991FAA1FBB1F6A95D2F70197A109B109F9
:10589000E822F9220A231B23E114F1040105110572
:1058A00029F061E0462E512C612C712C8501740188
:1058B000E428F52806291729D801C7018F779070A9
:1058C000A070B07080349105A105B10509F457C0EE
:1058D000D801C701CF96A11DB11D60E070E08030F6
:1058E000E0E09E07E0E0AE07E0E4BE0710F061E014
:1058F00070E027E0B695A795979587952A95D1F7FB
:10590000AF77B07068C080E090E0A0E0B0E06FEFEB
:1059100062C080E090E0A0E0B0E060E05CC0803871
:1059200091058CF7BC0161587F4FD801C7018F7773
:105930009070A070B07080349105A105B105A1F000
:105940008FE390E0A0E0B0E0E80EF91E0A1F1B1FF5
:1059500017FD28C0D801C701CCCF60E070E080E01F
:1059600090E0A0E0B0E0CCCFE7FEF2CF80E490E0A2
:10597000A0E0B0E0E80EF91E0A1F1B1FE9CFE7FC0C
:1059800018C080E090E060E0E61660E0F60660E0B7
:10599000060760E4160710F081E090E0BC01D80132
:1059A000C701A7CF16950795F794E7946F5F7F4FD0
:1059B000D1CFD801C701805C9F4FAF4FBF4F60E090
:1059C00070E08030E0E09E07E0E0AE07E0E4BE0774
:1059D00008F48FCF8CCF282F392F9A2F9F77842FC1
:1059E0008078892B962F9795992797958F77482FB1
:1059F000492B6695852F8078862BD794DD24D79404
:105A00008F77582F5D29CA01B9011F910F91FF901F
:105A1000EF90DF90BF90AF909F908F907F906F90AE
:105A20005F904F900895FC01DB01208131819281CC
:105A3000492F4F7750E0991F9927991F8381682F2D
:105A4000660F692B881F8827881FFD0181836623C5
:105A500009F049C0211531054105510509F470C00F
:105A600082E89FEFFD0193838283220F331F441F3F
:105A7000551F220F331F441F551F220F331F441F72
:105A8000551F220F331F441F551F220F331F441F62
:105A9000551F220F331F441F551F220F331F441F52
:105AA000551F83E08C932030F0E03F07F0E04F0774
:105AB000F0E45F0790F482E89FEF220F331F441F4A
:105AC000551F0197203060E0360760E0460760E42C
:105AD000560798F3FD0193838283FD012483358368
