:100000000C9472000C9491000C9491000C9491004B
:100010000C9491000C9491000C9491000C9491001C
:100020000C9491000C9491000C9491000C9491000C
:100030000C9491000C9491000C9491000C949100FC
:100040000C9491000C94BE000C9491000C949100BF
:100050000C9491000C9491000C9491000C949100DC
:100060000C9491000C9491000C9491000C949100CC
:100070000C9491000C9491000C9491000C949100BC
:100080000C9491000C9491000C9491000C949100AC
:100090000C9491000C9491000C9491000C9491009C
:1000A0000C9491000C9491000C9491000C9491008C
:1000B0000C9491000C9491000C9491000C9491007C
:1000C0000C9491000C9491000C9491000C9491006C
:1000D0000C9491000C9491000C9491000C9491005C
:1000E0000C94910011241FBECFEFD1E2DEBFCDBF33
:1000F00012E0A0E0B2E0EEEEF2E000E00BBF02C0E2
:1001000007900D92A030B107D9F712E0A0E0B2E05D
:1001100001C01D92A430B107E1F70E94A7000C9422
:1001200076010C94000010928000E1E8F0E083E09A
:10013000808380818860808382E080936F008DE07F
:1001400093E09093890080938800789408951F939A
:10015000109203020E941E010E94930081E00E94FF
:100160002E01182F82E00E942E01182B19F01092F8
:100170000302F4CF81E080930302F0CF1F920F922D
:100180000FB60F9211242F933F934F935F936F936A
:100190007F938F939F93AF93BF93EF93FF93809140
:1001A00002028330A9F084303CF4813071F0823057
:1001B00094F4882381F01EC0853081F085305CF096
:1001C000863079F08730B1F40FC084EA90E80EC031
:1001D00080E890EA0BC08CEB9CEB08C084E890E8C8
:1001E00005C08CEB99EB02C084E89FEA9093010272
:1001F0008093000280910002909101020E943801D8
:10020000809102020E946501809102028F5F8093BB
:100210000202883014F010920202FF91EF91BF9118
:10022000AF919F918F917F916F915F914F913F918E
:100230002F910F900FBE0F901F90189590EF9AB9C5
:100240008BB18F708BB980E38093010190930A0189
:10025000EBE0F1E080818F70808308959091000140
:100260008295880F880F807C9823892F992708957D
:100270009C0140E050E020FF04C080910B018062AF
:1002800003C080910B018F7D80930B0180910B0146
:10029000806180930B01000080910B018F7E809321
:1002A0000B014F5F5F4F4031510519F0369527958F
:1002B000E2CF80910B01806480930B01000080915C
:1002C0000B018F7B80930B010895EBE0F1E09081AF
:1002D000906890839BB19F789BB99BB18295807FFA
:0E02E000982B9BB980818F7780830895FFCF84
:00000001FF
