:100000000C9472000C948F000C948F000C948F0051
:100010000C948F000C948F000C948F000C948F0024
:100020000C948F000C948F000C948F000C948F0014
:100030000C948F000C948F000C948F000C948F0004
:100040000C948F000C948F000C948F000C948F00F4
:100050000C948F000C948F000C948F000C948F00E4
:100060000C948F000C948F000C948F000C948F00D4
:100070000C948F000C948F000C948F000C948F00C4
:100080000C948F000C948F000C948F000C948F00B4
:100090000C948F000C948F000C948F000C948F00A4
:1000A0000C948F000C948F000C948F000C948F0094
:1000B0000C948F000C948F000C948F000C948F0084
:1000C0000C948F000C948F000C948F000C948F0074
:1000D0000C948F000C948F000C948F000C948F0064
:1000E0000C948F0011241FBECFEFD1E2DEBFCDBF35
:1000F00012E0A0E0B2E0EAE4F1E000E00BBF02C0F1
:1001000007900D92A030B107D9F712E0A0E0B2E05D
:1001100001C01D92A030B107E1F70C9491000C943E
:100120000000CFEFD1E2DEBFCDBFF8948FEF8AB9E8
:100130001BB81092010190E11BB880910001807CF6
:0A01400011F09BB9F9CF8BB9F7CF8E
:00000001FF
