:100000000C9446000C9463000C9463000C94630001
:100010000C9463000C9463000C9463000C946300D4
:100020000C9463000C9463000C9463000C946300C4
:100030000C9463000C9463000C9463000C946300B4
:100040000C9463000C9463000C9463000C946300A4
:100050000C9463000C9463000C9463000C94630094
:100060000C9463000C9463000C9463000C94630084
:100070000C9463000C9463000C9463000C94630074
:100080000C9463000C9463000C94630011241FBE55
:10009000CFEFD0E1DEBFCDBF11E0A0E0B1E0E8E0FE
:1000A000F1E000E00BBF02C007900D92A030B10755
:1000B000D9F711E0A0E0B1E001C01D92A030B10776
:1000C000E1F70C9465000C940000CFEFD0E1DEBFA7
:1000D000CDBFF8948FEF8ABB1BBA8BBB2FE93BEBEC
:1000E0004DE050E0225330404040504057FFFACF9F
:1000F0001BBA2FE93BEB4DE050E02253304040402B
:08010000504057FFFACFE9CF90
:00000001FF
