:100000000C9472000C9491000C9491000C9491004B
:100010000C9491000C9491000C9491000C9491001C
:100020000C9491000C9491000C9491000C9491000C
:100030000C9491000C9491000C9491000C949100FC
:100040000C9491000C9491000C9491000C949100EC
:100050000C9493000C9491000C9491000C949100DA
:100060000C9491000C9491000C9491000C949100CC
:100070000C9491000C9491000C9491000C949100BC
:100080000C9491000C9491000C9491000C949100AC
:100090000C9491000C9491000C9491000C9491009C
:1000A0000C9491000C9491000C9491000C9491008C
:1000B0000C9491000C9491000C9491000C9491007C
:1000C0000C9491000C9491000C9491000C9491006C
:1000D0000C9491000C9491000C9491000C9491005C
:1000E0000C94910011241FBECFEFD1E2DEBFCDBF33
:1000F00012E0A0E0B2E0E0E1F2E000E00BBF02C0FD
:1001000007900D92A030B107D9F712E0A0E0B2E05D
:1001100001C01D92A230B107E1F70E94D6000C94F5
:1001200007010C9400001F920F920FB60F9211243A
:100130008F939F9390910002923061F093301CF462
:10014000913071F405C0933039F0943049F406C011
:1001500080E105C080E203C080E401C080E88BB983
:1001600080910102882341F4892F8F5F80930002E0
:1001700085305CF081E007C0892F815080930002B8
:1001800018161CF084E0809300029F918F910F90CD
:100190000FBE0F901F9018951092800083E08093FF
:1001A000810081E080936F00789408951F931092EE
:1001B00001020E94F4001092800083E0809381008D
:1001C00081E080936F00789481E00E94FD00182FF9
:1001D00082E00E94FD00182B19F010920102F4CF6A
:1001E00081E080930102F0CF80EF8AB98BB18F70EC
:1001F0008BB980E38093010108959091000182956D
:10020000880F880F807C9823892F99270895FFCF26
:00000001FF
