:100000000C9472000C9491000C9491000C9491004B
:100010000C9491000C9491000C9491000C9491001C
:100020000C9491000C9491000C9493000C9491000A
:100030000C9491000C9491000C9491000C949100FC
:100040000C9491000C9418010C9491000C94910064
:100050000C9491000C9491000C9491000C949100DC
:100060000C9491000C9491000C9491000C949100CC
:100070000C9491000C9491000C9491000C949100BC
:100080000C9491000C9491000C9491000C949100AC
:100090000C9491000C9491000C9491000C9491009C
:1000A0000C9491000C9491000C9491000C9491008C
:1000B0000C9491000C9491000C9491000C9491007C
:1000C0000C9491000C9491000C9491000C9491006C
:1000D0000C9491000C9491000C9491000C9491005C
:1000E0000C94910011241FBECFEFD1E2DEBFCDBF33
:1000F00012E0A0E0B2E0EEEFF3E000E00BBF02C0E0
:1001000007900D92A034B107D9F712E0A0E4B2E055
:1001100001C01D92AD34B107E1F70E94F9000C94C3
:10012000FE010C9400001F920F920FB60F92112443
:100130002F933F934F938F939F9381E080934A0235
:1001400040910301309100012091450280914502C8
:1001500090914602242789272823243091F432FFE6
:1001600006C08091480290914902019705C0809194
:100170004802909149020196909349028093480267
:1001800013C0283089F433FF06C080914B02909150
:100190004C02019705C080914B0290914C02019650
:1001A00090934C0280934B02409345029F918F9114
:1001B0004F913F912F910F900FBE0F901F90189568
:1001C00010928000E1E8F0E083E080838081886025
:1001D000808322E020936F008DE093E0909389006C
:1001E00080938800209368008EE180936C0078945F
:1001F00008951F9381E08093470280934A020E94F2
:100200009E010E94E0008FE080934602109245021A
:1002100081E00E94B601182F82E00E94B601182BDF
:1002200021F081E080934702F3CF10924702F0CF94
:100230001F920F920FB60F9211242F933F934F935B
:100240005F936F937F938F939F93AF93BF93EF933E
:10025000FF9380914A028823F1F180914402882320
:10026000D1F5809148029091490220914B02309142
:100270004C0297FF03C0909581959F4F37FF03C0B5
:10028000309521953F4F2817390764F48091480233
:100290009091490297FD03C080E192E00EC080E397
:1002A00092E00BC080914B0290914C0297FD03C0ED
:1002B00080E092E002C080E292E09093410280935D
:1002C000400210924A021092490210924802109283
:1002D0004C0210924B02E0914402FF27E7FDF0959B
:1002E000EE0FFF1F8091400290914102E80FF91F2D
:1002F0008081918190934302809342020E94C001C9
:10030000809144020E94ED01809144028F5F8093AE
:100310004402883014F010924402FF91EF91BF9193
:10032000AF919F918F917F916F915F914F913F918D
:100330002F910F900FBE0F901F90189590EF9AB9C4
:100340008BB18F708BB980E38093010180E880933B
:100350000401E5E0F1E080818068808390930A01E8
:10036000EBE0F1E080818F7080830895909100012F
:100370008295880F880F807C9823892F992708956C
:100380009C0140E050E020FF04C080910B0180629E
:1003900003C080910B018F7D80930B0180910B0135
:1003A000806180930B01000080910B018F7E809310
:1003B0000B014F5F5F4F4031510519F0369527957E
:1003C000E2CF80910B01806480930B01000080914B
:1003D0000B018F7B80930B010895EBE0F1E090819E
:1003E000906890839BB19F789BB99BB18295807FE9
:0E03F000982B9BB980818F7780830895FFCF73
:1003FE00FF000000000000000000000000000000F0
:10040E0080808080808080808080808080808080DE
:10041E00000000000000000000000000000000FFCF
:10042E0001010101010101010101010101010101AE
:00000001FF
