:100000000C948C000C94B6000C94B6000C94B600C2
:100010000C94B6000C94B6000C94B6000C94B60088
:100020000C94B6000C94B6000C9450140C94241448
:100030000C94B6000C94571D0C94B6000C94B600AA
:100040000C94B6000C94841D0C94B6000C94B6006D
:100050000C94B6000C94B11D0C94B6000C94B60030
:100060000C94B6000C94710D0C94B6000C94B60070
:100070000C94B6000C94B6000C94B6000C94B60028
:100080000C942A1D0C94B6000C94B6000C94B60087
:100090000C94380D0C94B6000C94B6000C94B60079
:1000A0000C94B6000C94B6000C94FD1C0C94B60095
:1000B0000C94B6000C94B6000C94B6000C94D01CB2
:1000C0000C94B6000C94B6000C94EA0F0C94B60095
:1000D0000C94B6000C94B6000C94B6000C94B600C8
:1000E0000C94B600000000000000000000000000BA
:1000F0000000000000000000000000000000000000
:1001000000000000000000000000000000000000EF
:1001100000000000E510D81011241FBECFEFD1E27F
:10012000DEBFCDBF13E0A0E0B2E0E4ECF4E500E018
:100130000BBF02C007900D92A034B107D9F713E0AE
:10014000A0E4B3E001C01D92AF39B107E1F711E0BF
:10015000C6E1D1E004C02297FE010E94522AC431B8
:10016000D107C9F70E94FC160C94562A0C94000083
:10017000CF93DF93CDB7DEB7A8970FB6F894DEBF65
:100180000FBECDBF9E8F8D8FABE0B1E0EBE0F1E015
:10019000808180688C93ABE2B0E0EBE2F0E080819C
:1001A0008F788C93ABE2B0E0EBE2F0E08081282F17
:1001B000ED8DFE8D8089992787709070829592953C
:1001C000907F9827807F9827822B8C9319861A8698
:1001D0001B861C8649C029853A854B855C852DA3E5
:1001E0003EA34FA358A789859A85AB85BC852D8DE5
:1001F0003E8D880F991FFC01E20FF31F4081518152
:10020000ED8DFE8D80899927880F991FFC01E050A4
:10021000FE4F8081282F33278FE090E0BC01621BC6
:10022000730B9B0181E090E0022E02C0880F991FA2
:100230000A94E2F7842395231CA2009711F071E041
:100240007CA3CE010D96EDA1FEA1E80FF91F8CA1B4
:10025000808389859A85AB85BC850196A11DB11DDA
:1002600089879A87AB87BC8789859A85AB85BC854A
:1002700088309105A105B10508F4ADCF1D821E821D
:100280001F8218864FC08D819E81AF81B8859C01E9
:10029000AD01285F3F4F4F4F5F4F28A339A34AA3BB
:1002A0005BA38D819E81AF81B8852D8D3E8D880F9A
:1002B000991FFC01E20FF31F40815181ED8DFE8DEE
:1002C00080899927880F991FFC01EF5FFD4F80817E
:1002D000282F33278FE090E0BC01621B730B9B013A
:1002E00081E090E0022E02C0880F991F0A94E2F785
:1002F000842395231F8E009711F071E07F8FCE012C
:100300000D96E8A1F9A1E80FF91F8F8D80838D81EB
:100310009E81AF81B8850196A11DB11D8D839E83FD
:10032000AF83B8878D819E81AF81B8858830910574
:10033000A105B10508F4A7CF19821A821B821C827D
:1003400035C089819A81AB81BC819E01235F3F4F7B
:10035000F901E80FF91F8081882341F0ABE0B1E09B
:10036000EBE0F1E0808180628C9307C0ABE0B1E00C
:10037000EBE0F1E080818F7D8C93ABE0B1E0EBE0CE
:10038000F1E0808180618C93ABE0B1E0EBE0F1E0E3
:1003900080818F7E8C9389819A81AB81BC8101960B
:1003A000A11DB11D89839A83AB83BC8389819A8106
:1003B000AB81BC8180319105A105B10510F2ABE0A4
:1003C000B1E0EBE0F1E0808180648C93ABE0B1E0E0
:1003D000EBE0F1E080818F7B8C93ABE0B1E0EBE070
:1003E000F1E090818FE789238C93ED8DFE8D8089DC
:1003F0008F5FED8DFE8D808BED8DFE8D8089883039
:1004000019F4ED8DFE8D108AA8960FB6F894DEBF14
:100410000FBECDBFDF91CF910895CF93DF93CDB7BE
:10042000DEB726970FB6F894DEBF0FBECDBF9E8312
:100430008D83ED81FE81108A19821A821B821C82B3
:100440000FC08D819E810E94B80089819A81AB8105
:10045000BC810196A11DB11D89839A83AB83BC83A6
:1004600089819A81AB81BC8188309105A105B10554
:1004700040F326960FB6F894DEBF0FBECDBFDF91D6
:10048000CF910895CF93DF93CDB7DEB729970FB6FD
:10049000F894DEBF0FBECDBF9F838E8379876887B8
:1004A000EFE5F0E0908180E889238D83F89419824C
:1004B0001A821B821C8225C049815A816B817C81F2
:1004C00089819A81880F991F9C0188859985F901F6
:1004D000E80FF91FA081B1812E813F81CA01880FE9
:1004E000991FFC01E20FF31FB183A08389819A81D8
:1004F000AB81BC810196A11DB11D89839A83AB8319
:10050000BC8389819A81AB81BC8188309105A1052A
:10051000B10590F2AFE5B0E0EFE5F0E090818D81BC
:10052000892B8C9329960FB6F894DEBF0FBECDBFF2
:10053000DF91CF910895EF92FF920F931F93CF9386
:10054000DF93CDB7DEB76D970FB6F894DEBF0FBE61
:10055000CDBF9B8B8A8B7D8B6C8B4E8B2F8B088FAB
:10056000E98EEFE5F0E0908180E88923898BF894AB
:100570001D861E861F86188A888D9927AA27BB2765
:1005800089879A87AB87BC87D8C01D821E821F824D
:100590001886898D9927AA27BB2789839A83AB83DD
:1005A000BC8392C08D859E85880F991F9C018C8984
:1005B0009D89F901E80FF91F408151818E89282F0B
:1005C00033278D819E81B901681B790BCB0101977F
:1005D0009C0181E090E0022E02C0880F991F0A94CE
:1005E000E2F784239523009761F1E984FA840B856F
:1005F0001C8589859A85AB85BC852A893B89880FAE
:10060000991FFC01E20FF31F4081518129813A813A
:100610008FE090E0821B930B9C0181E090E002C090
:10062000880F991F2A95E2F7482B592B2A893B8975
:10063000C701880F991FFC01E20FF31F518340830C
:100640002DC0E984FA840B851C8589859A85AB8544
:10065000BC852A893B89880F991FFC01E20FF31F93
:100660004081518129813A818FE090E0821B930B78
:100670009C0181E090E002C0880F991F2A95E2F763
:1006800080959095482359232A893B89C701880F73
:10069000991FFC01E20FF31F518340838D819E81DE
:1006A000AF81B8850196A11DB11D8D839E83AF8357
:1006B000B88789819A81AB81BC810196A11DB11D4A
:1006C00089839A83AB83BC83898D282F33278E89B6
:1006D0009927820F931F9B8F8A8F8A8D9B8D8131E3
:1006E000910524F060E170E07B8F6A8F8A8D9B8D8D
:1006F0009C01442737FD4095542F89819A81AB8115
:10070000BC8182179307A407B50708F44BCF8D85EA
:100710009E85AF85B8890196A11DB11D8D879E87E5
:10072000AF87B88B89859A85AB85BC850196A11D5D
:10073000B11D89879A87AB87BC87888D282F33277F
:100740008F899927820F931F9D8F8C8F6C8D7D8D44
:100750006930710524F088E090E09D8F8C8F6C8D5E
:100760007D8D9B01442737FD4095542F89859A85BF
:10077000AB85BC8582179307A407B50708F405CF9E
:10078000AFE5B0E0EFE5F0E090818989892B8C93AB
:100790006D960FB6F894DEBF0FBECDBFDF91CF913F
:1007A0001F910F91FF90EF900895CF93DF93CDB7F6
:1007B000DEB763970FB6F894DEBF0FBECDBF988744
:1007C0008F836987EFE5F0E0908180E889238E834D
:1007D000F8941A821B821C821D8278C08A819B81B8
:1007E000AC81BD812F813885880F991FFC01E20FF4
:1007F000F31F808191811982992314F481E0898308
:100800004A815B816C817D818A819B81AC81BD81C4
:100810002F813885880F991FFC01E20FF31F80811B
:100820009181DC01AA0FBB1F2F813885CA01880F77
:10083000991FFC01E20FF31FB183A0838A819B8182
:10084000AC81BD81888B998BAA8BBB8B8A819B8164
:10085000AC81BD812F813885880F991FFC01E20F83
:10086000F31F0190F081E02DFF87EE8789858823B3
:1008700079F08981882329F0A1E0B0E0BB87AA87BD
:1008800002C01B861A868A859B859D878C8702C03D
:100890001D861C864E855F85AC85BD854A2B5B2BEE
:1008A0002F81388588899989880F991FFC01E20F6B
:1008B000F31F518340838A819B81AC81BD81019666
:1008C000A11DB11D8A839B83AC83BD838A819B81DB
:1008D000AC81BD8188309105A105B10508F47ECFBA
:1008E000AFE5B0E0EFE5F0E090818E81892B8C934D
:1008F00063960FB6F894DEBF0FBECDBFDF91CF91E8
:100900000895CF93DF93CDB7DEB763970FB6F89412
:10091000DEBF0FBECDBF98878F836987EFE5F0E01C
:10092000908180E889238E83F8941A821B821C822E
:100930001D8276C08A819B81AC81BD812F813885E3
:10094000880F991FFC01E20FF31F80819181817054
:10095000907089834A815B816C817D818A819B81D2
:10096000AC81BD812F813885880F991FFC01E20F72
:10097000F31F80819181DC01B695A7952F81388581
:10098000CA01880F991FFC01E20FF31FB183A083F6
:100990008A819B81AC81BD81888B998BAA8BBB8B13
:1009A0008A819B81AC81BD812F813885880F991FF9
:1009B000FC01E20FF31F0190F081E02DFF87EE872D
:1009C0008985882379F08981882329F0A0E0B0E81F
:1009D000BB87AA8702C01B861A868A859B859D874E
:1009E0008C8702C01D861C864E855F85AC85BD85C3
:1009F0004A2B5B2B2F81388588899989880F991F0D
:100A0000FC01E20FF31F518340838A819B81AC81FB
:100A1000BD810196A11DB11D8A839B83AC83BD83DB
:100A20008A819B81AC81BD8188309105A105B1058A
:100A300008F480CFAFE5B0E0EFE5F0E090818E8183
:100A4000892B8C9363960FB6F894DEBF0FBECDBF93
:100A5000DF91CF910895CF93DF93CDB7DEB72C9779
:100A60000FB6F894DEBF0FBECDBF998788876A871F
:100A7000EFE5F0E0908180E889238F83F894E885A2
:100A8000F985808191819E838D8381E090E0A0E053
:100A9000B0E089839A83AB83BC832CC089819A811F
:100AA000AB81BC81AC01BD01415050406040704001
:100AB00089819A81AB81BC8128853985880F991FEE
:100AC000FC01E20FF31FA081B18128853985CA019D
:100AD000880F991FFC01E20FF31FB183A083898166
:100AE0009A81AB81BC810196A11DB11D89839A8336
:100AF000AB83BC8389819A81AB81BC8188309105AD
:100B0000A105B10558F28A85882329F08D819E813F
:100B10009C878B8702C01C861B86E885F9858B85A0
:100B20009C8597878687AFE5B0E0EFE5F0E09081A0
:100B30008F81892B8C932C960FB6F894DEBF0FBE55
:100B4000CDBFDF91CF910895CF93DF93CDB7DEB7BF
:100B50002C970FB6F894DEBF0FBECDBF998788875C
:100B60006A87EFE5F0E0908180E889238F83F8942D
:100B7000E885F985868597859E838D8387E090E05B
:100B8000A0E0B0E089839A83AB83BC8329C049810C
:100B90005A816B817C8189819A81AB81BC8101976B
:100BA000A109B10928853985880F991FFC01E20F39
:100BB000F31FA081B18128853985CA01880F991F4B
:100BC000FC01E20FF31FB183A08389819A81AB817D
:100BD000BC810197A109B10989839A83AB83BC8346
:100BE00089819A81AB81BC810097A105B10579F615
:100BF0008A85882329F08D819E819C878B8702C0FE
:100C00001C861B86E885F9858B859C85918380836E
:100C1000AFE5B0E0EFE5F0E090818F81892B8C9318
:100C20002C960FB6F894DEBF0FBECDBFDF91CF91EB
:100C30000895CF93DF93CDB7DEB722970FB6F89420
:100C4000DEBF0FBECDBF9A83898389819A8160E020
:100C50000E94D50322960FB6F894DEBF0FBECDBF1B
:100C6000DF91CF910895CF93DF93CDB7DEB7229771
:100C70000FB6F894DEBF0FBECDBF9A8389838981FA
:100C80009A8160E00E94810422960FB6F894DEBF3C
:100C90000FBECDBFDF91CF910895CF93DF93CDB736
:100CA000DEB722970FB6F894DEBF0FBECDBF9A8392
:100CB000898389819A8160E00E942B0522960FB674
:100CC000F894DEBF0FBECDBFDF91CF910895CF93D3
:100CD000DF93CDB7DEB722970FB6F894DEBF0FBE15
:100CE000CDBF9A83898389819A8160E00E94A4059F
:100CF00022960FB6F894DEBF0FBECDBFDF91CF9125
:100D00000895CF93DF93CDB7DEB722970FB6F8944F
:100D1000DEBF0FBECDBF9A83898389819A8161E04E
:100D20000E94D50322960FB6F894DEBF0FBECDBF4A
:100D3000DF91CF910895CF93DF93CDB7DEB72297A0
:100D40000FB6F894DEBF0FBECDBF9A838983898129
:100D50009A8161E00E94810422960FB6F894DEBF6A
:100D60000FBECDBFDF91CF910895CF93DF93CDB765
:100D7000DEB722970FB6F894DEBF0FBECDBF9A83C1
:100D8000898389819A8161E00E942B0522960FB6A2
:100D9000F894DEBF0FBECDBFDF91CF910895CF9302
:100DA000DF93CDB7DEB722970FB6F894DEBF0FBE44
:100DB000CDBF9A83898389819A8161E00E94A405CD
:100DC00022960FB6F894DEBF0FBECDBFDF91CF9154
:100DD0000895CF93DF93CDB7DEB723970FB6F8947E
:100DE000DEBF0FBECDBF9B838A83EFE5F0E090812D
:100DF00080E889238983F8948A819B8120E1FC0122
:100E0000DF01822F1D928A95E9F7AFE5B0E0EFE5AB
:100E1000F0E090818981892B8C9323960FB6F8940A
:100E2000DEBF0FBECDBFDF91CF910895CF93DF938B
:100E3000CDB7DEB722970FB6F894DEBF0FBECDBF99
:100E40009A838983AAE0B1E0EAE0F1E08081806FD3
:100E50008C93ABE0B1E0EBE0F1E090818FE089238F
:100E60008C93AAE2B0E0EAE2F0E08081806F8C939C
:100E7000ABE2B0E0EBE2F0E090818FE089238C936D
:100E800089819A810E94E90622960FB6F894DEBF06
:100E90000FBECDBFDF91CF910895CF93DF93CDB734
:100EA000DEB722970FB6F894DEBF0FBECDBF9A8390
:100EB000898389819A810E941607E981FA81108AC3
:100EC00022960FB6F894DEBF0FBECDBFDF91CF9153
:100ED0000895CF93DF93CDB7DEB722970FB6F8947E
:100EE000DEBF0FBECDBF9A83898389819A810E941C
:100EF0001607E981FA81108A22960FB6F894DEBFB0
:100F00000FBECDBFDF91CF9108950F931F93CF9365
:100F1000DF93CDB7DEB780914003909141030097F6
:100F200061F481E190E00E94A1188C01C8010E9447
:100F30004D0710934103009340038091400390912B
:100F40004103DF91CF911F910F910895CF93DF93CC
:100F5000CDB7DEB7EDE2F0E080EF8083E1E0F1E0D5
:100F600080E38083E4E0F1E080E88083A5E0B1E005
:100F7000E5E0F1E0808180688C93DF91CF91089566
:100F80000F931F93CF93DF93CDB7DEB72F970FB695
:100F9000F894DEBF0FBECDBF8D837F836E835987EC
:100FA00048873B872A871D870C878E819F819C01FC
:100FB0004427552780E492E4AFE0B0E0BC01CD01C6
:100FC0000E94DC29DA01C9010197A109B1098983CD
:100FD0009A83AB83BC838D81282F33273F872E874D
:100FE0008E859F85009731F02E853F852130310514
:100FF00059F153C0E5ECF0E089819A81AB81BC8165
:10100000892F9A2FAB2FBB278083E4ECF0E08981F6
:101010008083E2ECF0E08A85992782959295907F13
:101020009827807F9827282F8C859927880F991FCC
:10103000880F991F880F991F282B88859927880F5B
:10104000991F822B808329C0EDECF0E089819A8181
:10105000AB81BC81892F9A2FAB2FBB278083ECEC0F
:10106000F0E089818083EAECF0E08A859927829517
:101070009295907F9827807F9827282F8C85992795
:10108000880F991F880F991F880F991F282B888513
:101090009927880F991F822B80832F960FB6F8947B
:1010A000DEBF0FBECDBFDF91CF911F910F9108958D
:1010B000CF93DF93CDB7DEB725970FB6F894DEBF99
:1010C0000FBECDBF89836A834B838981282F332745
:1010D0003D832C838C819D81009731F02C813D8153
:1010E0002130310539F14BC08A81882341F0A1ECD0
:1010F000B0E0E1ECF0E0808188608C9307C0A1EC67
:10110000B0E0E1ECF0E08081877F8C938B818823D5
:1011100041F0A1ECB0E0E1ECF0E0808180698C93DB
:101120002EC0A1ECB0E0E1ECF0E090818FE68923E5
:101130008C9325C08A81882341F0A9ECB0E0E9ECCA
:10114000F0E0808188608C9307C0A9ECB0E0E9EC06
:10115000F0E08081877F8C938B81882341F0A9EC1C
:10116000B0E0E9ECF0E0808180698C9308C0A9ECE4
:10117000B0E0E9ECF0E090818FE689238C9325962E
:101180000FB6F894DEBF0FBECDBFDF91CF910895AB
:10119000CF93DF93CDB7DEB724970FB6F894DEBFB9
:1011A0000FBECDBF89836A838981282F33273C8373
:1011B0002B838B819C81009739F02B813C812130DE
:1011C000310571F017C00000E0ECF0E0808180E0B4
:1011D0008823C9F7E6ECF0E08A8180830BC0000029
:1011E000E8ECF0E0808180E08823C9F7EEECF0E0E5
:1011F0008A81808324960FB6F894DEBF0FBECDBFE0
:10120000DF91CF9108950F931F93CF93DF93CDB7C5
:10121000DEB72A970FB6F894DEBF0FBECDBF9A8314
:1012200089837C836B835E834D8338872F831A8702
:101230000987E981FA81E08189859A852F8138853E
:101240004D815E816B817C818C018E2F0E94C00755
:10125000E981FA818B819C8192838183E981FA8182
:101260008D819E8194838383E981FA818F81988522
:1012700096838583E981FA8189859A85908787831A
:101280002A960FB6F894DEBF0FBECDBFDF91CF9187
:101290001F910F9108950F931F93CF93DF93CDB7B5
:1012A000DEB722970FB6F894DEBF0FBECDBF9A838C
:1012B000898389819A8100E010E020E030E043E0FA
:1012C00050E060E875E20E94030922960FB6F89498
:1012D000DEBF0FBECDBFDF91CF911F910F9108955B
:1012E000CF93DF93CDB7DEB724970FB6F894DEBF68
:1012F0000FBECDBF9A8389836B834C83E981FA81CA
:1013000080814C816B810E945808E981FA818B8130
:101310008187E981FA818C81828724960FB6F894BF
:10132000DEBF0FBECDBFDF91CF910895CF93DF9386
:10133000CDB7DEB723970FB6F894DEBF0FBECDBF93
:101340009A8389836B8389819A81FC01E15FFD4FD8
:1013500080819181A281B381803021E0920720E0D9
:10136000A20720E0B20751F189819A81FC01E15F77
:10137000FD4F80819181A281B38129813A81820FC1
:10138000931FFC01E55FFE4F8B81808389819A81E9
:10139000FC01E15FFD4F80819181A281B3819C01BD
:1013A000AD012F5F3F4F4F4F5F4F89819A81FC0105
:1013B000E15FFD4F208331834283538323960FB631
:1013C000F894DEBF0FBECDBFDF91CF910895CF93CC
:1013D000DF93CDB7DEB768970FB6F894DEBF0FBEC8
:1013E000CDBF9A8789877C876B872D873E874F87FC
:1013F000588B89859A85FC01E55FFD4F20813181FD
:101400004281538180E091E0A0E0B0E0821B930B29
:10141000A40BB50B2D853E854F8558892D8B3E8BB2
:101420004F8B588F898B9A8BAB8BBC8B89899A8910
:10143000AB89BC892D893E894F89588D281739077A
:101440004A075B0740F48D899E89AF89B88D898BE7
:101450009A8BAB8BBC8B29893A894B895C892D830C
:101460003E834F83588719821A821B821C822EC0AA
:1014700089859A85FC01E55FFD4F2081318142819C
:10148000538189819A81AB81BC81BA01A901480F3E
:10149000591F6A1F7B1F89819A819C018B859C85BE
:1014A000F901E80FF91F208189859A85840F951F1E
:1014B000FC013B96208389819A81AB81BC81019696
:1014C000A11DB11D89839A83AB83BC8329813A8195
:1014D0004B815C818D819E81AF81B885281739074A
:1014E0004A075B0728F289859A85FC01E55FFD4F75
:1014F00020813181428153818D819E81AF81B88568
:10150000280F391F4A1F5B1F89859A85FC01E55FFB
:10151000FD4F20833183428353838D819E81AF8130
:10152000B885BC01CD0168960FB6F894DEBF0FBE3A
:10153000CDBFDF91CF910895CF93DF93CDB7DEB7C5
:1015400026970FB6F894DEBF0FBECDBF9E838D8366
:1015500019821A821B821C821CC089819A81AB81EC
:10156000BC812D813E81820F931FFC013B969081AF
:10157000ED81FE818081692F0E94C80889819A814E
:10158000AB81BC810196A11DB11D89839A83AB8378
:10159000BC838D819E81FC01E55FFD4F20813181FF
:1015A0004281538189819A81AB81BC8182179307E3
:1015B000A407B50790F28D819E810B9620E031E063
:1015C000FC01DF01C9011D920197E9F78D819E8120
:1015D000FC01E55FFD4F1082118212821382269674
:1015E0000FB6F894DEBF0FBECDBFDF91CF91089547
:1015F000EF92FF920F931F93CF93DF93CDB7DEB798
:10160000A5970FB6F894DEBF0FBECDBF9F878E871C
:10161000798B688B2A8B3B8B4C8B5D8B8A899B8962
:10162000AC89BD890097A105B10549F02A893B899C
:101630004C895D892E8F3F8F48A359A308C080E055
:1016400091E0A0E0B0E08E8F9F8FA8A3B9A38E8514
:101650009F85FC01E15FFD4F80819181A281B38173
:101660002E8D3F8D48A159A1281739074A075B07DE
:1016700010F58A899B89AC89BD890097A105B105C0
:1016800049F08A899B89AC89BD898A8F9B8FAC8FF1
:10169000BD8F08C020E031E040E050E02A8F3B8F52
:1016A0004C8F5D8F8A8D9B8DAC8DBD8D8AA39BA346
:1016B000ACA3BDA30DC08E859F85FC01E15FFD4FEE
:1016C00020813181428153812AA33BA34CA35DA396
:1016D0008AA19BA1ACA1BDA18A879B87AC87BD874E
:1016E0008A859B85AC85BD850097A105B10529F448
:1016F0001E8A1F8A188E198ECAC0EFE5F0E090810D
:1017000080E889238987F8941D821E821F821886AB
:1017100021C08D819E819C0188899989A901480FEA
:10172000591F8D819E81AF81B8852E853F85820F9F
:10173000931FFC01E55FFE4F8081DA018C938D8160
:101740009E81AF81B8850196A11DB11D8D839E83B9
:10175000AF83B8872D813E814F8158858A859B85CF
:10176000AC85BD85281739074A075B0790F28E853F
:101770009F85FC01E15FFD4F2081318142815381D2
:101780008A859B85AC85BD85281739074A075B0785
:10179000B9F48E859F85855F9E4F20E031E0FC0186
:1017A000DF01A9011D9241505040E1F78E859F85D0
:1017B000FC01E15FFD4F108211821282138257C03B
:1017C00019821A821B821C822BC0E980FA800B814D
:1017D0001C8129813A814B815C818A859B85AC85FE
:1017E000BD85820F931FA41FB51F2E853F85820FD5
:1017F000931FFC01E55FFE4F20818E859F858E0D36
:101800009F1DFC01E55FFE4F208389819A81AB819A
:10181000BC810196A11DB11D89839A83AB83BC83D2
:1018200029813A814B815C818A859B85AC85BD8508
:10183000281739074A075B0740F28E859F85FC0110
:10184000E15FFD4F20813181428153818A859B85F3
:10185000AC85BD85281B390B4A0B5B0B8E859F859C
:10186000FC01E15FFD4F2083318342835383AFE569
:10187000B0E0EFE5F0E090818985892B8C938A8533
:101880009B85AC85BD858E8B9F8BA88FB98F8E89EC
:101890009F89A88DB98DBC01CD01A5960FB6F8948E
:1018A000DEBF0FBECDBFDF91CF911F910F91FF9093
:1018B000EF900895CF93DF93CDB7DEB723970FB6A0
:1018C000F894DEBF0FBECDBF9A8389836B83E98115
:1018D000FA818B81808389819A810B9620E031E0A7
:1018E000FC01DF01C9011D920197E9F789819A8105
:1018F000855F9E4F20E031E0FC01DF01C9011D92B0
:101900000197E9F789819A81FC01E55FFD4F10821B
:1019100011821282138289819A81FC01E15FFD4F5D
:101920001082118212821382E981FA811186E98183
:10193000FA81128689819A810E944B0923960FB6FB
:10194000F894DEBF0FBECDBFDF91CF910895CF9346
:10195000DF93CDB7DEB723970FB6F894DEBF0FBE87
:10196000CDBF9A8389836B83E981FA818B818083E0
:1019700089819A810B9620E031E0FC01DF01C901E9
:101980001D920197E9F789819A81855F9E4F20E03A
:1019900031E0FC01DF01C9011D920197E9F789815E
:1019A0009A81FC01E55FFD4F108211821282138241
:1019B00089819A81FC01E15FFD4F108211821282C0
:1019C0001382E981FA811186E981FA81128689817F
:1019D0009A810E944B0923960FB6F894DEBF0FBE82
:1019E000CDBFDF91CF910895EF92FF920F931F9398
:1019F000CF93DF93CDB7DEB721970FB6F894DEBF54
:101A00000FBECDBF898389819927880F991FFC015B
:101A1000EE5BFC4F808191810097A1F48981E82ED3
:101A2000FF2483E192E00E94A1188C016981C80122
:101A30000E945A0CC701880F991FFC01EE5BFC4FF6
:101A40001183008389819927880F991FFC01EE5B20
:101A5000FC4F8081918121960FB6F894DEBF0FBEB6
:101A6000CDBFDF91CF911F910F91FF90EF9008951F
:101A70001F920F920FB60F9211242F933F934F9303
:101A80005F936F937F938F939F93AF93BF93EF93E6
:101A9000FF93CF93DF93CDB7DEB72197DEBFCDBFE6
:101AA000EEECF0E08081898381E00E94F40C698192
:101AB0000E9496092196F894DEBFCDBFDF91CF91A9
:101AC000FF91EF91BF91AF919F918F917F916F9116
:101AD0005F914F913F912F910F900FBE0F901F90EC
:101AE00018951F920F920FB60F9211242F933F93C8
:101AF0004F935F936F937F938F939F93AF93BF9316
:101B0000EF93FF93CF93DF93CDB7DEB72197DEBF7F
:101B1000CDBFE6ECF0E08081898380E00E94F40C88
:101B200069810E9496092196F894DEBFCDBFDF91AE
:101B3000CF91FF91EF91BF91AF919F918F917F9145
:101B40006F915F914F913F912F910F900FBE0F902A
:101B50001F901895CF93DF93CDB7DEB722970FB6BE
:101B6000F894DEBF0FBECDBF9A83898389819A81A5
:101B7000892F9927992722960FB6F894DEBF0FBEBA
:101B8000CDBFDF91CF910895CF93DF93CDB7DEB76F
:101B900022970FB6F894DEBF0FBECDBF9A8389831C
:101BA00022960FB6F894DEBF0FBECDBFDF91CF9166
:101BB0000895CF93DF93CDB7DEB723970FB6F89490
:101BC000DEBF0FBECDBF9A8389836B83E981FA8123
:101BD0008B81868B23960FB6F894DEBF0FBECDBFE8
:101BE000DF91CF910895CF93DF93CDB7DEB72B97D9
:101BF0000FB6F894DEBF0FBECDBF9B838A834C83A4
:101C00005D836E837F83EFE5F0E0908180E8892338
:101C10008983F894EA81FB818C819D81AE81BF81AB
:101C2000828B938BA48BB58BEA81FB8121853285D6
:101C300043855485EA81FB8182899389A489B5898A
:101C4000281739074A075B070CF5EA81FB81858570
:101C50009685A785B0899B878A872A853B8533230C
:101C60003CF48A859B85909581959F4F9B878A87B9
:101C70002A853B85C901AA2797FDA095BA2FEA813D
:101C8000FB8185879687A787B08B22C0EA81FB817D
:101C900085859685A785B089998788878885998560
:101CA00099233CF428853985309521953F4F398714
:101CB000288788859985909581959F4FAA2797FDBC
:101CC000A095BA2FEA81FB8185879687A787B08B7D
:101CD000AFE5B0E0EFE5F0E090818981892B8C934E
:101CE0002B960FB6F894DEBF0FBECDBFDF91CF911C
:101CF0000895CF93DF93CDB7DEB727970FB6F8944B
:101D0000DEBF0FBECDBF9B838A834C835D836E8312
:101D10007F83EFE5F0E0908180E889238983F89460
:101D2000EA81FB812185328543855485EA81FB81E7
:101D300082899389A489B589281739074A075B07DF
:101D40005CF4EA81FB818C819D81AE81BF818587B6
:101D50009687A787B08B11C08C819D81AE81BF8192
:101D6000B095A095909581959F4FAF4FBF4FEA8159
:101D7000FB8185879687A787B08BAFE5B0E0EFE55D
:101D8000F0E090818981892B8C9327960FB6F89487
:101D9000DEBF0FBECDBFDF91CF910895CF93DF930C
:101DA000CDB7DEB724970FB6F894DEBF0FBECDBF18
:101DB0009B838A836C83EFE5F0E0908180E8892340
:101DC0008983F894EA81FB818C818483AFE5B0E05C
:101DD000EFE5F0E090818981892B8C9324960FB6F2
:101DE000F894DEBF0FBECDBFDF91CF910895CF93A2
:101DF000DF93CDB7DEB727970FB6F894DEBF0FBEDF
:101E0000CDBF9B838A837D836C835F834E83EFE5A5
:101E1000F0E0908180E889238983F894EA81FB814E
:101E20008C819D8191838083EA81FB818E819F815A
:101E300093838283AFE5B0E0EFE5F0E090818981A4
:101E4000892B8C9327960FB6F894DEBF0FBECDBFBB
:101E5000DF91CF910895CF93DF93CDB7DEB722976F
:101E60000FB6F894DEBF0FBECDBF9A83898322964A
:101E70000FB6F894DEBF0FBECDBFDF91CF910895AE
:101E8000CF93DF93CDB7DEB722970FB6F894DEBFBE
:101E90000FBECDBF9A838983E981FA811482E981DB
:101EA000FA811582168217821086E981FA811186DD
:101EB000128613861486E981FA811586168617869E
:101EC000108AE981FA8181E0818BE981FA81128AA5
:101ED000138A148A158A89819A810E942B0F22966F
:101EE0000FB6F894DEBF0FBECDBFDF91CF9108953E
:101EF000CF93DF93CDB7DEB722970FB6F894DEBF4E
:101F00000FBECDBF9A838983A8E6B0E0E8E6F0E093
:101F1000808186608C93ACE6B0E0ECE6F0E08081F6
:101F2000806E8C93ADE6B0E0EDE6F0E080818068F5
:101F30008C9322960FB6F894DEBF0FBECDBFDF9113
:101F4000CF910895CF93DF93CDB7DEB722970FB629
:101F5000F894DEBF0FBECDBF9A83898322960FB659
:101F6000F894DEBF0FBECDBFDF91CF910895CF9320
:101F7000DF93CDB7DEB722970FB6F894DEBF0FBE62
:101F8000CDBF9A83898322960FB6F894DEBF0FBE29
:101F9000CDBFDF91CF910895CF93DF93CDB7DEB75B
:101FA00086E493E040E050E060E070E00E94F30DD2
:101FB0008DE593E040E050E060E070E00E94F30DBA
:101FC000DF91CF910895CF93DF93CDB7DEB7DF9147
:101FD000CF9108951F920F920FB60F921124CF93B5
:101FE000DF93CDB7DEB7DF91CF910F900FBE0F908B
:101FF0001F901895CF93DF93CDB7DEB7E0EAF0E0FE
:102000008BE28083E1EAF0E081E18083E8EAF0E0BE
:102010008FEF90E091838083ECEAF0E08FE790E02F
:1020200091838083EAEAF0E08FE790E091838083F8
:10203000E0E9F0E08BE28083E1E9F0E081E1808398
:10204000E8E9F0E08FEF90E091838083ECE9F0E045
:102050008FE790E091838083EAE9F0E08FE790E0FA
:10206000918380837894DF91CF910895CF93DF930C
:10207000CDB7DEB723970FB6F894DEBF0FBECDBF46
:102080009A8389836B83E981FA818B818083E981DB
:10209000FA811382E981FA8183E091E09683858356
:1020A000E981FA8184E08483E981FA811782E981F8
:1020B000FA8183E091E092878187E981FA8185E066
:1020C0008087E981FA811386E981FA8183E091E0D2
:1020D00096878587E981FA8186E08487E981FA819C
:1020E0001786E981FA8186E091E0928B818BE98104
:1020F000FA8187E0808BE981FA81138A89819A814C
:102100000E94EF2089819A810E94780F23960FB652
:10211000F894DEBF0FBECDBFDF91CF910895CF936E
:10212000DF93CDB7DEB724970FB6F894DEBF0FBEAE
:10213000CDBF9A8389837C836B8389819A81813027
:102140009105B9F48B819C812FEF8F3F920789F421
:1021500086E493E00E94400F8DE593E00E94400FDB
:1021600084E793E00E94B70F89E793E060E00E9464
:10217000361089819A81009791F48B819C812FEF91
:102180008F3F920761F489E793E00E94A20F8DE5EB
:1021900093E00E94C40D86E493E00E94C40D24964F
:1021A0000FB6F894DEBF0FBECDBFDF91CF9108957B
:1021B000CF93DF93CDB7DEB76FEF7FEF80E090E096
:1021C0000E948F10DF91CF910895CF93DF93CDB709
:1021D000DEB76FEF7FEF81E090E00E948F10DF911C
:1021E000CF9108958F929F92AF92CF92DF92EF920C
:1021F000FF920F931F93CF93DF93CDB7DEB7A297D4
:102200000FB6F894DEBF0FBECDBF9B8B8A8B7D8B44
:102210006C8B5F8B4E8B088F198F2A8F3B8FCC8EE8
:10222000DD8EEE8EFF8EA8A29AA289A28EEF90E09C
:10223000998B888B80E88F87EC89FD8980819181DB
:10224000A281B3818A839B83AC83BD83EE89FF899E
:1022500080818983EC89FD8980819181A281B3810C
:10226000181619061A061B060CF5EE89FF898081DF
:102270009927AA27BB27288D398D4A8D5B8DBC01F4
:10228000CD010E94BD29DC01CB01EC89FD892081B3
:10229000318142815381BC01CD010E94FE29DA01C6
:1022A000C9018F839887A987BA8708C0888D998DBF
:1022B000AA8DBB8D8F839887A987BA878F819885D0
:1022C000A985BA850097A105B10509F46FC0EE890B
:1022D000FF8981E08083EC89FD8920813181428101
:1022E00053818F819885A985BA85820F931FA41F7A
:1022F000B51F8B879C87AD87BE87888D998DAA8DEA
:10230000BB8D181619061A061B06C4F42B853C85CE
:102310004D855E858C8D9D8DAE8DBF8D821793070B
:10232000A407B5075CF4EC89FD898C8D9D8DAE8D7D
:10233000BF8D80839183A283B38328C0888D998DBC
:10234000AA8DBB8DBB23C4F42B853C854D855E8552
:102350008C8D9D8DAE8DBF8D281739074A075B0781
:102360005CF4EC89FD898C8D9D8DAE8DBF8D808355
:102370009183A283B3830AC0EC89FD898B859C85F8
:10238000AD85BE8580839183A283B383EC89FD896B
:1023900080819181A281B3817C018D018BA90E94F2
:1023A0008C1CB801A7010E945B1B07C0EE89FF8946
:1023B00080818F5FEE89FF898083EA89FB89808134
:1023C0009181A281B3810196A11DB11DEA89FB898A
:1023D00080839183A283B383EA89FB898081918181
:1023E000A281B38183709070A070B070EA89FB897C
:1023F00080839183A283B38388A1869599279C01CA
:10240000220F331FC9019695982F88279795879596
:10241000821B930B0E94AA0D8E83EA89FB8980811F
:102420009181A281B381880F991FFC01EB5CFD4F64
:10243000808191818130910549F48E81992780585E
:102440009F4FE9A1FAA1918380830BC08E81282F31
:1024500033278FE790E0821B930BE9A1FAA19183C8
:102460008083EA89FB8980819181A281B381880F71
:10247000991FFC01E35CFD4F8081918181309105C2
:1024800049F48E81992780589F4FE9A9FAA9918331
:1024900080830BC08E81282F33278FE790E0821B2B
:1024A000930BE9A9FAA991838083A2960FB6F894B9
:1024B000DEBF0FBECDBFDF91CF911F910F91FF9077
:1024C000EF90DF90CF90AF909F908F9008954F92B4
:1024D0005F926F927F928F929F92AF92CF92DF9294
:1024E000EF92FF920F931F93CF93DF93CDB7DEB799
:1024F00022970FB6F894DEBF0FBECDBF9A838983B3
:10250000E981FA81F688E981FA81A281B381E981C2
:10251000FA8100811181E981FA81E480E981FA81FF
:102520002289338944895589E981FA814584568411
:102530006784708889819A81FC01719689819A816A
:10254000BC01675F7F4F89819A810596FF92BF9397
:10255000AF934801AE2C69017A0193018201AF016A
:102560000E94F2100F900F900F9022960FB6F894E1
:10257000DEBF0FBECDBFDF91CF911F910F91FF90B6
:10258000EF90DF90CF90AF909F908F907F906F9063
:102590005F904F900895CF93DF93CDB7DEB786E479
:1025A00093E00E9467128DE593E00E946712DF912D
:1025B000CF910895CF93DF93CDB7DEB723970FB6B2
:1025C000F894DEBF0FBECDBF9A8389836B83898168
:1025D0009A816B810E94A61E23960FB6F894DEBFE7
:1025E0000FBECDBFDF91CF9108950F931F93CF936F
:1025F000DF93CDB7DEB726970FB6F894DEBF0FBED8
:10260000CDBF9A83898388E00E94241EE981FA81E4
:1026100091838083E981FA8100811181C801AA2711
:1026200097FDA095BA2FBC01CD010E94E1256B83D7
:102630007C838D839E83112384F420E030E040E886
:1026400057E46B817C818D819E810E94A623DC01F1
:10265000CB018B839C83AD83BE832DE534E741EBB7
:1026600050E46B817C818D819E810E94D323DC01AB
:10267000CB0120E030E040EA50E4BC01CD010E94F3
:10268000D323DC01CB0120E030E040E854E4BC017E
:10269000CD010E94F124DC01CB01BC01CD012696C5
:1026A0000FB6F894DEBF0FBECDBFDF91CF911F9163
:1026B0000F9108950F931F93CF93DF93CDB7DEB79C
:1026C00026970FB6F894DEBF0FBECDBF9A838983DD
:1026D00089E00E94241EE981FA8191838083E98147
:1026E000FA8100811181C801AA2797FDA095BA2F10
:1026F000BC01CD010E94E1256B837C838D839E8389
:10270000112384F420E030E040E857E46B817C81C1
:102710008D819E810E94A623DC01CB018B839C834B
:10272000AD83BE832FE23AEB48E450E46B817C81B9
:102730008D819E810E94D323DC01CB0120E030E01B
:1027400040EA50E4BC01CD010E94D323DC01CB015F
:1027500020E030E040E854E4BC01CD010E94F124C7
:10276000DC01CB01BC01CD0126960FB6F894DEBF8B
:102770000FBECDBFDF91CF911F910F9108950F93A1
:102780001F93CF93DF93CDB7DEB726970FB6F8949C
:10279000DEBF0FBECDBF9A8389838AE00E94241ECC
:1027A000E981FA8191838083E981FA810081118135
:1027B000C801AA2797FDA095BA2FBC01CD010E94A0
:1027C000E1256B837C838D839E83112384F420E039
:1027D00030E040E857E46B817C818D819E810E94CE
:1027E000A623DC01CB018B839C83AD83BE8322EFC8
:1027F00034E940EA5FE36B817C818D819E810E9498
:10280000D323DC01CB0120E030E040EA50E4BC01FE
:10281000CD010E94D323DC01CB0120E030E040E871
:1028200054E4BC01CD010E94F124DC01CB01BC01C8
:10283000CD0126960FB6F894DEBF0FBECDBFDF9157
:10284000CF911F910F9108951F920F920FB60F9283
:1028500011242F933F934F935F936F937F938F93A5
:102860009F93AF93BF93EF93FF93CF93DF93CDB736
:10287000DEB789E793E00E948421DF91CF91FF9139
:10288000EF91BF91AF919F918F917F916F915F91E8
:102890004F913F912F910F900FBE0F901F90189561
:1028A0001F920F920FB60F9211242F933F934F93C5
:1028B0005F936F937F938F939F93AF93BF93EF93A8
:1028C000FF93CF93DF93CDB7DEB789E793E00E9404
:1028D0008421DF91CF91FF91EF91BF91AF919F91B3
:1028E0008F917F916F915F914F913F912F910F90B9
:1028F0000FBE0F901F901895CF92DF92EF920F931B
:10290000CF93DF93CDB7DEB76B970FB6F894DEBFEA
:102910000FBECDBF6F83788789879A874B8781E009
:1029200090E09C838B83198211C08B819C819C01D8
:10293000220F331FC901880F991F880F991F820F1B
:10294000931F9C838B8389818F5F898399818B857A
:10295000981758F38B819C81AA2797FDA095BA2FD1
:10296000BC01CD010E94E125688F798F8A8F9B8FF2
:102970008B819C81992384F420E030E040E857E487
:10298000688D798D8A8D9B8D0E94A623DC01CB01F9
:10299000888F998FAA8FBB8F2F81388549855A855B
:1029A000688D798D8A8D9B8D0E94D323DC01CB01AC
:1029B000BC01CD010E942222DC01CB012AE030E0E3
:1029C00040E050E0BC01CD010E94DC29DC01CB01DC
:1029D0008A838A819927880F991FFC01EB5EFD4F3E
:1029E000C080D1800E9485070F2EFCE0EF2EF02DD5
:1029F00001E025E043E0B6010E949B028B819C81AF
:102A0000AA2797FDA095BA2FBC01CD010E94E12510
:102A10006C8B7D8B8E8B9F8B8B819C81992384F417
:102A200020E030E040E857E46C897D898E899F89F9
:102A30000E94A623DC01CB018C8B9D8BAE8BBF8BC0
:102A40002F81388549855A856C897D898E899F8932
:102A50000E94D323DC01CB0120E030E040E251E4CE
:102A6000BC01CD010E94F124DC01CB01BC01CD01F0
:102A70000E942222DC01CB012AE030E040E050E05D
:102A8000BC01CD010E94DC29DC01CB018A838A8153
:102A90009927880F991FFC01EB5EFD4FC080D18004
:102AA0000E948507EE246894E3F801E025E043E006
:102AB000B6010E949B028B819C81AA2797FDA0955D
:102AC000BA2FBC01CD010E94E125688B798B8A8BDE
:102AD0009B8B8B819C81992384F420E030E040E83B
:102AE00057E4688979898A899B890E94A623DC0139
:102AF000CB01888B998BAA8BBB8B2F81388549851D
:102B00005A85688979898A899B890E94D323DC0147
:102B1000CB0120E030E048EC52E4BC01CD010E9442
:102B2000F124DC01CB01BC01CD010E942222DC0199
:102B3000CB012AE030E040E050E0BC01CD010E9432
:102B4000DC29DC01CB018A838A819927880F991FB0
:102B5000FC01EB5EFD4FC080D1800E948507EE2412
:102B60006894E2F801E025E043E0B6010E949B0290
:102B70008B819C81AA2797FDA095BA2FBC01CD011E
:102B80000E94E1256C877D878E879F878B819C8142
:102B9000992384F420E030E040E857E46C857D859B
:102BA0008E859F850E94A623DC01CB018C879D87A3
:102BB000AE87BF872F81388549855A856C857D858D
:102BC0008E859F850E94D323DC01CB0120E030E07D
:102BD0004AE754E4BC01CD010E94F124DC01CB01A1
:102BE000BC01CD010E942222DC01CB012AE030E0B1
:102BF00040E050E0BC01CD010E94DC29DC01CB01AA
:102C00008A838A819927880F991FFC01EB5EFD4F0B
:102C1000C080D1800E948507EE2401E025E043E0DA
:102C2000B6010E949B0281E090E09E838D830E940A
:102C30008507FC01CE0105960F2EF7E0EF2EF02D53
:102C400005E021E041E0BC01CF010E949B026B96B0
:102C50000FB6F894DEBF0FBECDBFDF91CF910F91BD
:102C6000EF90DF90CF900895CF92DF92EF920F9385
:102C7000CF93DF93CDB7DEB725970FB6F894DEBFBD
:102C80000FBECDBF6A837B838C839D838A819B81AA
:102C9000AC81BD812AE030E040E050E0BC01CD01D4
:102CA0000E94DC29DC01CB01898389819927880F67
:102CB000991FFC01EB5EFD4FC080D1800E9485070B
:102CC0000F2EFCE0EF2EF02D01E025E043E0B601F1
:102CD0000E949B028A819B81AC81BD812AE030E009
:102CE00040E050E0BC01CD010E94DC29DA01C901BD
:102CF0002AE030E040E050E0BC01CD010E94DC2938
:102D0000DC01CB01898389819927880F991FFC01F8
:102D1000EB5EFD4FC080D1800E948507EE24689451
:102D2000E3F801E025E043E0B6010E949B028A81BE
:102D30009B81AC81BD8124E630E040E050E0BC01E5
:102D4000CD010E94DC29DA01C9012AE030E040E02F
:102D500050E0BC01CD010E94DC29DC01CB0189835C
:102D600089819927880F991FFC01EB5EFD4FC08078
:102D7000D1800E948507EE246894E2F801E025E006
:102D800043E0B6010E949B028A819B81AC81BD8198
:102D900028EE33E040E050E0BC01CD010E94DC2988
:102DA000DA01C9012AE030E040E050E0BC01CD0189
:102DB0000E94DC29DC01CB01898389819927880F56
:102DC000991FFC01EB5EFD4FC080D1800E948507FA
:102DD000EE2401E025E043E0B6010E949B02259627
:102DE0000FB6F894DEBF0FBECDBFDF91CF910F912C
:102DF000EF90DF90CF900895CF93DF93CDB7DEB7FC
:102E0000A3970FB6F894DEBF0FBECDBF88EC90E05D
:102E10009C8B8B8B0E94A607109276030E94FA0F60
:102E2000789480E00E948C1C48EE53E060E070E0F3
:102E30000E945B1B80E00E948C1C9C0189E598E14C
:102E4000BC01C9010E94351C80E00E948C1C0E94BC
:102E5000AD1B86E493E04CE950E06AE970E00E9423
:102E6000F70E8DE593E04CEA50E06AEA70E00E94CC
:102E7000F70E86E493E061E00E94D90D8DE593E0C2
:102E800061E00E94D90D8B899C89AA27BB2726E483
:102E900033E0AC01BD01C9010E94F30D8B899C890F
:102EA000AA27BB272DE533E0AC01BD01C9010E9473
:102EB000F30D86E493E06FEF0E94CE0E8DE593E074
:102EC0006FEF0E94CE0E86E493E044E650E060E0AF
:102ED00070E00E94790E8DE593E044E650E060E0FA
:102EE00070E00E94790E81E00E948C1C48EC50E05A
:102EF00060E070E00E945B1B81E00E948C1C9C01E2
:102F00008BEC92E1BC01C9010E94351C81E00E945A
:102F10008C1C0E94AD1B0E94DE1DCE0145966EE00A
:102F20000E94DA12CE0146966DE00E94DA12CE01BE
:102F300047966CE00E94DA12CE0148966BE00E9440
:102F4000DA12CE01499660E00E94DA12CE0149966B
:102F50009B8F8A8FCE0148969D8F8C8FCE0147968E
:102F60009F8F8E8FCE01469699A388A3CE0145965A
:102F70009BA38AA31A8A198A88EE93E09C8B8B8B79
:102F80008B899C89AA27BB27BC01CD010E943416DE
:102F90008B899C89AA27BB2726E433E0AC01BD01BD
:102FA000C9010E94F30D8B899C89AA27BB272DE5B7
:102FB00033E0AC01BD01C9010E94F30D84E793E049
:102FC0000E94F512DC01CB018D879E87AF87B88BFD
:102FD0008D859E85AF85B88942E0BC01CD010E94F8
:102FE0007C141C861B8612C01A86198605C089852A
:102FF0009A8501969A87898789859A858E36910563
:10300000B4F38B859C8501969C878B878B859C85EB
:1030100027E28A31920744F384E793E00E945A132F
:10302000DC01CB0142E0BC01CD010E947C1418867A
:103030001F8212C01E821D8205C08D819E81019655
:103040009E838D838D819E818E369105B4F38F8111
:103050009885019698878F838F81988527E28A319A
:10306000920744F384E793E00E94BF13DC01CB0195
:1030700042E0BC01CD010E947C141C821B8212C064
:103080001A82198205C089819A8101969A8389835F
:1030900089819A818E369105B4F38B819C8101964A
:1030A0009C838B838B819C8127E28A31920744F336
:1030B00085CFCF93DF93CDB7DEB70E9485070E94FF
:1030C000B800DF91CF910895CF93DF93CDB7DEB7EE
:1030D000DF91CF910895CF93DF93CDB7DEB72297DD
:1030E0000FB6F894DEBF0FBECDBF9A838983898166
:1030F0009A81009721F089819A810E9467292296FE
:103100000FB6F894DEBF0FBECDBFDF91CF9108950B
:10311000CF93DF93CDB7DEB722970FB6F894DEBF1B
:103120000FBECDBF9A83898389819A810E946B18D3
:1031300022960FB6F894DEBF0FBECDBFDF91CF91C0
:103140000895CF93DF93CDB7DEB728970FB6F894E5
:10315000DEBF0FBECDBF9E838D838D819E81009784
:1031600021F481E090E09E838D838D819E810E9479
:10317000C4289C838B8316C080918D0390918E030D
:103180009A83898389819A81009719F418861F820E
:1031900011C0E981FA8119958D819E810E94C42810
:1031A0009C838B838B819C81009731F38B819C81E5
:1031B00098878F838F81988528960FB6F894DEBF05
:1031C0000FBECDBFDF91CF910895CF93DF93CDB7E1
:1031D000DEB722970FB6F894DEBF0FBECDBF9A833D
:1031E000898389819A810E94A11822960FB6F8944A
:1031F000DEBF0FBECDBFDF91CF910895CF93DF9398
:10320000CDB7DEB72F970FB6F894DEBF0FBECDBF98
:103210008F83488759876A877B8780E091E09E8308
:103220008D838D819E819C014427552780E094E207
:10323000A4EFB0E0BC01CD010E94DC29DA01C90194
:10324000288539854A855B85BC01CD010E94DC2932
:10325000DA01C90189839A83AB83BC8389819A810E
:10326000AB81BC810097A105B10519F41F861E86AC
:10327000CCC08F81882319F08F81823069F48981D5
:103280009A81AB81BC818F3F9105A105B10521F0E9
:1032900018F01F861E86B9C089819A81AB81BC81D6
:1032A000803020E0920721E0A20720E0B20718F06A
:1032B0001F861E86AAC08F81282F33273D872C8723
:1032C0008C859D858230910509F44AC02C853D8509
:1032D0002330310554F48C859D850097C9F02C85E9
:1032E0003D852130310539F18CC08C859D85843038
:1032F000910509F45DC02C853D85243031050CF421
:1033000042C08C859D858530910509F466C079C0E1
:10331000A5E4B0E0E5E4F0E08081887F8C93A5E44B
:10332000B0E0E5E4F0E0808184608C93E7E4F0E0D5
:103330008981808366C0A1E8B0E0E1E8F0E08081A7
:10334000887F8C93A1E8B0E0E1E8F0E080818460C0
:103350008C93E8E8F0E089819A819183808351C061
:10336000A1EBB0E0E1EBF0E08081887F8C93A1EBF2
:10337000B0E0E1EBF0E0808184608C93E3EBF0E07F
:10338000898180833EC0A1E9B0E0E1E9F0E080817D
:10339000887F8C93A1E9B0E0E1E9F0E0808184606E
:1033A0008C93E8E9F0E089819A819183808329C038
:1033B000A1EAB0E0E1EAF0E08081887F8C93A1EAA5
:1033C000B0E0E1EAF0E0808184608C93E8EAF0E02C
:1033D00089819A819183808314C0A1E2B1E0E1E206
:1033E000F1E08081887F8C93A1E2B1E0E1E2F1E03D
:1033F000808184608C93E8E2F1E089819A819183F5
:10340000808321E030E03F872E878E859F852F9631
:103410000FB6F894DEBF0FBECDBFDF91CF910895F8
:10342000CF93DF93CDB7DEB723970FB6F894DEBF07
:103430000FBECDBF89838981282F33273B832A8301
:103440008A819B818230910509F465C02A813B8184
:103450002330310554F48A819B810097C9F02A8179
:103460003B812130310559F1B1C08A819B81843083
:10347000910509F47EC02A813B81243031050CF48A
:1034800061C08A819B818530910509F489C09EC005
:10349000A4E4B0E0E4E4F0E090818FE389238C932E
:1034A000A4E4B0E0E4E4F0E0808180688C93AEE6D0
:1034B000B0E0EEE6F0E0808182608C9387C0A0E807
:1034C000B0E0E0E8F0E090818FE389238C93A0E8FE
:1034D000B0E0E0E8F0E080818C7F8C93A1E8B0E080
:1034E000E1E8F0E08081877E8C93A0E8B0E0E0E83E
:1034F000F0E0808183608C93A1E8B0E0E1E8F0E047
:10350000808188618C93AFE6B0E0EFE6F0E08081E7
:1035100082608C935BC0A0EBB0E0E0EBF0E09081C8
:103520008FE389238C93A0EBB0E0E0EBF0E08081A7
:1035300080688C93A0E7B0E0E0E7F0E080818260F3
:103540008C9344C0A0E9B0E0E0E9F0E090818FE323
:1035500089238C93A0E9B0E0E0E9F0E08081806805
:103560008C93A1E7B0E0E1E7F0E0808182608C938A
:103570002DC0A0EAB0E0E0EAF0E090818FE389237B
:103580008C93A0EAB0E0E0EAF0E0808180688C9360
:10359000A2E7B0E0E2E7F0E0808182608C9316C0A1
:1035A000A0E2B1E0E0E2F1E090818FE389238C9327
:1035B000A0E2B1E0E0E2F1E0808180688C93A3E7D3
:1035C000B0E0E3E7F0E0808182608C9323960FB651
:1035D000F894DEBF0FBECDBFDF91CF910895CF939A
:1035E000DF93CDB7DEB723970FB6F894DEBF0FBEDB
:1035F000CDBF89838981282F33273B832A838A8102
:103600009B818230910579F12A813B8123303105FC
:1036100054F48A819B810097B1F02A813B8121304B
:103620003105C9F03FC08A819B818430910559F1F1
:103630002A813B8124303105F4F08A819B818530D9
:10364000910549F12FC0AEE6B0E0EEE6F0E08081F2
:103650008D7F8C9327C0AFE6B0E0EFE6F0E080818D
:103660008D7F8C931FC0A0E7B0E0E0E7F0E08081A1
:103670008D7F8C9317C0A1E7B0E0E1E7F0E0808197
:103680008D7F8C930FC0A2E7B0E0E2E7F0E080818D
:103690008D7F8C9307C0A3E7B0E0E3E7F0E0808183
:1036A0008D7F8C9323960FB6F894DEBF0FBECDBFEF
:1036B000DF91CF910895CF93DF93CDB7DEB72797F2
:1036C0000FB6F894DEBF0FBECDBF9B838A834C83B9
:1036D0005D836E837F83EA81FB8120818C819D8164
:1036E000AE81BF81AC01BD01822F0E94FE1889838B
:1036F0008981882351F0EA81FB818C819D81AE8193
:10370000BF8181839283A383B4838981992727967C
:103710000FB6F894DEBF0FBECDBFDF91CF910895F5
:10372000CF93DF93CDB7DEB722970FB6F894DEBF05
:103730000FBECDBF9A838983E981FA81818192810D
:10374000A381B481BC01CD0122960FB6F894DEBFEF
:103750000FBECDBFDF91CF910895CF93DF93CDB74B
:10376000DEB722970FB6F894DEBF0FBECDBF9A83A7
:103770008983E981FA8180810E94101A22960FB60E
:10378000F894DEBF0FBECDBFDF91CF910895CF93E8
:10379000DF93CDB7DEB722970FB6F894DEBF0FBE2A
:1037A000CDBF9A838983E981FA8180810E94EF1AD3
:1037B00022960FB6F894DEBF0FBECDBFDF91CF913A
:1037C0000895CF93DF93CDB7DEB723970FB6F89464
:1037D000DEBF0FBECDBF9A8389836B83E981FA81F7
:1037E0008B818083E981FA811682158289819A8191
:1037F00041E050E060E070E00E945B1B89819A81AB
:103800000E94C71B23960FB6F894DEBF0FBECDBF34
:10381000DF91CF910895CF93DF93CDB7DEB7239794
:103820000FB6F894DEBF0FBECDBF9A8389836B833A
:10383000E981FA818B818083E981FA811682158280
:1038400089819A8141E050E060E070E00E945B1B5A
:1038500089819A810E94C71B23960FB6F894DEBF18
:103860000FBECDBFDF91CF910895CF93DF93CDB73A
:10387000DEB724970FB6F894DEBF0FBECDBF9A8394
:1038800089837C836B83E981FA818B819C81968318
:10389000858324960FB6F894DEBF0FBECDBFDF91AF
:1038A000CF910895CF93DF93CDB7DEB722970FB6B0
:1038B000F894DEBF0FBECDBF9A838983E981FA8178
:1038C0001682158222960FB6F894DEBF0FBECDBFCA
:1038D000DF91CF910895CF93DF93CDB7DEB72297D5
:1038E0000FB6F894DEBF0FBECDBF9A838983E981FE
:1038F000FA8185819681009731F0E981FA8105800E
:10390000F681E02D199522960FB6F894DEBF0FBE12
:10391000CDBFDF91CF910895EF92FF920F931F9348
:10392000CF93DF93CDB7DEB721970FB6F894DEBF04
:103930000FBECDBF898389819927880F991FFC010C
:10394000E157FC4F808191810097A1F48981E82E95
:10395000FF2487E090E00E94A1188C016981C801D2
:103960000E94E11BC701880F991FFC01E157FC4F22
:103970001183008389819927880F991FFC01E157E2
:10398000FC4F8081918121960FB6F894DEBF0FBE67
:10399000CDBFDF91CF911F910F91FF90EF900895D0
:1039A0001F920F920FB60F9211242F933F934F93B4
:1039B0005F936F937F938F939F93AF93BF93EF9397
:1039C000FF93CF93DF93CDB7DEB785E00E948C1CC9
:1039D0000E946B1CDF91CF91FF91EF91BF91AF914E
:1039E0009F918F917F916F915F914F913F912F9117
:1039F0000F900FBE0F901F9018951F920F920FB649
:103A00000F9211242F933F934F935F936F937F9364
:103A10008F939F93AF93BF93EF93FF93CF93DF93D6
:103A2000CDB7DEB784E00E948C1C0E946B1CDF9136
:103A3000CF91FF91EF91BF91AF919F918F917F9126
:103A40006F915F914F913F912F910F900FBE0F900B
:103A50001F9018951F920F920FB60F9211242F935B
:103A60003F934F935F936F937F938F939F93AF9306
:103A7000BF93EF93FF93CF93DF93CDB7DEB783E090
:103A80000E948C1C0E946B1CDF91CF91FF91EF91E3
:103A9000BF91AF919F918F917F916F915F914F9166
:103AA0003F912F910F900FBE0F901F9018951F926E
:103AB0000F920FB60F9211242F933F934F935F9362
:103AC0006F937F938F939F93AF93BF93EF93FF93E6
:103AD000CF93DF93CDB7DEB782E00E948C1C0E94AB
:103AE0006B1CDF91CF91FF91EF91BF91AF919F91AF
:103AF0008F917F916F915F914F913F912F910F9097
:103B00000FBE0F901F9018951F920F920FB60F9235
:103B100011242F933F934F935F936F937F938F93D2
:103B20009F93AF93BF93EF93FF93CF93DF93CDB763
:103B3000DEB781E00E948C1C0E946B1CDF91CF914C
:103B4000FF91EF91BF91AF919F918F917F916F9175
:103B50005F914F913F912F910F900FBE0F901F904B
:103B600018951F920F920FB60F9211242F933F9327
:103B70004F935F936F937F938F939F93AF93BF9375
:103B8000EF93FF93CF93DF93CDB7DEB780E00E9432
:103B90008C1C0E946B1CDF91CF91FF91EF91BF9124
:103BA000AF919F918F917F916F915F914F913F91D5
:103BB0002F910F900FBE0F901F901895CF93DF930A
:103BC000CDB7DEB7ECE7F0E080E48083EAE7F0E031
:103BD00087E08083AAE7B0E0EAE7F0E080818068D0
:103BE0008C93EBE7F0E01082AEE7B0E0EEE7F0E0B8
:103BF00080818F608C93ADE7B0E0EDE7F0E08081ED
:103C00008F6B8C93DF91CF910895CF93DF93CDB7D6
:103C1000DEB7ECE7F0E01082AEE7B0E0EEE7F0E010
:103C20008081807F8C93ADE7B0E0EDE7F0E090819C
:103C300080E489238C93EAE7F0E01082EBE7F0E080
:103C40001082DF91CF910895CF93DF93CDB7DEB788
:103C500027970FB6F894DEBF0FBECDBF8C838C8143
:103C6000843098F4ACE7B0E0ECE7F0E08081982F86
:103C7000907E8C818F71892B8C93ABE7B0E0EBE762
:103C8000F0E08081877F8C932CC08C81883030F16C
:103C90008C818F3018F5ACE7B0E0ECE7F0E0808184
:103CA000807E8C93ABE7B0E0EBE7F0E08081877F2C
:103CB0008C938C8188508983ACE7B0E0ECE7F0E02E
:103CC0008081982F89818F71892B8C93ABE7B0E02D
:103CD000EBE7F0E0808188608C9303C01F821E8236
:103CE0002AC0AAE7B0E0EAE7F0E0808180648C9324
:103CF00001C00000EAE7F0E08081992780749070AD
:103D00001D82009711F041E04D835D81552389F7B5
:103D1000E8E7F0E080818B83E9E7F0E080818A8347
:103D20008A819927382F22278B819927A901482B2F
:103D3000592B5F834E838E819F8127960FB6F8940F
:103D4000DEBF0FBECDBFDF91CF910895CF93DF933C
:103D5000CDB7DEB723970FB6F894DEBF0FBECDBF49
:103D60009A8389836B838B818F3020F4E981FA8178
:103D70008B81808323960FB6F894DEBF0FBECDBF34
:103D8000DF91CF910895CF93DF93CDB7DEB7229720
:103D90000FB6F894DEBF0FBECDBF9A838983E98149
:103DA000FA8180810E94241E22960FB6F894DEBF0D
:103DB0000FBECDBFDF91CF9108950F931F93CF9387
:103DC000DF93CDB7DEB7E4970FB6F894DEBF0FBE32
:103DD000CDBF988B8F8781E08E871D861C868F854F
:103DE00098890E94C31E9B878A8780E090E0A0E0AC
:103DF000B0E08E839F83A887B98780E090E0A0E041
:103E0000B0E08A839B83AC83BD8319828981992723
:103E1000880F991F880F991FFC01E951FD4F2081E0
:103E200031818A859B858217930740F489818F5F52
:103E300089838981833118F01E8601C01E868E8594
:103E4000882321F78981882371F489819927880F34
:103E5000991F880F991FFC01EB51FD4F80819181C3
:103E60009D878C8792C18981833179F489819927D3
:103E70000197880F991F880F991FFC01EB51FD4F87
:103E8000808191819D878C8780C189819927880F46
:103E9000991F880F991FFC01E951FD4F0081118185
:103EA000C801AA2797FDA095BA2FBC01CD010E9499
:103EB000E12569AB7AAB8BAB9CAB112384F420E09A
:103EC00030E040E857E469A97AA98BA99CA90E942F
:103ED000A623DC01CB0189AB9AABABABBCAB898130
:103EE00099270197880F991F880F991FFC01E951A5
:103EF000FD4F00811181C801AA2797FDA095BA2F17
:103F0000BC01CD010E94E1256DA77EA78FA798ABCC
:103F1000112384F420E030E040E857E46DA57EA54D
:103F20008FA598A90E94A623DC01CB018DA79EA78F
:103F3000AFA7B8AB2DA53EA54FA558A969A97AA9E9
:103F40008BA99CA90E947523DC01CB0189A79AA7A4
:103F5000ABA7BCA789819927880F991F880F991F44
:103F6000FC01EB51FD4F00811181C801AA2797FD8B
:103F7000A095BA2FBC01CD010E94E1256DA37EA3BF
:103F80008FA398A7112384F420E030E040E857E4A1
:103F90006DA17EA18FA198A50E94A623DC01CB0173
:103FA0008DA39EA3AFA3B8A7898199270197880FF6
:103FB000991F880F991FFC01EB51FD4F0081118162
:103FC000C801AA2797FDA095BA2FBC01CD010E9478
:103FD000E12569A37AA38BA39CA3112384F420E099
:103FE00030E040E857E469A17AA18BA19CA10E942E
:103FF000A623DC01CB0189A39AA3ABA3BCA329A16F
:104000003AA14BA15CA16DA17EA18FA198A50E94B0
:104010007523DC01CB019C01AD0169A57AA58BA5B7
:104020009CA50E94F124DC01CB018E839F83A8878D
:10403000B9878A859B85AA2797FDA095BA2FBC01D1
:10404000CD010E94E1256D8F7E8F8F8F98A38A8589
:104050009B85992384F420E030E040E857E46D8D9F
:104060007E8D8F8D98A10E94A623DC01CB018D8FC0
:104070009E8FAF8FB8A3898199270197880F991FC9
:10408000880F991FFC01E951FD4F00811181C80182
:10409000AA2797FDA095BA2FBC01CD010E94E1256A
:1040A000698F7A8F8B8F9C8F112384F420E030E00E
:1040B00040E857E4698D7A8D8B8D9C8D0E94A623F4
:1040C000DC01CB01898F9A8FAB8FBC8F298D3A8D04
:1040D0004B8D5C8D6D8D7E8D8F8D98A10E9475238B
:1040E000DC01CB012E813F8148855985BC01CD0182
:1040F0000E94F124DC01CB018D8B9E8BAF8BB88F9E
:10410000898199270197880F991F880F991FFC01B2
:10411000EB51FD4F00811181C801AA2797FDA095A1
:10412000BA2FBC01CD010E94E125698B7A8B8B8B64
:104130009C8B112384F420E030E040E857E4698947
:104140007A898B899C890E94A623DC01CB01898B0B
:104150009A8BAB8BBC8B29893A894B895C896D8999
:104160007E898F89988D0E94A623DC01CB018A83EA
:104170009B83AC83BD836A817B818C819D810E94FE
:104180002222DC01CB019D878C878C859D85E4965E
:104190000FB6F894DEBF0FBECDBFDF91CF911F9158
:1041A0000F910895CF93DF93CDB7DEB724970FB665
:1041B000F894DEBF0FBECDBF9A8389837C836B8367
:1041C000E981FA818B819C819283818324960FB649
:1041D000F894DEBF0FBECDBFDF91CF910895CF938E
:1041E000DF93CDB7DEB722970FB6F894DEBF0FBED0
:1041F000CDBF9A838983E981FA8112821182229646
:104200000FB6F894DEBF0FBECDBFDF91CF910895FA
:10421000CF93DF93CDB7DEB722970FB6F894DEBF0A
:104220000FBECDBF9A838983E981FA818181928112
:10423000009759F0E981FA818381882331F0E9817F
:10424000FA810180F281E02D199522960FB6F8943B
:10425000DEBF0FBECDBFDF91CF910895CF93DF9327
:10426000CDB7DEB722970FB6F894DEBF0FBECDBF35
:104270009A838983E981FA81138222960FB6F89492
:10428000DEBF0FBECDBFDF91CF910895CF93DF93F7
:10429000CDB7DEB722970FB6F894DEBF0FBECDBF05
:1042A0009A838983E981FA8181E0838322960FB61C
:1042B000F894DEBF0FBECDBFDF91CF910895CF93AD
:1042C000DF93CDB7DEB723970FB6F894DEBF0FBEEE
:1042D000CDBF9A8389836B838B819927019729812D
:1042E0003A81880F991F880F991F820F931FFC0135
:1042F00037968081992723960FB6F894DEBF0FBEBC
:10430000CDBFDF91CF910895CF93DF93CDB7DEB7C7
:1043100029970FB6F894DEBF0FBECDBF9B838A836B
:10432000198266C0898199272A813B81880F991F4C
:10433000880F991F820F931FFC0135960190F08121
:10434000E02D8081482F5527898199272A813B813B
:10435000880F991F880F991F820F931FFC013496B5
:10436000808199279A0102C0359527958A95E2F7B1
:10437000C901817090708823E9F08981282F332743
:1043800038872F83EA81FB818081898739853323B0
:1043900011F081E0898749852A813B818F81988549
:1043A000880F991F880F991F820F931FFC01379662
:1043B00040831BC08981282F33273E832D83EA81C8
:1043C000FB8180811C82882311F431E03C832A81A7
:1043D0003B818D819E81880F991F880F991F820FC5
:1043E000931FFC0137968C81808389818F5F89833D
:1043F0008981843008F496CF198218C08981992761
:104400002A813B81880F991F880F991F820F931F64
:10441000FC0137968081882331F084E089838A818A
:104420009B810E94082189818F5F898389818430E3
:1044300028F329960FB6F894DEBF0FBECDBFDF91EB
:10444000CF910895EF92FF920F931F937B018C0100
:1044500020E030E040E05FE40E94AB2588237CF060
:1044600020E030E040E05FE4C801B7010E9475231E
:104470000E944A26605070408040904804C0C801A5
:10448000B7010E944A261F910F91FF90EF90089567
:10449000A0E0B0E0EEE4F2E20C941D2AFC016A0117
:1044A0009081923008F41BC1DB018C91823080F046
:1044B000943061F4843009F012C19181EB0189815B
:1044C000981709F40CC1E1E3F3E009C1843011F459
:1044D000FB0105C1823091F4923009F000C1EA017C
:1044E000DF0188E00D9009928150E1F78181FB01A5
:1044F00091818923E6018983F601F1C0923041F36D
:1045000062807380EB018A809B80E480F580068165
:1045100017812C813D814E815F815301A818B90814
:10452000C501B7FCABC080970CF457C08614970444
:104530000CF4BEC03401EE24FF2487019181FB01FD
:104540008181981709F4A6C0992309F49CC02E19FB
:104550003F09400B510B57FDB0C0E60119827B8229
:104560006A82F6012483358346835783E6012C81D2
:104570003D814E815F8179018A01DA01C90101978C
:10458000A109B1098F5F9F4FAF4FBF43F8F4E60118
:104590006A817B81A8019701220F331F441F551F99
:1045A0006150704079018A01DA01C9010197A109BE
:1045B000B1098F5F9F4FAF4FBF4360F3E6017B832D
:1045C0006A83F601248335834683578383E0D601CB
:1045D0008C9357FD39C0F60182C086149704B4F459
:1045E000C0E0D0E0DA01C90181709070A070B070B5
:1045F0005695479537952795282B392B4A2B5B2BBA
:104600002196AC16BD0671F78A0C9B1C68147904C0
:104610000CF094CFC0E0D0E05401A618B708D80140
:10462000C70181709070A070B07016950795F794CF
:10463000E794E82AF92A0A2B1B2B2196AC16BD0613
:1046400071F76A0C7B1C7ACFDA01C901B695A79580
:10465000979587952170307040705070282B392BBA
:104660004A2B5B2BE6012C833D834E835F838A813B
:104670009B8101969B838A83F60131C08827992705
:104680008A199B0950CFE21AF30A040B150BA801F3
:10469000970161CFE60199837B826A822E0D3F1DCF
:1046A000401F511FF60124833583468357838ECFE5
:1046B00020E030E040E050E041CF81E0E601898336
:1046C0007B826A8250954095309521953F4F4F4FA0
:1046D0005F4FF601248335834683578347CFCF014D
:1046E000EEE0CDB7DEB70C94392AA0E2B0E0EBE7FC
:1046F000F3E20C94252A69837A838B839C832D8330
:104700003E834F83588789E1E82EF12CEC0EFD1E85
:10471000B701CE0101960E94BC278E010F5E1F4F8C
:10472000B801CE0105960E94BC278A8991E08927AD
:104730008A8BAE01475F5F4FB801C7010E944822D4
:104740000E949A26E6E0A0960C94412AA0E2B0E0EE
:10475000ECEAF3E20C94252A69837A838B839C83A9
:104760002D833E834F83588799E1E92EF12CEC0E7F
:10477000FD1EB701CE0101960E94BC278E010F5E7F
:104780001F4FB801CE0105960E94BC27AE01475FBE
:104790005F4FB801C7010E9448220E949A26E6E0B6
:1047A000A0960C94412AA0E2B0E0E9EDF3E20C946B
:1047B000192A69837A838B839C832D833E834F835D
:1047C00058878E01075E1F4FB801CE0101960E94E7
:1047D000BC27F1E1EF2EF12CEC0EFD1EB701CE014E
:1047E00005960E94BC27898D823078F09989923095
:1047F00040F420E09A8D8A89981321E02A8BB70132
:10480000E9C0843051F4923061F020E09A8D8A89B9
:10481000981321E02A8FB801DDC0943029F482304A
:1048200041F761E373E0D6C0823079F3923009F347
:104830002D8D3E8D4F8D58A18D899E89AF89B88D64
:10484000222433242101AA24BB246501EE24FF2461
:10485000870160E070E00DC06F5F7F4F60327105CF
:1048600099F1880F991FAA1FBB1F56954795379539
:10487000279520FF19C0280E391E4A1E5B1E66248C
:1048800077244301281639064A065B0628F4E1E03E
:104890006E2E712C812C912CAE0CBF1CC01ED11E13
:1048A000A60CB71CC81CD91CEE0CFF1C001F111F46
:1048B000B7FFD2CFE1E06E2E712C812C912CE6282F
:1048C000F72808291929C8CF8B8D9C8D2B893C8905
:1048D000820F931F02969C878B871A869A8D8A89EE
:1048E000981711F081E08A87D7FE17C08B859C85C9
:1048F000A0FE0CC0569447943794279420E030E0F3
:1049000040E050E8222A332A442A552AD694C794F4
:10491000B794A79401969C878B8730E0A31630E06C
:10492000B30630E0C30630E4D30618F58B859C85CA
:104930000EC0220C331C441C551C019720E0A2160B
:1049400020E0B20620E0C20620E4D20680F4AA0CE1
:10495000BB1CCC1CDD1C57FEECCF31E0632E712C50
:10496000812C912CA628B728C828D928E2CF9C876B
:104970008B87D601C5018F779070A070B07080349E
:104980009105A105B10551F0AD86BE86CF86D88AC6
:1049900083E08987BE01675F7F4F1CC0A7FCF4CF0F
:1049A000211431044104510479F380E490E0A0E043
:1049B000B0E0A80EB91ECA1EDB1E80E8682E8FEF7D
:1049C000782E8FEF882E8FEF982EA620B720C82044
:1049D000D920DACFCB010E949A26E2E1A0960C946E
:1049E000352AA8E1B0E0E7EFF4E20C941F2A6983CE
:1049F0007A838B839C832D833E834F835887B1E1D9
:104A00008B2E912C8C0E9D1EB401CE0101960E941E
:104A1000BC278E01075F1F4FB801CE0105960E948B
:104A2000BC272989223008F46AC03985323008F45D
:104A300068C08A899A8589278A8B243009F463C0E3
:104A4000223009F460C0343041F41D8A1E8A1F8A66
:104A5000188E1C8A1B8AB40177C0323009F458C002
:104A60006B897C898B859C85681B790B7C8B6B8B18
:104A70002D893E894F89588DED84FE840F851889D4
:104A80002E153F054007510740F4220F331F441FE6
:104A9000551F615070407C8B6B8B80E090E0A0E0F4
:104AA000B0E4AA24BB24650160E070E02E153F0548
:104AB0004007510740F0A82AB92ACA2ADB2A2E1932
:104AC0003F09400B510BB695A79597958795220FF7
:104AD000331F441F551F6F5F7F4F6F31710531F7D3
:104AE000D601C5018F779070A070B07080349105A9
:104AF000A105B10589F0AD8ABE8ACF8AD88EB401EE
:104B000023C0B80121C03217D1F761E373E01CC0A4
:104B100084E0898BB40118C0A7FCEDCF21153105C5
:104B20004105510541F380E490E0A0E0B0E0A80E1B
:104B3000B91ECA1EDB1E80E89FEFAFEFBFEFA822B1
:104B4000B922CA22DB22D7CFCB010E949A26ECE001
:104B500068960C943B2AA8E1B0E0E1EBF5E20C94F6
:104B6000252A69837A838B839C832D833E834F839D
:104B7000588781E1E82EF12CEC0EFD1EB701CE0125
:104B800001960E94BC278E01075F1F4FB801CE011E
:104B900005960E94BC278989823018F42FEF3FEFD9
:104BA0000BC089858230D0F3B801C7010E945B2811
:104BB000282F332727FD3095C901E6E068960C942D
:104BC000412AA8E0B0E0E7EEF5E20C94282A9B0128
:104BD000AC0183E089831A8257FD51C0211531054C
:104BE0004105510539F482E08983CE0101960E9486
:104BF0009A264CC0EEE1F0E0FC83EB838A818823A7
:104C0000C9F1203010E0310710E0410710E85107EA
:104C1000C9F188279927DC01821B930BA40BB50BE4
:104C20008D839E83AF83B8872D813E814F815885C8
:104C3000203080E0380780E0480780E45807A8F675
:104C4000EB81FC81DA01C901880F991FAA1FBB1FE4
:104C500031979C01AD01803010E0910710E0A10771
:104C600010E4B10778F3FC83EB838D839E83AF83DD
:104C7000B887BBCF2D833E834F835887D5CF81E044
:104C80008A83ACCF60E070E080E09FECE3E02896A0
:104C90000C94442AACE0B0E0E0E5F6E20C94292A5A
:104CA00069837A838B839C83BE016B5F7F4FCE01C8
:104CB00001960E94BC278D81823061F0823050F0D5
:104CC000843069F48E81882359F52FEF3FEF4FEF41
:104CD0005FE72AC020E030E040E050E025C02F81AF
:104CE000388537FDF7CF2F31310564F78EE190E03D
:104CF000821B930B29853A854B855C8504C05695AC
:104D00004795379527958A95D2F78E81882361F04C
:104D100050954095309521953F4F4F4F5F4F04C0C0
:104D200020E030E040E050E8CA01B901E2E02C9612
:104D30000C94452A4F925F926F927F928F929F922E
:104D4000AF92BF92DF92EF92FF920F931F9320E0FA
:104D500030E040E050E0FC01E480F58006811781FE
:104D6000D1808081823038F4D801C701A061AF774B
:104D7000B0706FEFD9C0843009F46EC0823009F48E
:104D800071C0E114F1040105110509F46BC08281C1
:104D900093816FEF823896070CF06AC062E87FEF6C
:104DA000681B790B6A3171050CF080C0470158010E
:104DB000062E04C0B694A794979487940A94D2F7C9
:104DC00044245524320181E090E0A0E0B0E004C02A
:104DD000880F991FAA1FBB1F6A95D2F70197A109D7
:104DE000B109E822F9220A231B23E114F104010589
:104DF000110529F061E0462E512C612C712C8501A2
:104E00007401E428F52806291729D801C7018F77EE
:104E10009070A070B07080349105A105B10509F4BF
:104E200057C0D801C701CF96A11DB11D60E070E049
:104E30008030E0E09E07E0E0AE07E0E4BE0710F05F
:104E400061E070E027E0B695A795979587952A953C
:104E5000D1F7AF77B07068C080E090E0A0E0B0E03C
:104E60006FEF62C080E090E0A0E0B0E060E05CC086
:104E7000803891058CF7BC0161587F4FD801C7017C
:104E80008F779070A070B07080349105A105B10546
:104E9000A1F08FE390E0A0E0B0E0E80EF91E0A1F59
:104EA0001B1F17FD28C0D801C701CCCF60E070E000
:104EB00080E090E0A0E0B0E0CCCFE7FEF2CF80E46D
:104EC00090E0A0E0B0E0E80EF91E0A1F1B1FE9CF3A
:104ED000E7FC18C080E090E060E0E61660E0F606CF
:104EE00060E0060760E4160710F081E090E0BC0186
:104EF000D801C701A7CF16950795F794E7946F5F80
:104F00007F4FD1CFD801C701805C9F4FAF4FBF4FBC
:104F100060E070E08030E0E09E07E0E0AE07E0E4B3
:104F2000BE0708F48FCF8CCF282F392F9A2F9F7769
:104F3000842F8078892B962F9795992797958F772F
:104F4000482F492B6695852F8078862BD794DD24B2
:104F5000D7948F77582F5D29CA01B9011F910F91FE
:104F6000FF90EF90DF90BF90AF909F908F907F90D9
:104F70006F905F904F900895FC01DB01208131819B
:104F80009281492F4F7750E0991F9927991F83816C
:104F9000682F660F692B881F8827881FFD01818372
:104FA000662309F049C0211531054105510509F471
:104FB00070C082E89FEFFD0193838283220F331F2D
:104FC000441F551F220F331F441F551F220F331F2D
:104FD000441F551F220F331F441F551F220F331F1D
:104FE000441F551F220F331F441F551F220F331F0D
:104FF000441F551F83E08C932030F0E03F07F0E022
:105000004F07F0E45F0790F482E89FEF220F331F11
:10501000441F551F0197203060E0360760E04607C7
:1050200060E4560798F3FD0193838283FD01248396
:1050300035834683578308956F3F71F1862F9927F3
:105040008F579040FD019383828383E08C93220FDE
:10505000331F441F551F220F331F441F551F220F9C
:10506000331F441F551F220F331F441F551F220F8C
:10507000331F441F551F220F331F441F551F220F7C
:10508000331F441F551F5064248335834683578341
:10509000089582E08C93089521153105410551054D
:1050A00019F484E08C93089544FD02C01C92BECF95
:1050B00081E08C93BBCFEF92FF920F931F93CF931E
:1050C000DF93FC01DB018081823050F09C919230B3
:1050D00038F0843041F49430B1F08181882381F438
:1050E00061E070E04BC09430E9F18230A1F0923081
:1050F000A1F36181ED018981681791F0662381F345
:105100006FEF7FEF3BC0EB018981682F77278181AB
:10511000681B710933C0923059F560E070E02EC011
:1051200022813381ED018A819B818217930734F3B9
:10513000281739079CF0E480F58006811781FD016E
:1051400024813581468157812E153F05400751073F
:10515000A8F2E216F30604071507F8F6662309F02D
:10516000BFCFCECFFB018181882309F0B9CFC8CF53
:10517000EB018981882309F0B3CFC2CFCB01E6E0F0
:10518000CDB7DEB70C94412ACF93DF93AC010297E1
:1051900010F442E050E0A0919D03B0919E03FD0108
:1051A000C0E0D0E020E030E020C080819181841711
:1051B000950769F482819381209719F09B838A83F4
:1051C00004C090939E0380939D03CF0132C0481783
:1051D000590738F42115310519F08217930708F49F
:1051E0009C01EF010280F381E02D3097F1F621154B
:1051F000310589F1C901841B950B049708F4A901B5
:10520000E0E0F0E026C08D919C9111978217930702
:10521000E9F44817590779F4ED018A819B813097A9
:1052200019F09383828304C090939E0380939D031F
:10523000CD01029649C0841B950BFD01E80FF91FB3
:105240004193519302978D939C933AC0FD01A281A3
:10525000B3811097C1F680919B0390919C03892B99
:1052600041F480913B0390913C0390939C03809385
:105270009B0320913D0330913E032115310541F4FC
:105280002DB73EB78091390390913A03281B390B13
:10529000E0919B03F0919C032E1B3F0B24173507D5
:1052A00088F0CA0102962817390760F0CF01840FF1
:1052B000951F029690939C0380939B034193519377
:1052C000CF0102C080E090E0DF91CF910895CF93AD
:1052D000DF93009709F44EC0EC0122971B821A82DB
:1052E000A0919D03B0919E03109711F140E050E012
:1052F00001C0DC01AC17BD0700F1BB83AA83FE012E
:1053000021913191E20FF31FEA17FB0771F42E5F31
:105310003F4F8D919C911197820F931F99838883A2
:10532000FD01828193819B838A834115510559F444
:10533000D0939E03C0939D031DC0FD018281938184
:10534000AD010097B1F6FA01D383C2832191319167
:10535000E20FF31FEC17FD0769F42E5F3F4F8881C2
:105360009981820F931FFA01918380838A819B81A7
:1053700093838283DF91CF910895629FD001739FC1
:10538000F001829FE00DF11D649FE00DF11D929FE1
:10539000F00D839FF00D749FF00D659FF00D992720
:1053A000729FB00DE11DF91F639FB00DE11DF91F44
:1053B000BD01CF0111240895A1E21A2EAA1BBB1B27
:1053C000FD010DC0AA1FBB1FEE1FFF1FA217B307D1
:1053D000E407F50720F0A21BB30BE40BF50B661FE7
:1053E000771F881F991F1A9469F7609570958095AB
:1053F00090959B01AC01BD01CF01089597FB092E4B
:1054000005260ED057FD04D0D7DF0AD0001C38F493
:1054100050954095309521953F4F4F4F5F4F0895E0
:10542000F6F790958095709561957F4F8F4F9F4FC0
:1054300008952F923F924F925F926F927F928F9238
:105440009F92AF92BF92CF92DF92EF92FF920F9313
:105450001F93CF93DF93CDB7DEB7CA1BDB0B0FB61D
:10546000F894DEBF0FBECDBF19942A8839884888CA
:105470005F846E847D848C849B84AA84B984C88470
:10548000DF80EE80FD800C811B81AA81B981CE0F67
:10549000D11D0FB6F894DEBF0FBECDBFED0108954C
:1054A000EE0FFF1F0590F491E02D199411E0C6E175
:1054B000D1E004C0FE010E94522A2296C831D107D1
:0454C000C9F7FFCF5A
:1054C4000F070E060D050C040B030A020901080060
:1054D400011A03340845024F02590263026D027730
:1054E4000281028B0295029F02A902B302BD02C788
:1054F40002D102DB020000000001000100000001F3
:105504000001000000070005000500050007000277
:105514000006000200020007000700010007000463
:10552400000700070001000700010007000500054F
:105534000007000100010007000400070001000744
:105544000007000400070005000700070001000130
:10555400000100010007000500070005000700071F
:10556400000500070001000700070005000700050B
:1055740000050004000400070005000700070004FC
:1055840000040004000700010001000700050007F3
:1055940000070004000700040007000700040007D8
:1055A4000004000400C80029022C01B0019001523B
:1055B40001F40108015802DE00BC02BF002003A66A
:1055C4000084039300E80383004C047600B0046C69
:1055D400001405630078055E00DC0559004006539D
:1055E40000A4064700080748006C074500D007459B
:1055F40000000000000000000020009F03000000E5
:00000001FF
