:100000000C94DB300C9405310C9405310C940531C3
:100010000C9405310C9405310C9405310C94053188
:100020000C9405310C9405310C948C330C94B23340
:100030000C9405310C9405310C9405310C94053168
:100040000C9405310C9405310C9405310C94053158
:100050000C9405310C9423780C9405310C940531E3
:100060000C9405310C9405310C9405310C94053138
:100070000C9405310C9405310C9405310C94053128
:100080000C9405310C9405310C9405310C94053118
:100090000C9405310C9405310C9405310C94053108
:1000A0000C9405310C9405310C9405310C940531F8
:1000B0000C9405310C9405310C9405310C940531E8
:1000C0000C9405310C9405310C9405310C940531D8
:1000D0000C9405310C9405310C9405310C940531C8
:1000E0000C940531EFC1FFDE7BFFFFFFFEFBFFFF3E
:1000F000F7FE7FFFADFCFFFF811473D03144F48D18
:10010000AFB5D6DE7B2FCE39EFFE4729E4EB5BEDB2
:10011000C5FA9BA4944AE82084103AA6888D6DB550
:10012000D6DE7B31CE7A7F510E2AE3DF4AEDCD3C1D
:1001300018A5524A092184CE295F635BADB5F75EED
:100140009C771FE69C63C4BE94D68BB72F28A994D6
:10015000944AE91813F4BDF7DE6BADBDB90F8350B7
:1001600021BF6B5CE9AC378793544207A594900993
:10017000FBDA9BB5B6B5D6CC0B3A8567DD4BB13310
:10018000D2FB8D52A70CA39642C3679CB7DFB7CEB4
:100190008AB5203EDF2CCE327A4E7AB938C71CA4FD
:1001A0009442A614537CB617735E25BD5A109FB1B6
:1001B000260B792BE9D5E41C739452A98C8250F15B
:1001C000D56E5F3AA4568F12EECD44217E67C55B93
:1001D0009473144BA80C72D409DA6A62CC85F46E5D
:1001E0002172D51F25716DB53867B1D44AA6187331
:1001F000D2195DE76FC8A77062FDFDC5DFA0A3ED52
:10020000A5D562AF964A871843CE21C3EF5E0C4254
:10021000115EDC45BF7B1C44AEADD4668E584A8867
:1002200010338A29E4631CD22A31DE3C48B6992077
:10023000346AAD366F82984A888C40CE2902DF7FBF
:100240009891D2E651BCD5FEA85FEBBC9B8FA494DD
:100250004265FC6F0E2AD7F2B4108D1707B3B116A2
:1002600029113BE9DDE4A094122ABFF3920EC1D616
:10027000B05325BDA1849D375124C769F54009219C
:1002800074CEE0FA1B9438EE2AE119ABFE65F0FD5E
:10029000111214D6DC9142C71C637ED61DA9137EB1
:1002A0004A3C4A7A3D2925FC633C85F4F6A3D429CF
:1002B000A414B1B54709FDAE8E9592E23F8AF9A12B
:1002C0000C3EE3C43FAD64C818467CCE4F4206A145
:1002D0002F25ADFA0B530619FDCE48B3572B19F253
:1002E000C318640C93D049E8464AAF0FC6882FBEA6
:1002F000AE90DA6CD64AE5F7404C21831C84D4A139
:1003000072D6FDCB215FFB9D2BAC77A3A510F9DC4A
:1003100017840E19C5A425689C16FF82CEDF3A67A4
:100320002BA9D5682D44FEEE04A153082127892965
:1003300067C5DF20F3F3BD18DB7AF9690B99AFBB12
:10034000402A9912FE283FCE59F127E8847DEDBD61
:10035000F6E28DD64AE6EF1D9052C98CDF039794E2
:1003600052AC034226606BADBD799BB5D4199FF3A7
:10037000829642667CDEB7A4B45EFD0D3262DB5A23
:10038000EBCDBD2CA550F97B0FB45632C36B7D6706
:10039000B515E75D4C29FCDA592FEE67A96484D7BF
:1003A000DC24A690115D6B5D69A516EB5F8C19D9F5
:1003B000CE6AF12F4AA943BCDE4531954CE87BFF5C
:1003C0008EAB9CF6E6408CF9DB527BF13F4825432F
:1003D000B8FE653585CCDFBC1313B294D4DE1D4660
:1003E000215EDF6AAF1627A55346FF263186CEE091
:1003F000BB93838AA772D69BFB2724706CEDDD0329
:10040000257448F8DFA4A5D221A1F3605242E1CEC1
:100410005A2DCE9CEF7CEDC5D99393D031E4876102
:100420005242A7FCFFFF40081D12B4A5D6DA7B2F6D
:10043000BE1767BDB9EF7F9473CE21430C83D231D1
:100440008314731032C3FFFFFFDFD64E5AEDC55A37
:10045000EB8CF1C59AF3FFFFFF0629850CF96214B6
:1004600084CAF0596B4150117AE79CF3ADB4DA7B42
:1004700031CE17639C33FFC698320839299D320864
:1004800021E510E12FDE82A01370D6BA17A22DADA0
:10049000F6E68CEFB51767AD37E73E98724829A5A9
:1004A000246448F0FF976346BF38E76E08E93F6B66
:1004B000ADB5ADF7627CAFBD18E39C73C6FA0B8295
:1004C00088106318A3D031849452C4E8FFFFACF5C0
:1004D000D6DA626C2FC6DB73BEB1C518E3BCB5E7D4
:1004E0001CE79C73E75CFCFF4F2985FBFFFFFFFFC8
:1004F000FF74F8BFF4F2BDC7F11F6BADB5D65AEB70
:1005000011FEFF975E8C73EE7B6BADB5D6F7EE31C7
:100510008431A5F4EEFFFFFF7F638CC7F9677BF79B
:10052000DEBBDA3C8608F6DE6052C939FFA06FAD4B
:100530001863326AB598738C31C69C638CF71622A7
:100540007C53BEFFBFFC6C2FE6635F8C85113AEBDA
:100550006F82BD770BB1B50EE16BAD4308FFFF9C19
:10056000EDC51C638C39DF7B8BF0FFFFFF5F1C4206
:1005700008FF526D2FE67C0BA1B3B6170F61CCF7C5
:10058000FEFFFFFFFFFF5F9C73A536CA6A5AF25752
:100590001324ACE5C77CAC4F1AFA7A427ACEDFFC62
:1005A0006C39F914523B5832BF980A3352A362C2D5
:1005B00050AED8A48031392557FD89B8D48E327217
:1005C0003ECAECBB91C9161B342A26E7E0FBC728BC
:1005D0009E18724E11F8EA6DEFD5E1672DC6D099DD
:1005E0001391AF3686EB3E4CC9F91793B138045FCF
:1005F0006F08C7BAA080FF2881EB71FE27270DFD89
:1006000073DEB66A8E2FCEF9E67B7BBE587FF1B3E0
:1006100051E9FB724EE784EC9C89C7588B9D75F9B4
:1006200096523A25A5D6DE8BB3F6811894143AE794
:100630002074CC41091973503A8598524AA890D633
:100640007BEFC5BBFBFECB31FF5EACEFC5DD20749D
:100650009262E99C949021A29822F62E884358B386
:10066000C6D6EE51BEDE26954D2BCED8627E143214
:10067000262D854A41099551523A8498532C8C3540
:10068000676BF14767EC3ECCAF93E28C333749A1FF
:1006900063CC39A61884103A2825640CF97F5308D6
:1006A000A5DDF8E6C212D118EB4CA9CD7D848F549C
:1006B0004284EF600E4A09A594523A868CFFFF1FD0
:1006C00016467A05D1B7235432A557637C33396671
:1006D000FC2E4E197C7F9352420821644C29C6108F
:1006E0001184F9124E9B0DC1F7A384F2A4356F8DCE
:1006F000B741A870AC85294173C4563AC698630ABD
:1007000039082564C44019C27A35297EF781909E44
:10071000B25E4F4631281D6EADDDC694419052A8A1
:100720000C51CE39A69894D2F99CDF0921C54A1103
:10073000AFF53036CE8A0942A7884174A5559B94FF
:100740000E11E618E27930079D73504A6770BEF1CA
:1007500084B3FEA58AC638774B27CD6429447EE74B
:10076000D8D29AC962C9F4CDBDF8FD1BA41232C615
:100770009C53C6EF5D5B482D3EA9F86BB1C6955200
:100780005CD65287EB9CF1AD57A0C552D117F32F21
:10079000883929A1630631079D1282A6505E4C8ECE
:1007A00019F95EAD6DAD7624958ECF19638C6F47C8
:1007B0008A21C1EFD57E1473D252C890400E42A751
:1007C0008CC1299417975344BE57E76A2B264AA534
:1007D000D333BE586BDDCB628A745CF11EC59CA31B
:1007E000563AE50B83103AA5908E61ACF89B3334F2
:1007F000BE97E37B2D2F4C21D32FC69A77DE4D4A2F
:10080000CA6C5CADFEE524845242A610835042C6F9
:100810001822F484B2E292D2C0B5DEAF6DA5D7B48F
:10082000A690AE16EBCE751607A9E3F5BD99076243
:10083000CC41089D638A39E7A0734EF9FB4E082925
:100840004EAA745B6FFEB7D68ACF62CA888B73E6F6
:1008500019E35E0C42C3EF8C33F7DF9893D031C6B7
:1008600098738C31C71C43FEC654D27A39095EE7AF
:10087000ACFBB6D6DA5ED24A67ECBDF3C6F762FED1
:10088000CD4287707CEFFEC418B494520919634AB4
:100890003907215302CFB7C659EFFE7B63CC3B1912
:1008A00097D68A8551E91C114A11FFD67AF3E6E7FB
:1008B0001864C4EF9D6BED3F6A6BAD848E3163901D
:1008C000528C2961F04C21B5F7E68C31C69CFBCFE8
:1008D00035BEF913734A29641854C6DF5AE38BF501
:1008E000DE5AF7724C41611874945229A194103A5F
:1008F000C718538C2143685CB1BE94D26A2DCE17C1
:10090000638CF1E6BDFFDFC74108A153CC39E79CFA
:10091000534821FF7B9D2DCE790F42C638E82C85A8
:10092000D041282574CC2945707E71CF75525B6DFE
:10093000CED8627BB1EEDF7BDF395129A163CC4198
:10094000099532C40F6490B0F3CD39E7BC73DEA2D1
:1009500024A610422825848E31E618F3B9BD3A5BEF
:100960004A6BADF6E27BF1BD7873CE37DF9D9C8498
:10097000D0310521859029FF0B53C4DF3AE7DD3BD9
:10098000D7396F4F8C31E69CA4544AE81873D0399C
:10099000E4E37B75BE76CE39A9B5D5DA7BF1F69F57
:1009A000F3BD3741091D630C4A2A1D53C21FC68C73
:1009B000BF77D6DAF39D73DEFC9342483928A584CD
:1009C000CE39E89C638A3184F46D31C6D5D25A6938
:1009D000B5D75E7B6FCEDC7BBEFB272721644A3117
:1009E00007A163C8208498527AC6396BADB5BD772C
:1009F000FB418A31E6A4A41442E720848E31851499
:100A0000537EB7B75E7C6DA5D5DA8B33BE17E3BDD9
:100A10007BF87FEF41904AA81473504AC8103148C0
:100A200031C57C7C31D69CE37B6DF6629051CC491C
:100A30006AA184CE390721638A31C6102272AEF5CD
:100A40005E6B69B5F65E8C31BE3867ED39E7BD93F4
:100A500092103AA718835442678C418A3186647D8C
:100A600073D67C677BAF1E6198424C524BA584CEF7
:100A700039E720630C29A590F2F9A5D4DE6B6BB59C
:100A8000F65E8C31C618E3CDB9FFDF0762504A0825
:100A90009D73CE39E79C534C2122049E33BE18E748
:100AA0009C33D69B7F73525229A1841242E79873DC
:100AB0004C31C69432BCE7D8565AEDADD55A7B2F8F
:100AC000BEF8629C73D69AF3FE4731072184104228
:100AD000E8A073CE39C6944244F87D6B9CF3C518E8
:100AE000EBCCB717E5A094524A2921840E3AC618D8
:100AF000534C214488F177C696D26AADADD6DA7BE5
:100B0000EFC5F8E28C73D69B77FF493108A19310AB
:100B10004A081D738C31A614424819E273BE73CE85
:100B200039E79CF92FE72495524A092184D039E707
:100B300018534C296404EF37BED8566AADB5D65A5F
:100B40007BEDBD17E38B71C639EBCDB917A4988344
:100B5000104A0821740E3AE61C530A192288EF390C
:100B6000E79C73CE79F8FF1B94103A292584103A3C
:100B7000081D634A21A5901144E8FADA6BADBDD691
:100B8000DA6BEFB5F6DE7BF1C5D85E9C71CE5A6BA1
:100B9000CEBF20E620941042082174CE39C71863D6
:100BA0004A31A61432C8208494524A31C5A073CE6B
:100BB00039069D730E42E71853CA204178CD37BEDF
:100BC000D85E6BEFBDF75E7BEFBDF7DE7BEFBDF868
:100BD000628C31C61967ADF7E63F10620E4208A578
:100BE00084103AE79C638C31C69C638C31A7145304
:100BF0004A29C518638C31C618638E41A814638EC8
:100C00003163FCFFF5C5D85E5BEFBDF7E27B31BE1B
:100C100017DF7B2FC6F8628C31C618638C31CE5932
:100C2000EBBD37F7619462D0410921740E4A089DEB
:100C300073CE31C79C638C31C61873CC39A79462CC
:100C40008C31E69852CA39C694310621E46B9D2F47
:100C5000C638575BADBD17E38BEFBD18638C2FBE55
:100C600018679C31C618E78C31C639EBAD75D6FCD8
:100C70007BF1FF27E424748E41079D73CC31C71CA0
:100C800074CE41E89C830E3AE79C73CE39C6146358
:100C90008C29C518F273CE7BF39C33BEF6DE7B2F16
:100CA000C6395F8C31D6396B9D75CE396BDDB5CECB
:100CB00039E79C73CE39DB8BB1C5F65E8C31C61833
:100CC000EB9C73CE18E39C73D65A6BCEFF2FA41403
:100CD00074CE39E89C945242E814638C31E89C73DA
:100CE000CEE09DFBBE39E73BE79C71E61BE79CF13C
:100CF000BD58672EC2DFFC629C71CE39671E7E082C
:100D0000E1FFFFFFFFFFFFFFFFAF935A7B31BE17ED
:100D1000638C33C619EB9C31C65867BEB7EF62F3DC
:100D2000BDF7DE7B8B1F7EC039E770944AC6182161
:100D30000619E80C4208FF3967ADB5BE17639C730E
:100D4000EE7CEFF1FFCF398BFF0532C618EEBDF711
:100D5000FFFFFFFFFFFFFFFFFFA7D25ECCC7F92118
:100D6000FCFEFFBFD25E8CF7EF5967BE2FC618633B
:100D70008C31C6EFA1A5903AFF739BE9A5B7E27B42
:100D8000EFBD175F9C7B10FD9FA3145A2AA57444E6
:100D900086D6EE513CAE378FE06BC5FC979E7B4804
:100DA0004BADA5D45A26CBCB0D3A65E0DDB3BD598A
:100DB000737C6DF6015B9B89620925A5D442795E3F
:100DC0007C1212E1F64FBAA0556B6CEDD539DBDA27
:100DD0004731C624D59A630B4B7AB94A4774BDB5DF
:100DE000B537EB7F6DC579E76BF120C51CB51653A0
:100DF0006A296DEBD545A5E231C6D8EF7BEFCDFA78
:100E0000878DAFC5C420740E528C35D7109D148FBA
:100E1000A5D0CF17E7EFF3B517EF507EAED36673CB
:100E20004E2127A9B51A5B784EAB534A63DF8BBDC1
:100E3000DFD75AACFB181ACF6AF72FE89C83D65A33
:100E40004C714BA9D547A17F27AD3A5B5BEDC5BA85
:100E5000F3AD6BBD781B634C414935C7AE84F41EBE
:100E6000B54AB7B56A9DF1B517F34F48B1B4E29DE5
:100E7000524AE824D55A0B76464BD24A255F9B75D9
:100E8000D6F962ACFD28A5E77BB34F492584926A69
:100E9000CD640AA5358BA182ABC559EB7C31DEDF71
:100EA00018C3B1BDF924B5544A8935367094F4A3FA
:100EB000A6D0CFD65EAD75CE59F7418CE0D9DE4EC7
:100EC000D05A2AA1B416D136D6FC1143A4DF6A2D1C
:100ED000C659EBACB920C5E358ED376DA994104263
:100EE00082DF59F3262BA1C1ADB516E3BC7B0FA35E
:100EF000948E29ADFB23B7964A08857D69B55CA41D
:100F0000844AD0D5567B71DE7F98523EB6B3E65EFA
:100F10001A5B2A257478A6D56A5F5432A55B6BAB41
:100F2000BD38FF50CE11FCCE6A77588B299510FA48
:100F3000FBD29AF54F099D91AFADD65ECC3F39E714
:100F40000C5E6BC53B29B6944A887C4DABCDFBA0AB
:100F500084CED0B8566B2FEE1F1D54C6AED5E29D81
:100F600054532A252478AD15677E103A46E74B6B1B
:100F7000B557EF7F9021BDD67A7341AA299512F912
:100F800099569BF741099DCFB1ADB5DEBC3F42C933
:100F90000C6CABC5C2A8B6544A66F05A2BD6E524F1
:100FA000748CD7D6D66AEFF6082553F2ADF6669361
:100FB0009A522925F26DAD37EF9314329FE75A69A3
:100FC000B57917844EF9B6568BC5496CA9948CD067
:100FD000945ABC0D42C87C9E6BA5B5E2FD0F3AC485
:100FE000D75A2D0E26B1A5523A44D35AF136081DD0
:100FF00053B6B675D68AF547E8885E6BBD3793B3AE
:10100000D45229914DABC5FA23648CE9DAD639ED77
:10101000E5FF9C13BAAED5DE3C8E6A4AA96444A6AD
:1010200015EB8E1032A68C5DA9AC96FF710E09FDF2
:10103000DA6AEF37A92D9512329F569BF530C71407
:10104000744AAD94D6CC4329C7947C2BB55798B538
:10105000965209996B6DD6BA93738C4ABB526A2F1C
:10106000D65F0C848EB6F55EFECD5A4D29844CB603
:10107000576B7C894928A18FE9BDB6DE1DCC39614B
:10108000638CADC5472DA6524A47588B33B6FB1B20
:10109000831412D65A5BEDD57F1C5338E7D7EE8107
:1010A000D65A4DA97434DEFBCE9A4B31071532FE69
:1010B00085D46EADBD30C694C0331FFF3FD6944A71
:1010C000876C7E27C5BBEF7D943A86DC6AADAD3771
:1010D0001753CA3127788D3F6A8AB585C8E7BDCED8
:1010E0008A33E62321744EC1B6567AF3FEFF2454A8
:1010F0000A117BFFA2D85B6A843134B457E7CB076F
:1011000032C798916DA456EB9C7F42A51C5386185C
:10111000853196103147D379F3B57714530E3A03DE
:101120005B5A2FB6FA1B320C53A51C744E522B99E6
:10113000614A9D37676AB521E1A42234B6B4D67AF4
:101140003DD701A9735242E520950E19C76478393D
:10115000A6D7879C5332FA7F3BEFBDF66EFECD419A
:101160002A1D84D0392A114110A755D75985C09A14
:1011700028F2CFB115E74AF1DEFBA784924AE8A036
:10118000840E2AC56C5BB38D5673CCCDE9011D6D01
:10119000F78636EFAC7F31482D84523A2821348AC5
:1011A000C115E33AAFBEB8983190F27B744B6FB67D
:1011B000F70781944A49218412428794622FB6D45A
:1011C000627CB71023254448D0D65E6BF1DE3FA584
:1011D000B5544A0921944E29E5DE5BA9BD176BFF82
:1011E000FF39A7989F31B6F5E6AC3F4A6C29955276
:1011F0004AC89863BEBE73D66A2DCE7B7F418829CC
:10120000E1776BEFB5797FA3D8524BA584102ABE46
:10121000F75A2BADF5629CF9EE9F0852C8FF9C630C
:10122000FECB616D31A5543AAA145F2E9E975A7B6E
:101230002FC63AF3FEFF206698413E2126ADA598C1
:101240005A491985CE1F78534C6DBD16E39CF5F6AF
:10125000FD8F524C1983189354624BADA4D04904AE
:10126000FD822FADD5DA7B31CEB9F73F8A31E698D2
:10127000638C414929B592520919358E17B7D64B5F
:10128000EDBD16E7ACB9FFA21462CC18E48F82D092
:101290005A4B29A55251C7EC4EF1BCD5DA7B31D659
:1012A000B8F3F0C928C51021061F25A5A694522A17
:1012B000A5A306D1D9627AA9B517E7ADF30FC41C6F
:1012C00073CA29A590724E4A6BA595543A8A944DDB
:1012D0006AA697DA8BAFC65DF33FCA31C714327E78
:1012E000F9C7A0A498524AA95454307BD43B6DBD91
:1012F00017638DB9FE7F94238C307B6C8E8B486A8C
:101300002DA5944A4589C205B5F4D27BF1E579FB58
:10131000E08B31A488F1C7E79F24E5945A2AA5649D
:10132000D4117C506C6DBDF6E2ACF916BF94424806
:10133000F9FFF3FE07528DADB4923A06956136B5CA
:10134000775A7C31D6F9FF4F4A298488DFF9F601B4
:10135000A5D51653491D938C26615A4C2BBE57EBCD
:10136000BCFDFEE47FC2B7CE387372525B8A29851A
:101370004C3A840F4AAFAD5663AC73DEDDFFDFFF3E
:10138000BE5CDBEEBB596D2DA6D2498774B3ADCDE3
:10139000D2E27B75DE5BE7B1F31076FFAC114A6BEE
:1013A00029A65442081541B2C5D75A8C33CE9FE7BF
:1013B000FF31D65C63FFCD594E31A5D241E974228D
:1013C000AACDF6E28B37D6BFDBACABBD17E39B05EE
:1013D000416BADA51042E6FF9E69B5F6DEBCB5FED9
:1013E0003C5F6CADBD17632D0C5A6B3184120AFF44
:1013F0006F6C2DCE5887BF3DD1FBD26AABC578FF4D
:10140000A2D6620B2174C8101D5F9BB5E6C28C1278
:1014100044C795565BADE61FA5D5544AE89011FA2E
:10142000B536E7CC7F21E40F7E69B5B6DACCBD498D
:10143000ABA59410199FE75AAFCE988F4246392535
:101440005B8D6BC5BD87D51842EA90DFF9B5F6E232
:101450007BF7088210F3F727B55EBE45622B219516
:101460003EE7D8DA7AB1B5FD732FCAF8BDA09B0D5F
:10147000E987B17452323B635AEBC5D5EE8D77EFF5
:101480007B7F32723785B0B59241A9E88D67B5F799
:10149000DA9C31F69CF33F0837EA94C45452089919
:1014A00022B8AEF7569BF1DD7D6F1EC8F82411C33C
:1014B00016520A196306DFDAD27AB1C59B6B5E0851
:1014C00039A718438C29EBA88450213FDF7AADC59A
:1014D0003AF720CCDA648B2DAAD0E4AB54CE1FFFB0
:1014E0006E8FF1D6D9079C73DDF80EBECBEE6794F4
:1014F000E3B7BE5B73CCF7C618EF8D33CE56E7DC8F
:10150000F908E6FF8F75B6F55E8AF3DE7BEB9EFB8E
:10151000E698638EF3CDD7DE9BF7DE2388420E324A
:1015200063089EF5D742EFF0B3CE765B6BAFD65A29
:1015300077830E21837B42BE29258D82CE19479069
:10154000D1F3CF5A8B6314298410FE3D0EFFB08473
:10155000964AC89C42CA28A17BFFFF2F849C41BAAF
:10156000D7FA976FD0490BA57306F9A2DF7B73F604
:101570003DF7CDC3DF7BDB8B31CE5B7B3EBEF1FA2B
:101580005E7C31C6F6DE9BF1FE4384AFF70E7FF33F
:10159000BD71E69BF3BDB7DE97EFBDF7DD221C639F
:1015A0000AF7DDE32CB0CE5A8F2028B517E38B2F36
:1015B000D658E79C73DE5A6B9D73CEF9DEADF5C548
:1015C000D8E27A2DC63AE78C75C618EB8C31C6F78F
:1015D00066AD75CE1967ADFBC57AEFBDB5D63A6B72
:1015E000CEF9DE426BADB5185AFCFFFFFFFFFFFFDF
:1015F000ABBD39DBBDB7A53867EF3DDFDA5E9CB325
:10160000CF19E39CEDD55A6BDD39D75B1B638AF9A3
:10161000A598628C29DD9B6FCC2A25A5635642A62E
:10162000F40AD117E394D2E5CDDAEE6F8C4229ADFE
:101630007F76D9C686C35937C1F0B5992E5D25622C
:101640003C3BBC18AE7C392A888315D74DAC90B290
:10165000DAC98C6B83B5A79CEC472144CD4F4D670D
:101660003593C0CFFEB97A52EC153692CFA0BE4466
:10167000F7EAB1D85CA26A852DBAD7EFE544167FA8
:101680004CAEC1999A3EF0A24714F1AFBEE7F07399
:10169000C51DA5DD33D7175808CE19C925FF4BC87E
:1016A000B7456B6EF0A1F9DC61B2D0FAD87DEE26B9
:1016B000D8685DB4263B782F3C2E1DEF8DF525892B
:1016C00050FD3337C8D39B37EF49EC8C2EBAF95B0A
:1016D0005D4E167AE5234E55DB1C92532E2907A545
:1016E0003B22C4FC5192499E8CF05129E3A85FCE65
:1016F000C9E70CFDB729999D4B48173F736DD63646
:10170000E5FCBFC5FF63E83ACE1F26F1F107BD5CDB
:101710005B6EF3D69F6392E7FE3963BB6D1E19E3E0
:101720004D7FDE5B879FFF1F7FFC7178F91F675E2F
:10173000ADA6D7569CF1173A9C94125B6A29A55224
:101740004285889F2BA5D5DE9BB5FFA418850C3A52
:1017500048A1B58E3105DF4A69B517EBFFC541A732
:101760008CF1F53F69318412E1F7D659EFC57E0C53
:10177000640EE97C5B8B75378EB1A392D0F8D66985
:1017800075C6E19C82D0D838DB797D178DA5839012
:10179000E8384B6A35CEC11C734EE1F84E8BF3EE40
:1017A000693164142A3B634AAFD6FAA74210CA3A99
:1017B0005F5BF5DEE228B5D051677C6C6BC51BFB27
:1017C000738630FEDA6EEBD55CEB9414536419B17A
:1017D000F726F4666CBBF8DE729231D9B55E9EB323
:1017E0003F452D451A42A48C7EEFCE167BDDB1F02D
:1017F000FFE29EEBBC1863CE4537E9A07406F1E426
:10180000E3BC3717E5677BEBACD65E7C73CE18E79D
:101810009CF31EC4ACA45242E81032BCDF3AE77C11
:1018200071C6F6565BAFC518EFEDC33808A59452E4
:101830003AC71853482945848EADADF65EACB5CE97
:1018400079EFED7F18E720B4D6524925848C31A674
:10185000943184F77F6BADB5E6BFFC8F39E702A109
:10186000A5D4422925845042E81C730C11A3F79C8F
:1018700071BDF6E29CF5DE9BF7FF8929E8A0A492F2
:101880004A079D738E296408AE33C6D65A6BEDBDE8
:10189000F8E29CB3D67C6FDF3FDF5A6BCE45290957
:1018A0009921B0ADB6DA6AEDBDF7628C73CE39E737
:1018B0009CB5E6BD8B608C31DE678C2FB6175F8CD4
:1018C00031C618DF6B6BA5B5DA8BB3E63F0C628EC1
:1018D00021849022C630E68CC17BCF17DB8BF1F6DA
:1018E000DE8F52D039C61884CE390729844E804CF9
:1018F0008C3CACDD65DB623457A79C94344649745C
:10190000B39041EC5B727BDDC26AF3752EE9F79F01
:101910006E67879CB5D65A0A8D1330B595D67A3145
:10192000CE7BFF4142E86493A4525B4A29A5D02FA5
:1019300061568BAFCDDFFF844ED77ACE6A2DCE7C39
:1019400090941042E714A4D41A090D89EDA5B79319
:101950005D1432DF73486DB599FF4FD429E790FECF
:101960005342AE357592C1D3D65AF5FF03A953FE43
:10197000BED0DE7B77FFC4204386D8F917931C6B5B
:101980008C95206CA4F55EAC4D312B91CF319D1719
:10199000DFECCB4109FDFFB1CD9C1CC5DA622A7199
:1019A0009BABB417EB8D123A09756D6FAD58EFAF65
:1019B000D03186DC6AEDE5C2ACC5123AA7F82E6DCF
:1019C000B6B57B418C52A4982EEDC59697438432D0
:1019D0003BEB2A6DFE3E2D95122A44FCCE09BA340B
:1019E000059B7FB61621F155C9F76B5A77BFB7FC37
:1019F0007AB5ADB6F37E56324999720E2987A5BBEA
:101A0000CF95D667DC4D1A831D9C75AD58F3CC4B32
:101A1000B7A6D39B2FCE29A1B31431E81484124268
:101A2000FA7E3B73C6DA9B664C3AF7E26B3127824B
:101A3000A4A3C3A614E3BC915248AD428E1906215B
:101A40009490BEDF46ADB7F64B8D933ABEF9D2EC1B
:101A50003B1729D0ACA3E55A1394D24988043236F7
:101A600051E72873B386346BAD4D3AE51C4EEFA5B4
:101A700036FF3E8CC938577A73E604A994D011E139
:101A8000778E1062A95C52A5ED7987938C51C55E63
:101A90004CEBEDFC13F379BE95DA9CFD4048A15365
:101AA00008F79F20B5D6D158D0A8F7DD42A19312F0
:101AB000CFFAD2AA750F2719A16FAD356771925A67
:101AC000E91C43443948A975422058E28C774A09F9
:101AD000A12376BED366EE053A83786AADBD3E1487
:101AE000A5143AC68C4FCC494B21ADB1A439DB4E7D
:101AF0000E42E98C8C67B5396B62C820B9566BAF62
:101B0000DEE424958E39C19342964A856B2E25D604
:101B1000771F7310421CDF4A6FC65C1843469FF55F
:101B20005A8BB93F082164C8D87E94B454FA7857C8
:101B300059F5DDC3A09490D91ACB9A31FE6288DFA3
:101B400071ADD55ECC4541291D434420C530A5D09B
:101B5000D02452ACAF3606257448D7765E8CF52F6C
:101B6000A59472EDA535EB5D4E4AE99C32C630690D
:101B7000A994CA2E1AE27D712926A144BCB6D4E2EA
:101B80009BFB20C51CAE71A557E7504E52C91442AD
:101B90004631882985C62618627C7321082543FEB4
:101BA000B6F3DEABFF20C6989E2FAD17632EC84953
:101BB000E89831FE374BA9A5BE1E37567E73202606
:101BC000A574FEDFB35E7BFD17071D2374B614DF1B
:101BD000ECCF512A9D638C31082995D2F9A2C7BB5D
:101BE0002DE664A484CCE0D9DA7B311FE424748A26
:101BF000D0F75E7CFF382825748C290521A4143A7F
:101C00003F0B2B75AE9B7CA3D0199DD76A6BC53952
:101C10007FF1C5C8195B6BADD57910624E298698E6
:101C2000630E4AE7F4FBADCC99EAD0093AA78C6F72
:101C3000EDB5356BEDC527E5736C2DBD39F3A1B757
:101C4000EF7EEFBDB3D7FD6AED05BE588F9C73EEF6
:101C50007C638EB3D50373BA35C6776FBC31FEDAB9
:101C6000E68DF3B5376F9D35EE1977AC73BED8E6C8
:101C70008B73CE77638A71CEFAEE9CF7DE5BEB9EB8
:101C800075BE430F2D6EC6F962DDB9D857DF7DB53D
:101C9000DE7BE3AC31C619DB8CF5DE5B70BC71F624
:101CA0007A772E36DF41EFCBF5F8C2E0ABF5BE1800
:101CB0005B3DBBFE18637C73BE18638C71BED85A43
:101CC0008B31B6F8768C73FE7ADB8CF3C6586B8C4E
:101CD000B5D63ADFCB85F778EBBDF1C61B632E0690
:101CE000DF3967BD6FB5F9529BB1CE3B6B9D33CFEA
:101CF000F4DA6C35D67C679CF1CD39EFBB37CE1862
:101D0000779C6FD7386B9EBBE6A514F3B525FD66AF
:101D10008BF1D5186BACB1BD77EF9D77CFFA626CC4
:101D2000B7C639639CBDD6FA62ACB1D65AEB7BB16B
:101D3000C677E38DBDC6D962AC2FCE586B8D31C648
:101D40003A6B8D31AE59EB9CB3E6B7678EB1CE5787
:101D500077BEAFD517E3DCB5D63AE7AB79E6F95EE7
:101D60009D2FC618E3BC35DEB9682B70C718E79BFA
:101D70002FD65767DCB3BDD96EADF1CD3DE71F322D
:101D8000F21C5F7C31BE17E77DB1C638EF7C31C6EF
:101D900018EB8C73DE5D777EB5C6FA5ECDB7D6786C
:101DA000E37B75BE18637CF5CD3A638C73D6F96F0F
:101DB0009CF3C5E2EA8BF3C618E3BBB1D6D8E6BC08
:101DC000B5CD5BEBBFF7DEDBF68B71BF58F7CC6DA3
:101DD000E7395FACB1CE39679E33B73D5FCD73CE87
:101DE00016EB6B37DE5A679DF5C578636BB3C63B60
:101DF000637DF7BD59E38C33DE3863ADB1C65863FC
:101E00009D75CE395FBB6FBEF9667B39D618639D71
:101E10002FAF7AEBA137CF5A8BCF37E611E3893357
:101E2000D73CEB6D35CE5A7FBD35C67863AE75F9BC
:101E30007C7F8D3137DADE7A77C65C6F8BAFFEF848
:101E400073DA33D706EFF50FF1A2884F4CFFDEF2BD
:101E5000580BEF50DEB34E31A7C47A77CFDAA363C5
:101E60008C514A21633EC7D8565A6FDED7DE4F2DBC
:101E70004E29A584CEC758EB6BAFD6591FB58C3110
:101E800069ECBC3B8EF3EA7D43B6B062B2544A883B
:101E90006C9CF3C617738D6F5AEC1C3282CE5A5B62
:101EA0005A2BB7115272144A290D7BBBE877FB4DB0
:101EB000EB604CA173C8BD1AA16C309CB47E754E0A
:101EC0004298D6FCCDDE8378AA8F53878CFFC5322B
:101ED000ADD8582D3F48259469B5C177527AA58170
:101EE00029950811DF18B622A5DC1BC454B2D40A08
:101EF000D1BF4977DEB35452E860CFD489948AA227
:101F0000994A79DA1BFE15034D6A1342C8903D9831
:101F10009A95A6A3FC5269D6FACDA695636A8F520C
:101F200047E8A5D4A5D4AF3494FAB36295F0AC1DBC
:101F3000D39A10F2F72A44AF4587ECA352B5369DE9
:101F400050AFA8F52284725528578B10CA5CA54E55
:101F50006B3A835E716B4EE953AD10B5161D8389E4
:101F600022D59E44A8FD825A858C1E4BCF3A92C939
:101F700058A56BB94AA4DA7B7142E29C3F693EEAFC
:101F800008A404D52BA56CEDD58AF0B388B425A59B
:101F9000108CC93731F5EFB4029D744EA535245429
:101FA00088321797A530ADBB9CA054A0F49A643C2E
:101FB0004AD96E96F6ACDC6C34D49DD52714F62144
:101FC000FA2F956AA5A4A89368A524A5C2B5DE68D2
:101FD00029B4671529995B6B4E28917FAF5F2AE57D
:101FE0005A7342C7D65B4E4988D8BB52EA985EA264
:101FF000D2A675A3618EA177AFD431B55F25316DBF
:102000004E859433AD5EA8E36A834A7E569D8A214D
:1020100065DABED2A01697846EAD189572F6CC47DD
:102020002953AD49895B6A4539A4D7299232995A17
:1020300085D2B556A0418EA536A182EB3529F96926
:10204000712AC9F469454287DA8310AF169B93124F
:10205000AFB6A84430F52A8D69B1F9279169BF421E
:10206000B85674CA9ED81F73D09D1C25A3654729F6
:10207000648A113F8A5C3A560AB40A85AAC5681078
:10208000A36CCD0B655BD341B8F691064997969545
:10209000C2A527A14CF71F43244B3B4BE25694109B
:1020A000A6FA97620C9D7F25726B51C5529D34C96B
:1020B0003CD6AD4A9E5FA13D332FFF244CB74AFF6B
:1020C0005294C8A5BF6873FAB446994C9142998A54
:1020D000B00D2AD61A75B83D2A612A46FA07615B07
:1020E000D6E1B6ACA4E9FEEA9F64295969DFAA509B
:1020F000AE351C71D0AD78A17DA93AC9DA608449AA
:1021000044E6858CB523A179BFD9E668EA530AB8BD
:102110002E25ACFDE7AB51275186DBC112AE621F05
:10212000A40EBD28A15CB142D57AD253DA749B5477
:10213000A63DA9D85BC658BF52838AAF87295BC921
:10214000274905AA1332972E94E8FDFEAB61713141
:1021500027C58C12A6C4F7A4ACAD7F9C2C13BAD5AE
:10216000FEFDD5A8DC04B42659C7623248DB161F31
:1021700011944D4B55FBC767E5EA63869242216B8C
:102180007F160C594C0642D63264ADDF7E218C3F5F
:102190004E69FE456AE5F828D403C7485DCAD0AE4B
:1021A0009B7346F2EF18A1721FBA5857A14AFE77E7
:1021B000237427439BEAFA5311E1EEAF0A7F0A63C7
:1021C0005C8922A8676F12AE2E65BAE947868C9BA0
:1021D0007F32B3257CAB1DC1A09FB3287D3AB53DAE
:1021E0009DE29C72F0D5466DA7D2AE55EF834CCEE2
:1021F0005AA7505FC215D37E8E49D9EA92EC529904
:10220000CF6A7F3848677B4BD22EA55DABFE47195E
:102210007DB1FE4DB76436B57F14B474C6B6B3DF76
:102220001DBAF6EE8196FA02CF4C106FE8F859BF4E
:10223000364A7982292F88B8A33CADFB1E950CBA8B
:102240007713B3C5335BCBBA3759C9849B85698291
:10225000B7A329CDF8AB5450C17AA485B3139AD251
:10226000AAF34F089DDFF946291EA58D8E186393AA
:102270009032846B6D4AD58C1022ADBD229D95485D
:10228000E1F6FF712D4B9CCE6CB13169A1737E0FCD
:102290007B186890469FEA59F9284C2944BCAD3711
:1022A0005F924A12334FBAF3494925E3F1AC78EB18
:1022B000BE5039B5629A354A2AA5F36DAD18EBBE0A
:1022C0009941E25E4ABB2E4BA994C6AEB5D6ACCBC3
:1022D00048081D7B6BC5E5A8A45232F8D65A31D602
:1022E000A6289408AFB7EE8F9652E9F46C69C53909
:1022F0000F84102A7E739C175B4A15A26DA5F7E622
:10230000ACFD17C6AC95D04A089581EDB4D6EA3D30
:102310004A31E818B3544AE8045E6BADF666ED8BBB
:10232000514AA9648CF9C4EB4C6DADD5DABCFF51B0
:102330002AA174883183F86D2DBE95D68BB1FF65C7
:10234000AD9492191EE78B79379FC74BADBDB91479
:102350008448F9FF8CB3144AA8FF9C6FAF7D525C90
:10236000AFC55A8F1F50516AAD949029E36F9DAF4E
:10237000B5F55A9BF1FEE520A5924A0721420CEFE4
:10238000F8E27B6FB5D7DE2DCC40E59782142A2B7F
:1023900099F1B7C5F95A6B6DC63667EE3F414A25CC
:1023A00033BECEE72C960C21F9EA2F060FD7DE7943
:1023B00035CEA118B592420711728A29440CFE79D4
:1023C000E6F66E5E6DCE5FDF5BEDBD9B1494CC31A7
:1023D000A71C63C818F9867FC7D759C7FCB339450E
:1023E0009D5CF418F723BC7BFFD462BB8739E49370
:1023F0008DC7BFC60891B94EA51C2467BD58907102
:102400008ABD37E7CED65AA8906EB929C3EF8DF5AD
:10241000AD391D94083166A99350211FFFDDCBBD56
:10242000FD5ADE0722E5FF6C511AE7EB7BADFEDFBC
:10243000FA3D6FCEBF904044AD9DFBC4CEAEF4627A
:10244000FFC70907F1993BAB547FA14E47F4921F98
:102450000849E7939B91F922EC8D9239FDA851B27E
:1024600036A57FFD3F53B52793399D282B2BD112DD
:10247000D517110C21CAA070DBA6677C23F6FE7F5E
:1024800052DFEBEDD88A9E49118797846466F43653
:102490003ACBF80365AEEBE75A7B8C92A755FC5C10
:1024A0000DD7C21AA590C6778F7E373EDDABAC0F35
:1024B000EAC558BA92F88227A23336BF98A13942AA
:1024C00057DA86B4B0FA246CB14F2BCF6B529F739E
:1024D000A46E38E7466D6E4BFADC5AAD8BA6E8DF8A
:1024E000B4349C47694C72368BDF5FFDB559677415
:1024F000D2E0DA945990DCA5773350CA1699ABAD87
:10250000BD05896C393A59746F4C36DF5AA57EE6A1
:10251000B42673FBBE6B64BF8685F4BD7C1FC215F9
:102520009B4CC3323F6385F6CD1F735C53DA58A3CF
:1025300031F44295B2B3EDAF5967CB30469FAF63EC
:10254000A9E2F50684B44EE8D86BAA4D676BB332A6
:10255000FE21684FAF495D236383B2B43265ED2D30
:102560005DEB5C12B3F3AF6D79BEB51AD531F1CB2B
:10257000DB1E8AB6962655296E8B5E726AFC47DB97
:102580008BCEF9C324B435E77B623C2BA50319A598
:1025900094626A747C65BDF9DABDF3BC38DB6A7796
:1025A0004288AD654C5228E3CF2DA4B64E7B75C64C
:1025B000FA9764CA71EA2897485AE8DA3E04B6F5F1
:1025C0005E3AA5C5186BC51642E894BD89D8262980
:1025D00012FED8186B3AA7BD3807A6D0F9FED61858
:1025E000A3AC22B1A5544A867C7C65B55A7383148A
:1025F00022D7564929B55CACA552522995432E9D48
:102600003763BC533AB74E29E7A49823A6524A0829
:1026100019338E9715FFAEBD4966CF49279DF586C4
:102620008296524A29640ABA74E6BEF9582A693B6E
:10263000A9B5D6FA71544A0821E49140D84E4D36D6
:102640002689216F2BADD65E6E4C520925647C4ADB
:10265000C952DB4BE785A963F1B4D65E5C4E4228D4
:1026600021840C2A2A5FFAF7B05C2D25EC9DD6DA7E
:10267000FB03422925748E2E69914AF127DC9C9632
:1026800006BD7E566B374228A1848CF1EA335B6D20
:102690001F1CE79554C695566BAD380921849031BF
:1026A000F71065A2C546EF9F962255576AADEDEA31
:1026B00020841032218B962EB58208FA574A1E6369
:1026C0004BABB51F25841042845C63D2B273139E5A
:1026D000C761AA5C4C6BB5F62684CE4108896D555E
:1026E0000A95EE7FEC5529998DEF9DD55EA110429C
:1026F000082173F35008CB7CFEC7BCA584F3B5B5A5
:10270000565B4E42072554BE3DCB5B9A09C2F9B0D9
:102710009484BE77566BB35009218410B95C993B01
:10272000ED310373C412C7175B5A6B0E2821941244
:1027300022F8A754A9FDE6E39F9832DDDE4BA9B548
:102740003921735242E86285C2B4D7986CF74A695E
:10275000E8CC73ACF686748C4A097D6C949FF48641
:10276000E3B1462C9D8B73B6B25A7288282C259DF6
:10277000533AB3DA6FF4C54A25C3AFD67456BB9348
:102780001965A564B449E5469BD3C7DAB08432CE57
:10279000FD466BFF41FEB394BEFE0C4D6B85D91711
:1027A000AF944CBF9AD359ED4E4694A552D149717E
:1027B0005AED3E1FEFB4D4C939671BAB1DE774C295
:1027C00052E2FCAC2FAD15E45FCE52FA5D633CA73C
:1027D000C51F91BF94423D2544ADE5FD677C58126D
:1027E0007B6B5BE9AC199941D05265AC6429DEBCC6
:1027F000F76C9A425F7F3DE9B4D898F2D5524828E9
:102800008427D6BA7FFCD94A21774C29ADD61CCE75
:102810000F4BE92794E9DD997B3D184B5AEB5BEBB5
:10282000ACBB9C1E124B04294FA9EF78F3915A3A86
:1028300099EB496BB5C3988F564228216A43E83A11
:1028400098C5D2D03ADB58EDD5A51096124A68CF7C
:10285000EB85D626B19432C6B7D26AF920262995DF
:1028600012EAD3FEAFF7682BA18FAFA5B55ACC0BF8
:102870005229256468CD5B675ED84A63DB4AABB5F5
:10288000561B94504A68D0AA3BE73F31954CB79508
:10289000566BAD46082194CCAD76EBECD1520A7D57
:1028A0006D2BADD6EAA2124AE8D37A33CE5BA99457
:1028B000D2D7B7D65A6D470921947EB5166F7E944C
:1028C0004AC97C5C2FAD751B951032BBDE6AB151D5
:1028D00029215436ADD6DA3C524AC8F05B6BBD5B59
:1028E0002184121AB65A6B2D41082131FEAC551BBA
:1028F00095504AC5E369EDED2AA143BEA6B45E85B5
:10290000104208116AEDB5052174CEE9D3DA9112AF
:102910004228A55CEDB51FA1635422D3DE2F524A95
:1029200029194DADB5041961D62AD3EA820E4A2A77
:10293000915BAD1506ED9F18AAD41E740C4A2AE1CE
:102940007AAF56A8E8B18E96572C74504AA8537B9C
:10295000FB4947773426BD462584522AB85A2B14A2
:1029600032BBA012AB45081D8452BAF65EAE90C9C8
:102970001D7959314AE8A0843AB57628147040256B
:10298000D6ABD03927A551ADFD0A998B4D97F5A748
:10299000844C4AC95A7B493A616AA3673E0A95A2A8
:1029A00096C7978E95C8B48360AD94F9BCB4C23F06
:1029B000352DF569F7D064A5B3ED3FA2FFAD54B254
:1029C000B4E67DBF4A99DA63F6AE62254CEB365920
:1029D0002395AAD5C890EA974AB35AA3774A675B6A
:1029E0009E8EC85F29332B3739ABA42ACD0AE9DA8A
:1029F0009552B322A2BD4A07E3A0CCD667A55BFFE0
:102A0000C9162F756A56C8D04D56AA76188DD13A78
:102A1000171F65EE3C29D58B8AB13BA560FD4A8125
:102A2000F69570FD0A55AD92A959A563375282E219
:102A300064305649579B12B25CA552ED39D9A3B503
:102A40006B572ADBBC12B5F794BC13D274AC84F17B
:102A500042A9DA9DC20DAADC8B94B677256B2D3284
:102A6000199FB4EB58EA5E8552B51F71FB93B056BF
:102A7000A57BB74AD47EF4714FC4D29486F50B611E
:102A8000FA91BF422D7CBFDAF6AC626D59D9DE8473
:102A9000B23EA55A9674A50685AA13E143A17B59B7
:102AA000FA3417B4AD481DABA46D5AC35AA274AD25
:102AB000E7648F30B64DD99AD1F1D6A3AFD3B9DA46
:102AC000254DF7397B0A74F2F036BF64E84548DCDF
:102AD0005D4C289D0A9730FD48E54A500928D4EC02
:102AE00012A7FB9C6CBF1ADE54CB94AA3523536FFC
:102AF0003F64149BDBFA3497B56B3DC60B6EB9533C
:102B00009AF243F0FCA89032314BA8DA803ECDBF58
:102B10009461AD62AADA8B4CBDDC90C1E960CA5603
:102B20008292B5F910622E666A538E14AEF7943F06
:102B30006C5EAB539E14AEF79061305ECB539DD468
:102B4000ADE29C4FAC6E8AD79ED4AD029920A866A8
:102B50004A538F869DFF98F0AD762A5792B6A5E22C
:102B600098C1B379C5D683F0B5A59482335B7BFA5F
:102B700094ACC567844F0D53D59E732AFEE68B9B9C
:102B80009D4AF5A6C3AD4F42E41B9CA2F7A36F3349
:102B90002962D3DF569F3F094BC5191F73D508D54E
:102BA00029DD1ACA219B1A662A3D08556C4AF93656
:102BB0003775EB45265B7ECEC1BAA954EF20B76EC0
:102BC00011C8B0FFA56C09C2940F544AFE6E713A49
:102BD000D2AE551853F66FECD38A8EBDB890F36D14
:102BE0005AAA5A7C3EC5BC9871B353A86634F0E526
:102BF0009FA45DB94BBEFA8367E60425AC894317F1
:102C00009F61EDEE249DDA151B749F5DEDFE28A1FA
:102C1000FB15D3D4976CAB2E0AA13C9CD2F60F7D4A
:102C2000712E2B251C9AEA747F8E71FE4BA5FB5BDF
:102C30001A347B9FF3D54A9D8C5D52F776DFB7BD82
:102C400064A5824F53FBEE2CFCADBB2C45F671689E
:102C50005B8D77AEB727947C772AE58C33BE380F2F
:102C6000949031AB157FAFB5F7E67E0E42E7B8F42E
:102C7000F7BD57DFFB45394919E54ED9996B5CEF34
:102C8000C53AF49F5A43A614F3B7A5D6DAABFBF8BE
:102C9000EA1D630C3224DF6AB1BD397FB54E392994
:102CA000118D71AD17EBFDCB53A80C62C4ADB5DE31
:102CB0009CB730E829438831BFD66A6DCE5C98B4A2
:102CC0005A426414AFEFACF562EE454A4DA5524846
:102CD000F995D26AEFEEE420B5543AFF7F6C27B540
:102CE00016E750544A49A53334DF95D27A73DE068D
:102CF0002595524A26E88CEBACD5DEFD0F4A2AA575
:102D000084CCCFD7D25AADC5FC9F94524A08999033
:102D1000A9B5B55A8B7B4029A584104285D77A6D19
:102D2000B5D6763F5252092184CEA8B55A5BADC5BF
:102D30005C209552420821932BADD6DE7B333F4970
:102D400025841042A8E04AABB5F75E5D504A0921E0
:102D50008450C976567BEFC5BB20951242089D82F0
:102D60006DA5D5DE9BB74149A5841032235F4BABDF
:102D7000B557EF90924A29A16306C796D66A6FCEDF
:102D80009A20A5544A099DF1B7B5B5D67BB1DE1F8F
:102D900029965242E814AEB1ADB5DA7BB1F6E62021
:102DA000A6524AE798C171B5B5DA8BB3DEA2209579
:102DB0005252099D5284DFB75E7B6FC61867BD47CC
:102DC000314929A5544A081953BEBEB4566BEFC504
:102DD000798B7252524AA994D039E3636BA9B5F743
:102DE000E6BC7F30082995104A081D5386D8F9D2D1
:102DF0005AEDBD176FFEC32847A994944A09A14311
:102E0000C6BFD6D26AEDC538FB6F4E522A2584D094
:102E100039668CA0F3A5B55A8BF1CDFA8B7210529E
:102E20002AA584CE39C794C1B7AD95567BEFC5D9D5
:102E3000078292522921744C3186889FF1B596DA27
:102E40006AEFC559EF518E5229A5849031A694316D
:102E50003EBEB7565AABB53767CDFD414BA994106E
:102E600042A6143208D7F6DA5A6BADD6DEACB720DC
:102E70004A29A51242082112F4E61CDF7AB19DB35B
:102E8000DE9CB3E608ADA5D2F9DFA434C652CB5F11
:102E90003A6BB5D6E6614E4A29A5A38EA6569793FE
:102EA000105B6A5759ABB55693941042A894ED6FD6
:102EB000A5FB23B4924AE1D23929A599289552421B
:102EC000A67C8D33F668A9A50EE9B2566B2DD626E1
:102ED000A594CE3943187572B55B94219452DB4E9C
:102EE0004AE9A41E2995525266645F10BF5523D249
:102EF000B551AAD04929A536AF944E4A09F12B966F
:102F0000CA93EA4E705E4AE54A2BADB59E94D2490B
:102F100029FDBBCD22FA8E33321E08E94AEDA5D534
:102F20001693CE492919B34D5A44D6FBC73669A921
:102F3000326DB5B662A25242E91C614EFA88292F61
:102F40002DD63E2B9552ADD65E7B4742A89413CA30
:102F500047E51CD592A5D5F63D384B29D37AADBDB2
:102F60005CA1E37D498394A5D011C5F3582D09E7F1
:102F7000AC94F6B417DF4E143A9A1034D25AC79C68
:102F80005F0886B56E71C84A065B7AAFBD4521E31E
:102F90000B49432166C448975C0FABFDA570A43C68
:102FA000A6F5DEAA8B42841372CA31871494BC261C
:102FB000A5CE5ACB292B2991E5B5D716A5CC2FC57F
:102FC00078A51622688D3B3789D61A83484A29D3BB
:102FD0009A3326481DD2132A1D31550461C7C76E86
:102FE000B0ACF528A352CA9466AEED67AA5C8D0A10
:102FF000396B9DF113E275628365CD0819B252AA4F
:1030000096FB7C795A026F740E628A709F52B7F6F3
:10301000E282A1CD049DA312AF36F3AC3F4B06E78D
:103020006F8E6AEAF86F50B634E76BB29476A0639D
:103030008E42BFE290F957CA60CB8D524CA1CD337E
:10304000F9DA62CD2DCD17D67D103A0A9D7BF3E0DB
:103050009AA0822D4F2BA16432DE2A9DCDB1A5D43A
:1030600066AF61FEEBA0944CB65990AE0FF93233C7
:10307000850C423F7BA3CAB694DA8BB720FF421C73
:10308000564A29FD6CF1DE9B1F33F258881495C611
:103090004FC9587BEDDD9F4F7BF3C501B194D0F94B
:1030A00063EF9DB1D6188BA4D251C888C40EB9F86D
:1030B000569B71A516E78C5232482513C6F1D8E20B
:1030C0009CF558A99463C867CB707BEFA5375F6BFD
:1030D000F1FE452594503286905FEDD5DA8B934E04
:1030E000F139B97588DEB75A7D2BB5F66271D241D8
:1030F0000915DEC3D0D7E27B6F5A8817974E304749
:10310000D76ECA9CF75EAB07322829B173205A6F7D
:10311000A16B5987FFC752298768BC33A5F7DA7AB4
:10312000FF18482DF3B7DFF7E21172FE0C85D45279
:10313000294B198C85BFD3DE6AF3FFDEB395860871
:103140003DDB1DFABD01A9F317533F2865300EBAC8
:103150004A9B6DCD9CF45F5C229F989F73EF3A8FE2
:1031600072D0F9262512D2F2F6761FABD5D7E24EF1
:103170007E4F4C9961CAB8B9FB8C3531A71CD492EB
:103180001925856DF58515675CEFFE3F2095D439CF
:103190006667DD7BBE99FCA1563967A55288AE36BD
:1031A000EB3A2BB636F33F885A4A995308D67A67DA
:1031B000BC4911462D848E29E5F36BADA4556B7B7C
:1031C000B3F81C2D964C2903E7BD33D664F8C4969A
:1031D00019089D1FBEA5D65A7B73C63B1864CAE862
:1031E000186312F2462E99934E29299D9CB7AED3AF
:1031F000E65BEFC5D9A3857EF73A6F9406D72629FB
:10320000A51009C594FFF5A5D3DE6B2DCEBFEBCC81
:10321000113A09716E9E3264E86B31EFD9E6FC0316
:1032200039C80491CEB03AD7592FB6579BD26D4EBC
:103230004A2544BEFEA3107F2DFEA4A42444EF3BE8
:10324000536B6DADD5DEBCB5C6F817C354FA1FADD0
:10325000854A111DE7FFF5CDBAEB7F4E29E7907D3A
:103260002DADB6DE9B71BE5C1CA310224594F1C34C
:1032700048E79C841209837C4E2BB516DF7B71C610
:1032800079F7C1CD390825744A29C714F1F7BD195A
:103290006B8D35CE38EBFEB70FB7D67B6FD659EBBB
:1032A000FD85110729848C41C69C424A315F088FF5
:1032B000ABCDD75E6C2DC61863AD3BEFDC07641455
:1032C00032E9A0830A21FEFBFF77D6F4E26B31C618
:1032D000F7629D75D61AEBADB5C619E7BC45E1E3BB
:1032E0006A9D79F9C69BFE89FFC51BF27FDD96DFDB
:1032F0008CB3F57B948FF1941A873002C945971EE1
:1033000076E659872F72E97CEFBDF1B5187F21046D
:10331000CE9F7E720EF95EFF2BB4D018636CF1DD88
:1033200018E3BBBBF63CF39D851E3F645AEDDD7B85
:1033300068ACB3C536DB7CF3D63FEB8B31DE789BD4
:10334000AF79CEB9DFCD35F6A16CA1CBC0C2974124
:103350004CFF9E8CAF4BFFF98ACCAFCDB9E79BF306
:10336000F5F96A3E02CE586C53F6FEFF6B2CF4BEA4
:10337000FC666BF1C679E39D2FC11F5F8BF5DD966F
:10338000D29B73CE5BCFCB77C6FAF2BDF1D696EB6C
:10339000EDFBC07D8B2D70E65C045134C67C8FDD67
:1033A000F7E59B0B7DCACFDFFFFFD185380F4D04BA
:1033B0000F5F7F8D39BE3E93DD37CE5C882D2EFFAB
:1033C000D75ECFB5BEFA62ADB5BEF8628CB7D6D7C0
:1033D00062ADB5BE58EBCAF5ED5ADF9C73BEA37B58
:1033E0008E83AE98E79CEFED03EB7B2DC659679E6D
:1033F000B1F65EF78C37CFDC0C71B5D6D80C13BEA6
:10340000CE5EE3C033CF02679E39CFF7F2ACC7CDB3
:10341000398FD12FDE5B8C9C31B6576B7D7DCEF919
:10342000E67CAFD657DFABADC51BEF7DB1B65A6BAF
:10343000EDF3E01967CEC71018632CF2D5F95E8C56
:10344000EDDEF85F9CABD61FEB5BB1E59FFF9C2FD9
:10345000EFF78F9BAFEE5AFB9CAFF63D5BDD2BDEAB
:10346000FF7E9FB3CDF9FACE73CE7B0BCCB1DE37A6
:1034700073CCB1D51C679D73B63A5FD2F3C7367370
:10348000ACF5D557EBD1B3E6FF8B61F7AD39E7BBB0
:10349000F5C536E3DBAFC616DBACB3CEDAE69C7718
:1034A000CE39DFCCBFE87FEFADF5FFD9EE9DB3D5C8
:1034B0003953FC2BDE18E77B31C638E77C31C61860
:1034C000638DEFC559E79CB1C6587381B3C5566784
:1034D0009EB3CD1A73BCF3C7F96FFDB5DE776F7D70
:1034E000F3B537EBBCB1D5FAEABCF3C514DF7C7396
:1034F000C61AE39BF5C517E3CCB7D65867BB33D6DE
:1035000019638DAFCE19EB9CF3F7386FDB75FE971F
:10351000E36CF5C61CE7BD71B8E2768B2FC641ECB3
:103520009C73CD39638C6DB63BEB8B35C69A67CDFA
:10353000AFBE3A5F8CB5D657F37C31C69563AEB754
:10354000B6DF6A8D33CEF8E69C3DDE186FAE350FE0
:10355000B86FCC37B61E6BCEC5ED5F638CF9C61C59
:1035600067ABAFCE9A5B9DAFBE3BEB9E3BCE396760
:10357000AB79EEF86ACBEFCD595F9DB1CEFDF69CED
:1035800079BEF95E7B2FC658739DBDB636E39C317C
:10359000DE79EFADB1D69ADEABB3CEFB7BACF3D523
:1035A000D8773F44F8F9E79F75C83A0881F3C739DF
:1035B0006721060EF77F11C2FDF7D360851022FF49
:1035C0004FCDB73F1CFBBFADDF0A6E44F8D9FE8B71
:1035D00002C2047FBDB711F39A4AB4083CE59AEAE7
:1035E000C83509F3AF9D5B486589B6236F5217EF65
:1035F000FC73AB833D62E38CD14CFA1BCAF9CDF767
:103600007F516CD1B56CACF8C878FC4BBBE8822616
:103610009B3F260B1E5AC21175FF5A8C4993938B00
:1036200036F93897FB83F8FFD3FD29CFE286631480
:10363000EEF77CFBBB550217FC3F3E1207812E576D
:10364000D7C71272E82BF28F5F2A97DB6CEF20A5A9
:10365000658890CAD4DC48363F9FEC44FA0A9CE067
:103660006BE9C6760B239251C928930AF9F74E29C4
:10367000EBC4366B4D504AC91C758E39C77C1EC6CB
:10368000F5144B6DB1CD595BADF70E829481043AC0
:103690002519724C32C898EFD1257F7C7A6DD5FC04
:1036A000DCDCABDDFBD24A730D3031F32A45BC1AAA
:1036B000476CEEA88BFC3EBEBA929E943A1BEB5F21
:1036C000D032867FBD27BE38CF8BB1CDD9EA2ECA86
:1036D000392825954CE102637CADDEBB9863D0416F
:1036E0008790BF77C6BB625AF3B537EB1C3E27E124
:1036F0006F324C4A07218508F22474FDB1ADFA5EA1
:103700007C2FC6F6E67CB1CED96E8CB7D67D7C9385
:10371000D01229A973923AA79033081AA57891F983
:10372000CE3C2789604D9097BF33CF26637D72DDF5
:10373000FB127289C19D844DB6EE1C178445DA9F39
:103740003CD9665EA20713B6B684F090C6CC26A715
:10375000C451A9760C6F06CFFA8A72FE09896AA84D
:103760001F153F152AF312FF972AF73EA90483A9D4
:1037700016C6106162E5689D63EE816315134AA663
:10378000D32B43C6AF3417A4481EB5FE9210A29E99
:10379000E6C44650120BBC1041DA56F20F32C45246
:1037A000ABD1F9EA57FA335BB288FBBBB35E965BE9
:1037B000193FA8173BF41A5D528BC559EAEC8007F4
:1037C000DFC8ECB17FF75F418F67FA44059ED148AF
:1037D000E418AC8F4827917CEF1F37C36D37FE3854
:1037E000491DC9DAA7E8757551047572EB3AC62C04
:1037F000FBADFE950FDDFFB62949B86A164AC9AA86
:103800004DBEC468BA7F37E894B28DA2FF18437EDC
:10381000D709EAD61349A9DE91F01FFBD2ACB51047
:103820007A604BAACEA8249FADB2A73A26D431DB4A
:1038300010DE8DA876EB1F8AFAB977FB7F414AE14B
:103840005AB0816B999E0CCEC51814A6AD3807737B
:10385000B0E59B6E7590C2190F891D2AA6198B0BB6
:103860004169E05B6F260985FD6BD506297570D827
:10387000313B93502355EFC152E1D9D23BD0414463
:10388000C4BB395A8AF8023144C81DC22F9E3AA5DA
:10389000F1319D78FB9486C6D5F6A54E323C5AA4EC
:1038A000176B676C8A0F3AEADC6AEB0D097581A920
:1038B0001EE6A8B4EF1C97B1A4D0B7986F74CEEFF2
:1038C000BADAEF05293F87B1CD32D0F48BD91AC9C6
:1038D000E8AFB12E45F36D2FD65F98C0BB49793163
:1038E00004C7D045319450F6FD66527CD81563ED7F
:1038F000B321E497C31333100F5CCC4AA970A1EF36
:103900000D85137FF1C6FB926E462A5FA905FBB7B2
:10391000F7A8BF12F9FD56DF6D3F2213AFAFDED619
:1039200034538C4235DC4B9731AB25A1B4BDB7D6AF
:1039300090FF3F450FAEF3F89A18344F205699AFD9
:10394000D21A886C8F33C5385F3FB639C620C27B28
:1039500090999B6BD43949093304D6DB66CC2FDFB1
:103960005A6FF28D11E52F3C46BAA5987E54394323
:1039700021F309BEF5DAABADC6FC6FFD9361241DE2
:103980004486F968A06F3C32E9909135BD13637CA1
:10399000B1CF9A1354D058FB68B40F21C61F7F7C57
:1039A00022FA673B73BDF6DBF1FF30EB23CFB60A9B
:1039B00068274390571C79C575C67662796BC1A795
:1039C000207F1431B95DE44F3EE717E374E2E86607
:1039D0007B6DCD946BC3173285206BAE9AA86F7D3B
:1039E0004C5E46F194BBADB4EE8A2FD9E62C648CC4
:1039F000C892F018FED18DA0A48838FDD24DEFCD2D
:103A000078979F1423A8146C3796E4A7F1D0424905
:103A10008C32EFCC145FADFFF92BA9717EB996DE25
:103A2000397A42EC2C84CCD7D35A5C31DE5F9CC10E
:103A30000E32E4F79B6386E823C4D069E5EC2EAF31
:103A4000B5156F4D7E3AEC1CF3C7875FFA9B7E710C
:103A50004A99C6CDB7D3DA9A71D028A8844C209E53
:103A60006458EC2EFAFC779849DFEC6A6BA5BB1220
:103A70004F48515E11D14FAEF8D2949361652D63DA
:103A8000FAA579D26AF32F1E1975CEE863E32FF1F8
:103A9000543AA58412DB285B6A29CD9568C2934904
:103AA000889450F4241413234433EDA06DB2CDB3A5
:103AB000D65CCBE7E520A204F945D37BF1B8843886
:103AC000D4CC2906E34C6BC5B8688F082269944EA4
:103AD000EE14F8F29E0C43EC28BF31C693D68BC58A
:103AE000E668209386E942CBCDE7E7E9B4D3122A12
:103AF000FB622CADC559E79F481AA990FFEFC69B02
:103B00009AADCA42ECFCD1B3C5D35E7B7BE8872477
:103B1000934CD985437D6DD8A4B4A34E1AC6E25CFC
:103B20006BC5F5E3229039E89C10362535DFC35983
:103B30003A2A296F72A6B75A5C753EC190948E11CD
:103B4000C1E33E332D599575121A28FF9AABB5552E
:103B5000E3AF0D490719F37FA79ADBFD1161479D7C
:103B6000F4C7D7D65A7B71C64310A3D239E4878BEA
:103B7000E7A6C12BC2CE41A8F07F2FC5F4628C7599
:103B8000094725848808B8DB8A7F4746AD73CE197C
:103B90009FDF5AA9BDF85EFE034A091DF4491619B4
:103BA000E723524927A1724CC056565BEBC5990BCF
:103BB00093543AE878E3B537BD9C531239C9147F62
:103BC000E7ACB5629CB7286921848A3F39FFAF050D
:103BD00041077D660C2958D659EFBD79FF73945281
:103BE000C714B37FF7BEE0535056E914A16D959505
:103BF000D27AB33E29298552F963E33F76F8C59816
:103C00005F5211BB5B3A69A5F66A8F96624B293306
:103C100006B65DFC3F4442A8B4424295B3628BEDC8
:103C2000DEDFA4A4D249E4077DFFDFE217B2CC5166
:103C3000E7EC0BADAD1663AD3B4229A564C8FF3977
:103C4000FFA14B392411E30EE9B9CE49ABBD59F3BD
:103C500092944A2819E239E7DE93710AFACC1C449F
:103C60003295D3568B71EEC4A4A5103A630CBD7582
:103C7000277D7453124AA5701A65ADF7DEBC034167
:103C80004AA9948E117AE7CCFDFF458C43C8199A56
:103C9000465AABBD59FB70945209214306D79C7B11
:103CA000FFC7381E99437E9494527BB1DEBE24A593
:103CB0005242A88CFFB3E6FB87F1513187741EA7EF
:103CC000ACB65EACB73849A994CE29838CADFBD68F
:103CD000FF73524821C44E2969B537E71D0E5A2992
:103CE000A9840C21C2F3BFB7E6B7E3AF03DF524E9E
:103CF0004AEBBD590F819252099D53C808FF6B7D55
:103D0000F3BDB8EBDFC9A5B3566A31D69F1CA452E8
:103D10004AE81C738E19E2E76BEDB598FF40C8C7FF
:103D200095D66A73E6E19393964A291D730C2A642B
:103D3000EC5BEBB5F9F64E86D9F9D669F1CD59FFB2
:103D40004FD0522AA163924186846EADB517E72DFC
:103D5000482185637BA9AD37731E023A0925758C0E
:103D600031A69C8238B99B5EBBED17837C5260A163
:103D700044765E4F1F0769679D7C957D13F822A8E6
:103D800097FD6BFEF36782112ED4CC6CF50C9BD89B
:103D9000249650EBABAC34A28A226B30C2C6238F80
:103DA0008EF939DB2AEDADF79F7F1E5A860DA3BF32
:103DB000BEF0D79FCD3927298482CFB6524AABC5F2
:103DC0005B9CC3924A09759EB7CFF10F9E91124A30
:103DD000A98204C694C619ABCD3F21965449A36469
:103DE000AD7386658EBC7622AA9C41F89577DE8AF3
:103DF000EF0EE924B5501263E7EC453535E1F65591
:103E000051E70CB171BD73526B712808A9848E19EA
:103E10001B735DE8AEE91ECD8C4A857C71ABA59322
:103E2000D68B434927A56448F0996B837955E1689F
:103E3000868E3946737D2BA5B5DE2C084A2899421B
:103E4000BCDF5B1F9CA9C2092B630A2A05736A6742
:103E5000A5D66A621242C790E0BFDE1FF14F5548F7
:103E6000791D23101A76572BEDBDB88F731242645B
:103E70008CDFF3E6EBCBBCFECF2C157350D1FA5E92
:103E80003A6BBD379C74D241FF7FBFF91E08178A79
:103E9000F4C008219E0AB9B95659ADC69D2485CCF7
:103EA000196373BFB550A95A35443DA9F484CECDEA
:103EB00017CF49EDED03A9744CF95AFFBEF751161F
:103EC00051A34B36276974FCADB74A5937D6273111
:103ED0003348E15793BEBD5235DB9F2D3FC774A3D6
:103EE00078A6B6CA7837D7473172B4C79897EE7FAD
:103EF00053D92ADC6B2A2A30B272CE76CAB9F1279E
:103F0000692961F4B6B6FCFFC73BFC776CEF51CA78
:103F1000A8B436B675CAB939474BA97FB0AF9D175B
:103F20004F0853B7CB5F313E467DA6EEAD3646DA3D
:103F300035272CA541ECA63C187F0E5BDFCB6371C7
:103F40004D29F5A63CB657CADAB7282CA1E2F1AD47
:103F5000FB17618C5A68D64F6F4DA90C7748BD7816
:103F6000CE9C7B2F2A1163B6C4998C52526A880763
:103F7000FA6B3EE7B0B44EE6B6CE9B7F362A956329
:103F800076ADBA7F83D261EB4C4B2EC6E814D3CC0E
:103F9000C798D2AA7D2628A162B8A51D8B9FD049BB
:103FA000CDDCA0A7D5C910B688CFA1CAAAB1E62892
:103FB0009D914CC537F78F4C494D756A7FBDFB18F5
:103FC000A258E9DF526AB1DEC71C844EC056DBF14D
:103FD000D748A98D4ABACCFA74B35618A4536AAD1F
:103FE000D58420840CC1F85AFFCB3F48255C28B605
:103FF0007AF3B35639C3575B6BCDFE1BA3C8F19C54
:1040000072FB054169B55F2AA2999B8FD450A458D1
:104010004C6DC55994A34E421BEBAAF5F168B9C289
:10402000F39AFD927A4C42E7EC6E2BC55667739279
:104030003AE7636DF7DE3AA994959A22875ABE1241
:10404000E89061AFC434DF5E8C4AA8908DAFCD7A22
:1040500028DCF431245FAF8B4DDF7CC5B1AEB76691
:10406000DC0B3AEA9CC139C67C9B9E7CD3A59FACF5
:10407000F535B80CE33FD7D66AAA35F90B1D74CADB
:104080001D56673F10415E758EF7B5381BCE4C2A22
:10409000645B6B2BCD599484143AA36B7BEFBEC643
:1040A00023945041FF0A8AEDBF7A143350297C646F
:1040B000AD2FBE7C7381483208958233BE37E360F2
:1040C0008232CA9491EDBD18E7C08B41E6FFCFBDA7
:1040D000CE7B072D8CE61FE3813DEE8F7EFEC3B6BF
:1040E000B468931739DBF81F32D763FF1EB62E3939
:1040F000DC9085F0C6FC3FEA8FFDEA2F4A29E77382
:104100009CB5FE9D7F32CA209E776AB5CEDDFB6FDF
:10411000F8DE165F1FBEFEA9FF2AEEB8FCEFFDFF1A
:10412000CF3F439BEFCFFF97FE75D8D5DEFCF9FE5E
:104130003FE9AF37B79D5B8C8AF75E736AF3C77D43
:10414000FFFF51B636DFECC3FFFFA3FE7FCC9660C6
:10415000F1FFFFC77FDB31FE9C1F7FBAFF7A0B7A2E
:10416000070F9F10FF7FD6A2EE7DB7F8FFFF8F737A
:104170009EBD0ECCC32FDFFF1C0ECEE1FF2AC2FF77
:10418000F5FC1CFEFFFF7F2AB41639FC2A420E5AAA
:104190000BADC3D7E1FFFFFFFFFFFFFFFFFFFFE214
:1041A0003CC2BFB8EE11FEC77584F0FFFF7F8A9056
:1041B000030E559C6FF0FFF58EA07538FFFF9FC36F
:1041C000FF3987F0BFF1FFFF8FB338FF537DFEFF4C
:1041D0001F6711FEFFFFFFFF3FC60267F1FFFFFFF2
:1041E000869B05CE398BF06FF8576081C5FFFFFFC6
:1041F000FFBF15FF622CC2FFFFFF6FC51517678158
:1042000045C001E79C05CE22FCFF6FC039E79C4703
:10421000F8FFFFFF31CE398FF0FFFF1F638145F8B4
:104220001FE39C73CE39E79C73CE23FCFFFFB738A6
:10423000E75CEFADD7DE8B31C638639DF3DE5E946D
:1042400083D239A790DFFDFFFF6B7DEDC518E37BBF
:10425000EDBD17638C71CE7AFF72523AE798217EDA
:1042600010FEEF7C2DC69A8F724A1119D36AEDBDEC
:1042700018638C73D63C1C945242C608E137DF5950
:10428000E39C710EA29852B2A5D5DA7B31C638E70D
:10429000BDCD5909A16388F8DFF3BEB3B638FB4141
:1042A0008ED1964E7B31CE195B7BF5474AA964CA05
:1042B000E85BEFDE3FD758F39F101A7BCE5A2FD61C
:1042C0003BE38B754F6BA974CAEF9CFB1F7EC6370F
:1042D000F7A2940938CE596DC6195FBC85522BA13F
:1042E00013B8D63B88F1F7E642AD64389DB35A9CCB
:1042F00033C69787B5943AC66B9CB720417051106E
:104300004B865F49E9C539637C33414D29433EC63D
:10431000DA0F433EFF4829642A9DB35EAD77CE9BFA
:1043200024B79219F85EFD8B29FF07B5D211934E81
:104330007B37E73AEF919E4AE55F7B7930A6F03F05
:10434000944A444B39EBDD3A5B8BD172097D7D7128
:1043500026C68CCE4B62A8584AEDE59CE76B75717A
:104360004C99702FFE0599A2FF580AF12BABCD9BFB
:10437000EF7CB1676CA192EFE5011D238849A85F2E
:104380003AEBD57B637CF1676C9D82EFD51F9D6313
:104390000E32E3526AEFDE1B5F7BF35A2B9D816F77
:1043A000E6221D730E42E2566AAFD6F95E9B3D5B74
:1043B0000B159DF1EE0325A58ED0B6DABC33BED524
:1043C000DACC8F5B66748B332908A97448B5F76A19
:1043D000AD33AD17EB91184B5DDFAB8F3906A96399
:1043E0006EAD176BADADC53AFFB5D811F6E262926E
:1043F00031E8147DABBD18DF8BAFDEDAB8A5BEC6E1
:104400007623859031A2576B71CEF7DE9B332E8ACF
:104410002DF4EDF527A1634EC9D8DE7B33BEF766D8
:104420009DB3714CFD8DF3500995523AAFD5DE9B8B
:1044300031B657F3AF9632E45F3ED652A8F08CF314
:10444000B5176B3CEBE5BF23C5D4E1B81BA514FA47
:104450001E677DAFB5F8E27B2D1EAAAD93332F0901
:10446000A154C8AD57F35EEBC5F95EBC0D5BCA6BDA
:10447000ECCF52C9085B6FF7BC569D6FAD781F96A5
:10448000D4CF1897A5122AA4D6DBC7B6D46ABEB576
:10449000D56AB1C1EF1E2BA184C8A557FF7D2BCED5
:1044A00039673F565AC273DE13632C155BF1F61C55
:1044B0005F7B33DF05218348307717C7962196DE6F
:1044C000FCFFADF6F6CD7F49ED888C313F4D25F2EE
:1044D0007BDEF65A5AAF2661DBCBD54AC35FCBD120
:1044E0004AC810CFADB5D5629CF71F9612C452B022
:1044F00077A3858EF982DC6C6BB5376FAF371E887A
:10450000A973732E68A16406D9F6567BABDDD97FFB
:104510009C85724AE7EC3F4A6A9941749ED55AEBF2
:1045200079CEFA06D5D4C7188B93CA4A49E85A718E
:10453000B6F7EAFC3FFEE42984330F071D940EFA18
:1045400077DA8B71CE987FFDC95B48E34C4E4A28E1
:104550008D72AFAD175F7DF10EFAA89648AEF81CCC
:1045600075CE39C5529BF1AD97FB923377CCF08B6A
:104570003B59C81C5448BDF7DA7AB5DF19DFFF1480
:10458000C93787A28E4A487C6CEDB5D5F23E4EE520
:10459000A129816B2F281D93CEE9B65A7CEDE5FC4D
:1045A00077ABC75B5FDF2C8E3A271DC36DBD17E766
:1045B0009BF10E5FF3B7D2BD5C9C74CE39665B6A2B
:1045C00071BE5863FFAD3E8F9D6BF3380A956284D0
:1045D000AE35675C6FDE5F5BBF1E1A16FF61103A77
:1045E000CA047CEBB518F38E7BB7DA3C76F0CD24A9
:1045F000A5438C19B9D69CAFBD5BFB3DB97ACA5CAB
:104600009C073AC62074AABDBADBAAF7EE1793A797
:10461000CEA7B72354043286D0BA7796360BBF6F35
:104620002DACA16F2D37E99863CA8FF7FF3C6DF66B
:10463000BBDF9BDA3ABA62AE922907115CEFE7580A
:104640005EFD3FB6B831C533EE2319928ED134E703
:104650006CE9E55B67FDF773675FFCCD3A03997121
:1046600069E6FCCEDCF5C8159BB70EBE7C98444CC1
:104670004AB956FEF9B45A67BEF359EFFC8AB942FB
:10468000E21B8406BDBA6B6939EFD8E2C5D6CF36D6
:104690007F85CE41A5DB7A07BFD46E3EACC58E15B3
:1046A0007EF33F8718950CAE558F4DADCE7D5F2BB9
:1046B000DE4218EF600E51E9EC6A350F965AAD3FB5
:1046C000A7183D652EEE05197192CA94EE4FEACCFB
:1046D0007C8B6C3B7329DC3B102204A563EB155FDC
:1046E000C72A7EC6F61ED64E9FD728444C4282DA91
:1046F0002CBE9DD76B7DF16D2C7D7CF950681C74B0
:10470000BEB579636A35C7B856FE54D136FFA2905C
:1047100049E8679A79C7D3EAAE6FB5FFAD9FB11E7E
:1047200004A1A410C7166F9EA9CDFB6A7ACD5B28A1
:10473000DBECCD32E7946EABDEFFCEBB79EE142B13
:10474000A78EBD7EA0530C32B9DABCB9A57867BB81
:104750006B566F9D6BFB40A7184370B55F742AB30F
:10476000F818D3E05822F586820841A8587AFDE768
:10477000B5EA9EF1A5853D24EECD062163C8BF169E
:10478000878E27DD5F5F5B896369D4BB093208953B
:104790009FAB16FC4A9B45B7B81AB7D2A8771774D7
:1047A0000A327FD3FB3B9EF5FE9D6DDDCC2962ED89
:1047B00026879083C89FF77B4DA725C3E22A18530D
:1047C000C5622D0E42C8885CB3EF58DA2B38CD791C
:1047D000B3A6CEB5F91F654A19BFDADCF79CF6FF20
:1047E000AC2B464F196B3531C8983476C57ADB6AE5
:1047F000F3DFD4668C5E4AA4E25F5439E4FF8B7D1C
:10480000B6B4DAFD37CDD4BB8648BD829C638EF941
:10481000D6E6DFB5AC59105A29462F997BFB2FE815
:104820009C33F2C55DDF5BF1EE14DFBADF4AFA6A52
:104830003FD239886C7C75C6D8DA9CF1B475BF85D7
:104840003EAE3DA4734AE1FA76AE2BBD38E78A2B23
:10485000654C996CF34F8898833AB6DD6B4AB7E69E
:1048600079E2CC5D4385D34C8E32E6706FF1C61889
:10487000D3BB099F968ED6D0B03810731212FD6646
:10488000BEEFADF8E25F2BA6F92DB4ADFD43A1322A
:104890007EDF98F36C29D6D9CB7A2F6BA9F08BF7F2
:1048A00049099D8F31E7195F8C2FD7B4D2DE1C1ACE
:1048B000DAE652D04188EB9B37BE36EF9F2FB479B2
:1048C000A797CCB57C1875CAFF3A5F9F2FAD7FFFC5
:1048D0002A6FBD4F29922BD628298546BE5B638C53
:1048E000B3C6FFDF7CB17A6E7D69035A08219F2D24
:1048F000EE1BDFAB37D7F55A3C9E6358DE7F182A94
:1049000065707C35D7D6EEFFB1A5369BF69499F548
:104910009AB44A117F579BFBB638F3AF6BB67B391D
:104920009626ED46A562C8BF37739EEFDD7B5F7AA2
:10493000B377AF193BAF67EB9CD1F3DD3F607B7B77
:10494000F0795ACC5373CB4AFA133BC4FF702DF65F
:104950001FDFAC37AF1663F11AE3D46AB210192225
:104960006CACF7D63873FEF1BC983097CEB5F71B18
:10497000858EF0BCDECE3BAD58EF2BADCEE729B235
:10498000ABEE661D4142C7777F5C67FEFFCE99772D
:10499000722A116BB35166843F82C59C6B59F32F09
:1049A0005456CFC74BC6E3BB513A858C8F6FD63C6C
:1049B000D78B75AE12639DDE42D76273CAFFC7E81C
:1049C0006BC3C7B492A0E9A4FF0BC696E9349B94CD
:1049D000BE1886549BB5B6178F7C63FDFBBF944809
:1049E000B6F9AB534A11FC5E9DF3BDD9662CEBDDE5
:1049F000A9B5C4ABF5681D3286C137F39DADE55945
:104A0000DF7A7336CEB5232946AA8C72CCA795736C
:104A10005D2FCEF9D6AB356E6E153C35516814530B
:104A20003CB63A6F7CF3D67AD29CBB6BAD588AFF0A
:104A300042A510C331CE3A5FABF7CE76EE1CCE73F3
:104A40000C533CD429A39C9FB1DED9E2EEF5BE14F1
:104A5000EB6D946B02D76C94317F94AF33CEF966D3
:104A6000BE75AEF95AC21E43D4DE944C41C5FC9CBF
:104A7000B5CE18E7FF7B951777D6D4F137EB84BE18
:104A800041E76C7BB7BEB6FF8D21BD819FC494C941
:104A900016A7634421EA5B7BFFC638876F6FA47952
:104AA00027C6D0B0779B53CC3143DFBCF1A57A7CCD
:104AB0005CABD4D722D552B918A353883047609B3A
:104AC000B7B637EF6FA9E41A93F414CA189F5304CA
:104AD00027A9786B71D6B9E21C36AC59238794C1EB
:104AE000D81744CA18A76C6BB3C6F5EED12DCCDB32
:104AF0007EF296F11887634830AAEC5BF7BEF6EABF
:104B0000CD31A47BE4905A2BDAE674C80F44956B40
:104B1000EFDE38738C7395B65792D842386793CED0
:104B20000F03218EEFD5B6623EC6957377DFC76B54
:104B3000E8D7FB533ABD24D26FE6B75A5D7CAE513D
:104B40006E7DFF79ADE89A1B12FF9B4532AD5FDFAA
:104B50008C79B737EAD2ED36EFFD5CFB4965F09210
:104B6000C8C7575F6B79D9F9CEEA33FEC9B994EB60
:104B700055EAFC3F4ED919678CB3EE5B673B3BC9E6
:104B8000F8B78774CD25952FC8317F6F7D6BF57F82
:104B9000707CEBFCE697C49ADA3993448AF8E67C99
:104BA0004D6DCE7B7BBFF39D76684ED04304DB8B8F
:104BB000CC3185844F32B63763CDB7BD9462BF35F3
:104BC0006B8CF08C892AE67F42C8C7D7D6FEFBCF14
:104BD000F7D229D4EFF634767EDD0595FE0B32A1AF
:104BE0005A9D35BE7DEF4C65361AEFE6D6C8759FE7
:104BF00074C416E77C8BF3ADFA93802DADF91C8C51
:104C0000517B27D76D54197D98F331CEF9DABDC5A4
:104C1000CEF8D25F34BEEB3561E74EEBE83D90E96C
:104C200036EB8CF3DEFE635CED471FF3C3DCC1584B
:104C3000A363FC28A6E87C71D658EFCD33A6749BFD
:104C4000DEB1794FD96A55227D9313B8C6585FCC2F
:104C5000C7E77A57BA0FD216BF87EEDC6699EFCB5B
:104C600039FE5AAC33D6BBF47D6FBD1F099C8F7BD8
:104C70008A569BD2D9FEA0A3B1DDFADE2C86CFF8EE
:104C8000D29A4EA6B53DE76B2ECAFC3C540A9866F4
:104C90008E2DCE216C7B2FC484F469CB5326E37117
:104CA000CCDFBDA0C139BEFA62ADBFD8F8D22CCCE2
:104CB000A65AB97670CD0A9DFD0932FAE2ADF3C568
:104CC0007E889DEFB5FD9C4B476B69D8BA5532DBAA
:104CD000134474E639DFDDFDE7395F5B3749F71EC2
:104CE000C7CCB678A443742F6860AC39C7171723B4
:104CF0002CB5369BA2696E6F7D5CBB31A7F8410E67
:104D0000D95C5B7C7D107FDF8C6B2E67CCEA1F2328
:104D100098EAB2D0D87E1CD337C7F7622DBEBF1732
:104D2000DB5C4E9F96BF5770C54521B27B3185FF36
:104D3000706DC59C907F2FAE759883AB654D898B48
:104D40003F4286FF918CF77BD67A35F9DB5A6BA907
:104D500038A4CEBA962A1A6B918C083F99CEBFC65A
:104D600034DE8F4CB63563CD87B635B487C8C5FA07
:104D70009CB0F741A5EB7CF1BC791C8FEDC4367378
:104D8000E2393E6FA17BB34147741F8E313FDB5840
:104D9000F526625F6AF3C5D9948C8D7347ECFB11DD
:104DA000427B7F824CEF955A8BCBDFB8E27BE9EDFB
:104DB0003FE4AE9E3AF70A934CD802A5F2EDBD1837
:104DC000E73EB0ADB8535A0BE2B922C68EB75AA42B
:104DD00054343F28ED7D35C6F8F29FF1ADD6564EDE
:104DE00038E6C7B5936D360919EEBF4146646B6D61
:104DF000D55EF02EEFCD18E3BCBD612C9D72B54E93
:104E00000891AF3F6106577AB31E5C636BAFBD98E4
:104E1000987BFB5BEA73ECC9318788A27F216756D8
:104E20005BF3E7A1DE7BEDAEB88B9C8F6369ECACE6
:104E3000BF42677061060A78529BF921D8D69BB5AC
:104E4000F59FE3F8D34B22633E504246F0FF8FE1DB
:104E500074D22DC6BE17E77C6715CAF0AA99633FC6
:104E6000FB720A2963904F0CC7B6DADFF9C55AE71F
:104E70009D27D669D34ADE63F96A839039DEE85DFF
:104E80008EF172E22CBEBEF6DE9CAB2DA6D46ADBA0
:104E900053045B4D123286E8AC51FA97D29B0DE970
:104EA000B7DACBEDC525896B097BCC585B5242E55F
:104EB000672D0EFADA52EB85C018EBAC71BDDDFC44
:104EC0006E837ACDDBEA8942E877ECBD21C1D28AD4
:104ED00083181ADB7C35B6B698B0EB518D18AF4706
:104EE00051E71863F33E8B6C1B31FF06E37B71D6F1
:104EF0007BEAD135CDC9A99173FF4519F4F3EEA52D
:104F0000114CE9D6BFF45C29D6D8D6A10CA738B18C
:104F100065FEE526A12082FFDDAC216ABC9F907C66
:104F2000AFB55DF3ABBFD777979706CFBA1475C807
:104F3000D85A9C84AEA537FF2EAACD786F3E6F3627
:104F40003BD33C9E3A1C7F729029E3632E94C2D7D8
:104F500056DDFFC6D65AAB37B6B8175D3F7F2A7904
:104F60009E8351A8FCBDC54965538A6FF63A53DB51
:104F700073AED5FE22B4358BAD9275370919F3BDEA
:104F80002E46951CABE5DC93AD29DD19DF7C8CA7A3
:104F9000F4AC8648D65F2513BEEF3F246538AC37A6
:104FA0001863AFCD78F75DAD2022DF9C9A42FFEA0F
:104FB000915419667BFFFF09BBD2BCFDC8F5DABD71
:104FC000359E9497FF376A2B959B0352869CFF7BF7
:104FD0001FC9783AA70F26576B71D776CE51C8B73D
:104FE00086358638EE492551FE207A9813A8ACF90B
:104FF000179DEDC539FF7AF320DFDEB49C2AF596C4
:10500000A410197EEF4DCEF995E2CC87DE16E79C11
:10501000BBA59893FF7B524B6D9D8B51A610F2BFA1
:105020001743787CE9D581DC6AEF0E1DC79B49E701
:10503000BB3C65C4BE9BAC3446F9627B71049EF5F3
:1050400072A2B3AD57F74FABEDE66F9D9C435E5A2E
:10505000DF54E2FBF3B1F938814ABA3F29B8D6EA06
:10506000FDC0D56A22C440AB1D93332F299DF0C5E6
:10507000FFB98FC429BC598C7FEBBDFAFB6C2DDEC8
:10508000BB20B6D2D87A9B9492F0BFF86CB331862D
:10509000D68BEFD6195B8CB3E6D2DE2CCA5089A929
:1050A000F27BD608AD4188CEFF1BB22FACDAFF8E63
:1050B0006DCD19E74C371EC717DDDC32FC6251920B
:1050C0003141687DCB41FD4E8B85F8D6DE9BF9D70B
:1050D000B4EA5F0A31E6A9532CD62721F2F5165C13
:1050E0007F7F3A9DF47AD1B3C558F7ADADC5BB13F8
:1050F0007ED23AA7E09D5151A674A17DE743905D11
:10510000EBC5DD7B5D2DD65DD06AAF3646AD64481C
:10511000D05D1C940EF11F6B5C0EFA57D6FB05D9BF
:10512000B8DADCCB9F15F36390314B9950AF49AAA5
:10513000F8FCFFF07713F3EDB4F9072D2DD6DC73EF
:105140004D29DEE590C39632DC5E829029DD0FCEDC
:10515000F11E856B7AB1CD7B676AEF17FECE997D24
:1051600021672496CEBE9A0F768ED79E779CF1311A
:10517000044F7BB3DFF8DEFD73AEB3E652F82F8F3A
:10518000A19F71FE099DF07FD8DBDE6246C7B4E2C5
:105190009C3DCF33FFD163B53B1113BC59EBF48B6E
:1051A0007B49AA7CADB5CEBE986267C5FAEF6CEDBF
:1051B000D57DEC4B2726A61C83DA193B633E542A87
:1051C000E3EF9DF10D027D2BEDFD5EF08B6F0E3E4A
:1051D000CF9AB736FF2BE490E9FBFAC192E95AF473
:1051E0006F6F2EE8885B2DC61DF39DF5E5F852EA3A
:1051F00097E27B33A6CACD9C1C3446F825EB5CF9BC
:1052000041265B3BAFF664636BF3D759D67F50FF03
:1052100019B185CACD79A07348E69FFBAC45F81C4F
:1052200067CDB5BD17772EBEBDD2E2834EC65FB146
:10523000547ECDC42442FEEE1A67DC092AB8DA8B0C
:1052400077D636E7DD37BED0DA8FC4E05FAD85367E
:10525000CE9B9C834C21FADA8A7F4126DC6BF1CD10
:105260005967BE73B676522C4A3AFF2886FCCE5A4E
:105270001CA402CF5867BC3941E6DF69EDF55BEB52
:105280009BB5C5B3563C12EAF92B8608BF99A364B7
:10529000C6DE5CEFABF95767547BB5DE17DFBB7733
:1052A000CEB656CA3B3969ADF47BEEFE1C744AA9F2
:1052B0001AFB7EF546A8E42C71BE99EF8FADB5FBC5
:1052C000E27BB12785A585CCC6588BA38EE09C7365
:1052D0007DEF30495C59B32803DB8BB3C63857AC3C
:1052E000B31948297548D77B0C744EE8B7637DAD78
:1052F0003F0A8D7AADC639E7BC71B6F6627B2F21C5
:10530000E7F7C5D6197AE741102ABC6FBD71DE6593
:10531000ADB265B5DC87AEEDC55AE76D6BC5C71894
:1053200054D442A563AD113A45E82D32CFD60F854E
:1053300082BF15578CF5C6165FDCF9A6D692419050
:10534000612A959F2F2E2819B2AF0EE2D7CC553285
:10535000FD567B71F67E637BAFFE9856BC52C157FB
:105360002F850CC7389F734AC0FC8F72711EE80CE2
:105370005E71B6B75EFC79B718EF7D6BCD1A9DA450
:10538000D421FEE66C4E4AE7F3AB75F8DC2065BE2F
:10539000B455732FF6B557F3BEB1AC381C54042F77
:1053A0006AA58F71E627A5C1B3CEBB63AE4B31A50D
:1053B000568B71BE18EB9D6DBD5A906A2D170CA1CE
:1053C000440AD63C1485CCF1D9721E84F565993C0B
:1053D000ABD5E1FF9CEBAD9A0F6FE9E5C7942118BF
:1053E0005AA26B9BCF4928F08B3DFF197B53D6D037
:1053F000B7628BB3CE3CE76BB30FF846ACCD29E96F
:105400002C6436C6BC24757EBF7A17B1AB2D491902
:105410007FA7DD418C8EABDD5D8420A7CD45994112
:10542000F1670A699CB749E8E0ACBF293C4F6D10B1
:10543000FA3B67ADEDA5F893F271ADF70B51F5CDE1
:10544000BB28B5D2F11AE76E542A256B2C3AAEF67A
:1054500023764ABD56EF3FC6CDF76AFCF7DE3762CA
:10546000BE10C798A3964EC6B70F858AC6D98BC102
:10547000F1D522A5FFF7D538DB9A3511F75A9BF500
:10548000D8F4DE6E4E4AE89CBF31FE2A25C177CEA5
:10549000E3878B3F5224CF6985281B5F7BBDFFFCD0
:1054A000669AF10E241963545223E8BC8D4A26E40F
:1054B000AB2F193A7464CED773DF8DA7B5FEFFCE3C
:1054C00029BED9E37E2F4F4931852EB5D83095F8C6
:1054D000CE5A87DE71D6FC30957AAEF66EFDF9AE07
:1054E000F662ED89AE92E6B090C9591F844ABF5862
:1054F0001F944CC0378BDF33FEE5182204D7955636
:105500007BB1E63DDB6B73F6FBE29B3F57892D34A5
:10551000F2BDFCA44444E6B9888FADE645A5F2731C
:10552000C637DF8B73BEB6DEAB7FBE755EA3D4CF4E
:10553000B61F968CC6990F84CCD79A7BD275BD9A2C
:1055400094F28731C2525AEDC57AF7F13BA5156B3B
:10555000DE33D70C9D320839A6FC40D0423CDFDD5B
:105560004F0AB8DA2C4E4AFFE38CADB5166BFF73C9
:10557000C617E76A2DD6081D91F34E4D8D9DB32FAA
:105580000B8D7D351F24587BF92884ECFD8BB0935F
:105590004E9B7FF83C639B73AED49AA48ABF769FE0
:1055A000958CC8389F9388CF798FDFAFDDDBFFFE06
:1055B000FF383FD769ABBD37FB4E3EB7F5568BF989
:1055C00059E8E79B3F626A6CAC395148E4BB3B3118
:1055D000E4DACBFD179BF76104B715675C69C5DC9E
:1055E000946F2BCE5A6B4190EFFBABC6D4D7D7EA62
:1055F0009112F9FA5EFE47DF7BEBDDF1C6FB90F21C
:1056000031B536E39BB1CEF8E2AD33AF6408A3AD5C
:10561000DDAD2944F4BDA19C537ECEBDFCAF6FE649
:105620009DF77AF13926FC8BEDDD365F9CBFEFD814
:10563000DA9B71D648A560A5DD4B2D13F0CDBF1CBC
:105640002376CE5FEC8C73EF42DF8B85316167DEB2
:1056500089D8B7DA9BFFFF5D537BF1BD3DB565E6A9
:10566000B4DC3895FEB6791B6482C6FA17532EB6A1
:10567000BA8FB171CDF997F2F7D63AE39BB1DE7BE1
:10568000E79DB5D61A678F8CC9F566E31AFBB65E3F
:105690009DD2E9176B8E4AB836FB503EB696FF5145
:1056A00088109DF39C71CE7CEF8C75CEF7DA4A4C56
:1056B0002A9BDA4BCE528874CD39193D674FCCF80E
:1056C000DA5EEDC9F8BA5A9C3B29460C8D73BD775A
:1056D000F37C2DCE9D776B6DBD44A5D22DB505A96C
:1056E0007408C6F98F537EC6FD9BDF73BD5F08A1AA
:1056F000B3BD3AF731C6F8FB566B75C6D7DEFFCBA4
:10570000B6B656CD9529B8E26D983A826BBE4F2950
:10571000FB5EFDCF21FB5E9CFF2F58DB8C3DFF9C89
:10572000934FB095F66EBEB7DE79E78BEDBDDBA388
:105730002132CE01AD8510E13CEFDDFBD0E4FF5F0F
:10574000AFE5FDF370EFB65BE38D730F04F52DED60
:10575000B57973EEF7BE58675FAFFE64708DF15197
:105760006B9983EFC59B183278CF19EB8C35199F55
:105770006C7EB1C538E7ECC31904DB7A2FDF7B5FA1
:105780008C31EF64645BEFFFC6948DB1384BA1A000
:10579000AFBDFA0F31C6E73CE36B2FDFC818B26F1D
:1057A000AD386753CAF9F8D28BB3107FF08EADB520
:1057B0009A8751883878577AC3512AA1BD2DCE9F38
:1057C00090FFFB0EBAEBAA2FEF9F8CCDAFBD38E751
:1057D000BCB5EE9CE39CAFBD18EF1E36E7D77ECE7E
:1057E000B3AD5AA873F4AD16A3A350E919DFBCC535
:1057F0002FC47FAE35C6F9E6ED8DD8FA62ACBFDEB8
:105800003B63FDFFF85F678C75FEE1F37E31D6DB0D
:10581000938F312E05F53CEB25A92DD46DAD578C1A
:105820005286FF9C6B7C6DD6DF14B1F1CDF9F39CF1
:105830002FC65A6B1EC2D797568B7720E4E72AED06
:105840000EC6146EEDFE05955F6D1E68A5A0ADCD6C
:105850009B14F177D6FA738D6DD6C1987DEDCDFA94
:10586000F38CEDBDBBF7FF79BED7DE9C7720E46FEC
:105870006B2BDE8198BF73ADBB07F20939281D7F02
:10588000A7BDA11C54B2B537EF42C4FF5A6B8CB10F
:10589000D69D739EAFBD59F750BEC6F85E7BF3EE42
:1058A0003DE47CB1CEA26C7B29CEDE18F3F1250657
:1058B0009D22A8C53C1C53B2B536FF303EC7F7EE5B
:1058C0001DFEDF39579BF30EE1E37CAFEE9CF3BD89
:1058D00031BE1763ACBB28E55F7CF3D51877718CBC
:1058E000D1F8E690120AB956CC452923E39B730FF1
:1058F0007FE79C330F1BDB8BB5E63CE76C6FE76102
:105900006F6CAFEE3C847DF1BD5877B137CE7CEF44
:105910005D6BC5B9206482B5F71374CAC6F66E52C2
:10592000CAE7F866DF03CF39F3F0BFBEB6E2DD4564
:10593000CEF76A11FEC6F662DD39E7F85EAD7BCEC2
:105940003967CE45D017DB8BB517A5944B2BDE05F9
:10595000214374C637E72FC8FF1B5F7BF3F6857CB6
:105960008DEFC5DA8BB0B1BD186FAD75CE17EB2ECC
:10597000CAFF175B9D3B177B5F6C75EE9C8BFFF33B
:10598000AD390F53D0F0D7529CBF28E4E38BB1F66A
:10599000227C8D71CE39E7CCF7DE17DB8BB51E226A
:1059A0007C5DABCD790FC137CE9973B139E63CEC54
:1059B0008DAFCE9D736E2FF6A294922FBEBA8FF04C
:1059C000FFCF5A5F9C73EE5C84AFAFBD586BED396F
:1059D000CE39739CEDB5797F5388C6D6E63FCADFD2
:1059E0001BE7DC39DFD85EADBB41A76B5B2FDFA3C4
:1059F00090FFF5CD39E7ECF908C6FF5A2FD6C3144E
:105A00008DADB579FFCE39CE575FAD75D65D84BF0C
:105A100071BE576B12C2DE38E7CE79CE39679F3B35
:105A2000E7E27FBDF7C638F711C2CF16DB9CFD1049
:105A3000215F8C73CE3977BEF7BEF562BC7F1F7BCA
:105A4000637BB5FE9DF3BDF7DE7BDFAAB31F42E4A7
:105A50005B6BDE7F88F0B3D67BEFCBF71E21603B1C
:105A60006DFEC31472AFBD999352BEB617E3FD3BF2
:105A7000E71B637CB3D69DF3BDB7D65A6BADEDC5BE
:105A80009CF37D31C69C73BEF7C5988F21B4BD9839
:105A9000F331C4BD18E7DE3BC71867CE39C638738B
:105AA000CE39C636E7DE3BDFF762DE39C617E3CC18
:105AB00079CF78EBBDF7C5776FCE39C65AEFBDF712
:105AC000C577EF31F8B6F7EEDD7BC6786F3E36BEB0
:105AD000F5E6EE49EFD7DA9CBDFF39DB8C7B27BDBD
