:100000000C9477000C94A1000C94A1000C94A10016
:100010000C94A1000C94A1000C94A1000C94A100DC
:100020000C94A1000C94A1000C94A1000C94A100CC
:100030000C94A1000C944E160C94A1000C94A100F9
:100040000C94A1000C9417110C94A1000C94A10025
:100050000C94A1000C947B160C94A1000C94A100AC
:100060000C94A1000C94660F0C94A1000C94A100B8
:100070000C94A1000C94A1000C94A1000C94A1007C
:100080000C9421160C94A1000C94A1000C94A100D6
:100090000C942D0F0C94A1000C94A1000C94A100C1
:1000A0000C94A1000C94A1000C94F4150C94A100E4
:1000B0000C94A1000C94A1000C94A1000C94C71501
:1000C0000C94A1000C94A1000C948C100C94A10031
:1000D0000C94A1000C94A1000C94A1000C94A1001C
:1000E0000C94A10000000000000000007F1011240B
:1000F0001FBECFEFD1E2DEBFCDBF13E0A0E0B2E084
:10010000E6ECFFE200E00BBF02C007900D92A839B9
:10011000B107D9F713E0A8E9B3E001C01D92AE3BE7
:10012000B107E1F710E0CEEED0E004C02297FE0167
:100130000E94DE17CC3ED107C9F70E94D2100C9462
:10014000E2170C940000CF93DF93CDB7DEB723976F
:100150000FB6F894DEBF0FBECDBF9A8389836B8341
:10016000E981FA818B81828323960FB6F894DEBFF2
:100170000FBECDBFDF91CF910895CF93DF93CDB761
:10018000DEB723970FB6F894DEBF0FBECDBF9A83BC
:1001900089836B83E981FA818B81848323960FB6EF
:1001A000F894DEBF0FBECDBFDF91CF910895CF93FE
:1001B000DF93CDB7DEB724970FB6F894DEBF0FBE3E
:1001C000CDBF9A8389837C836B838B819C818F3F96
:1001D000910509F030F4E981FA818B819C8191834A
:1001E0008083E981FA818081918181509F4FE981EB
:1001F000FA8197838683E981FA81208131818FEFAB
:1002000090E0821B930BE981FA8191878087E981D5
:10021000FA818081918181509F4FE981FA81938792
:100220008287E981FA81208131818FEF90E0821B02
:10023000930BE981FA819587848724960FB6F89409
:10024000DEBF0FBECDBFDF91CF910895CF92DF9279
:10025000EF920F93CF93DF93CDB7DEB72A970FB608
:10026000F894DEBF0FBECDBF9A838983E981FA81FE
:1002700083819AE0692F0E94A117892F992787FD12
:100280009095880F991FFC01E050FE4FC080D180EF
:100290000E947A09EE246894E3F801E025E043E047
:1002A000B6010E949004E981FA8185819AE0692F64
:1002B0000E94A117892F992787FD9095880F991F74
:1002C000FC01E050FE4FC080D1800E947A09EE24EC
:1002D0006894E2F801E025E043E0B6010E94900452
:1002E000E981FA818381282F332727FD30953A87CA
:1002F000298789859A858230910549F129853A8532
:100300002330310534F489859A858130910561F077
:1003100056C029853A852330310561F189859A8552
:1003200084309105D1F14BC0AAEAB0E0E981FA81AD
:100330008681978111969C938E93ACEAB0E0E98117
:10034000FA818085918511969C938E9338C0AAEA94
:10035000B0E0E981FA818085918511969C938E9316
:10036000ACEAB0E0E981FA818085918511969C9391
:100370008E9325C0AAEAB0E0E981FA818085918553
:1003800011969C938E93ACEAB0E0E981FA81868164
:10039000978111969C938E9312C0AAEAB0E0E981EE
:1003A000FA818681978111969C938E93ACEAB0E096
:1003B000E981FA818681978111969C938E93E981D8
:1003C000FA818381982FE981FA818281890FE981FD
:1003D000FA818383E981FA8183811886853014F05C
:1003E00091E098872885222321F0E981FA8181E034
:1003F0008383E981FA8183811F82181614F031E02A
:100400003F838F81882321F0E981FA8184E083830F
:10041000E981FA818581282F332727FD30953E8396
:100420002D838D819E818230910549F12D813E8100
:100430002330310534F48D819E818130910561F046
:1004400056C02D813E812330310561F18D819E8121
:1004500084309105D1F14BC0AAE9B0E0E981FA817D
:100460008285938511969C938E93ACE9B0E0E981E7
:10047000FA818485958511969C938E9338C0AAE95C
:10048000B0E0E981FA818485958511969C938E93DD
:10049000ACE9B0E0E981FA818485958511969C9359
:1004A0008E9325C0AAE9B0E0E981FA81848595851B
:1004B00011969C938E93ACE9B0E0E981FA81828534
:1004C000938511969C938E9312C0AAE9B0E0E981BE
:1004D000FA818285938511969C938E93ACE9B0E066
:1004E000E981FA818285938511969C938E93E981A7
:1004F000FA818581982FE981FA818481890FE981C8
:10050000FA818583E981FA8185811C82853014F026
:1005100091E09C832C81222321F0E981FA8181E002
:100520008583E981FA8185811B82181614F031E0F8
:100530003B838B81882321F0E981FA8184E08583E4
:100540002A960FB6F894DEBF0FBECDBFDF91CF91D4
:100550000F91EF90DF90CF900895CF93DF93CDB7B9
:10056000DEB7A8970FB6F894DEBF0FBECDBF9E8F43
:100570008D8FABE0B1E0EBE0F1E0808180688C939F
:10058000ABE2B0E0EBE2F0E080818F788C93ABE2FD
:10059000B0E0EBE2F0E08081282FED8DFE8D8089C8
:1005A00099278770907082959295907F9827807F89
:1005B0009827822B8C9319861A861B861C8649C025
:1005C00029853A854B855C852DA33EA34FA358A76B
:1005D00089859A85AB85BC852D8D3E8D880F991FA9
:1005E000FC01E20FF31F40815181ED8DFE8D80896A
:1005F0009927880F991FFC01E054FD4F8081282F17
:1006000033278FE090E0BC01621B730B9B0181E0FC
:1006100090E0022E02C0880F991F0A94E2F784230B
:1006200095231CA2009711F071E07CA3CE010D96DA
:10063000EDA1FEA1E80FF91F8CA1808389859A8521
:10064000AB85BC850196A11DB11D89879A87AB87B3
:10065000BC8789859A85AB85BC8588309105A105C5
:10066000B10508F4ADCF1D821E821F8218864FC0CF
:100670008D819E81AF81B8859C01AD01285F3F4F80
:100680004F4F5F4F28A339A34AA35BA38D819E815F
:10069000AF81B8852D8D3E8D880F991FFC01E20F2B
:1006A000F31F40815181ED8DFE8D80899927880F40
:1006B000991FFC01EF53FD4F8081282F33278FE0D6
:1006C00090E0BC01621B730B9B0181E090E0022E65
:1006D00002C0880F991F0A94E2F7842395231F8E86
:1006E000009711F071E07F8FCE010D96E8A1F9A17E
:1006F000E80FF91F8F8D80838D819E81AF81B88532
:100700000196A11DB11D8D839E83AF83B8878D8116
:100710009E81AF81B88588309105A105B10508F4A7
:10072000A7CF19821A821B821C8235C089819A81C7
:10073000AB81BC819E01235F3F4FF901E80FF91F98
:100740008081882341F0ABE0B1E0EBE0F1E0808113
:1007500080628C9307C0ABE0B1E0EBE0F1E0808118
:100760008F7D8C93ABE0B1E0EBE0F1E080818061C4
:100770008C93ABE0B1E0EBE0F1E080818F7E8C9375
:1007800089819A81AB81BC810196A11DB11D8983AC
:100790009A83AB83BC8389819A81AB81BC81803190
:1007A0009105A105B10510F2ABE0B1E0EBE0F1E09D
:1007B000808180648C93ABE0B1E0EBE0F1E080817C
:1007C0008F7B8C93ABE0B1E0EBE0F1E090818FE7C1
:1007D00089238C93ED8DFE8D80898F5FED8DFE8D4D
:1007E000808BED8DFE8D8089883019F4ED8DFE8D26
:1007F000108AA8960FB6F894DEBF0FBECDBFDF916A
:10080000CF910895CF93DF93CDB7DEB726970FB67C
:10081000F894DEBF0FBECDBF9E838D83ED81FE8138
:10082000108A19821A821B821C820FC08D819E81C0
:100830000E94AD0289819A81AB81BC810196A11D84
:10084000B11D89839A83AB83BC8389819A81AB81F3
:10085000BC8188309105A105B10540F326960FB6FD
:10086000F894DEBF0FBECDBFDF91CF910895CF9337
:10087000DF93CDB7DEB729970FB6F894DEBF0FBE72
:10088000CDBF9F838E8379876887EFE5F0E0908105
:1008900080E889238D83F89419821A821B821C8236
:1008A00025C049815A816B817C8189819A81880F19
:1008B000991F9C0188859985F901E80FF91FA0818E
:1008C000B1812E813F81CA01880F991FFC01E20F7F
:1008D000F31FB183A08389819A81AB81BC8101968A
:1008E000A11DB11D89839A83AB83BC8389819A81C1
:1008F000AB81BC8188309105A105B10590F2AFE5CF
:10090000B0E0EFE5F0E090818D81892B8C93299602
:100910000FB6F894DEBF0FBECDBFDF91CF91089523
:10092000EF92FF920F931F93CF93DF93CDB7DEB774
:100930006D970FB6F894DEBF0FBECDBF9B8B8A8B31
:100940007D8B6C8B4E8B2F8B088FE98EEFE5F0E063
:10095000908180E88923898BF8941D861E861F86E6
:10096000188A888D9927AA27BB2789879A87AB87FA
:10097000BC87D8C01D821E821F821886898D992748
:10098000AA27BB2789839A83AB83BC8392C08D85BA
:100990009E85880F991F9C018C899D89F901E80F1C
:1009A000F91F408151818E89282F33278D819E81A7
:1009B000B901681B790BCB0101979C0181E090E0A4
:1009C000022E02C0880F991F0A94E2F78423952310
:1009D000009761F1E984FA840B851C8589859A85E5
:1009E000AB85BC852A893B89880F991FFC01E20FE2
:1009F000F31F4081518129813A818FE090E0821B71
:100A0000930B9C0181E090E002C0880F991F2A950A
:100A1000E2F7482B592B2A893B89C701880F991F78
:100A2000FC01E20FF31F518340832DC0E984FA8457
:100A30000B851C8589859A85AB85BC852A893B8970
:100A4000880F991FFC01E20FF31F4081518129811A
:100A50003A818FE090E0821B930B9C0181E090E053
:100A600002C0880F991F2A95E2F780959095482338
:100A700059232A893B89C701880F991FFC01E20F7E
:100A8000F31F518340838D819E81AF81B88501968C
:100A9000A11DB11D8D839E83AF83B88789819A8103
:100AA000AB81BC810196A11DB11D89839A83AB8363
:100AB000BC83898D282F33278E899927820F931F16
:100AC0009B8F8A8F8A8D9B8D8131910524F060E107
:100AD00070E07B8F6A8F8A8D9B8D9C01442737FD48
:100AE0004095542F89819A81AB81BC8182179307ED
:100AF000A407B50708F44BCF8D859E85AF85B889CF
:100B00000196A11DB11D8D879E87AF87B88B898502
:100B10009A85AB85BC850196A11DB11D89879A87F1
:100B2000AB87BC87888D282F33278F899927820F21
:100B3000931F9D8F8C8F6C8D7D8D6930710524F096
:100B400088E090E09D8F8C8F6C8D7D8D9B0144277C
:100B500037FD4095542F89859A85AB85BC858217D2
:100B60009307A407B50708F405CFAFE5B0E0EFE5BC
:100B7000F0E090818989892B8C936D960FB6F8945B
:100B8000DEBF0FBECDBFDF91CF911F910F91FF90C0
:100B9000EF900895CF93DF93CDB7DEB763970FB68D
:100BA000F894DEBF0FBECDBF98878F836987EFE5CE
:100BB000F0E0908180E889238E83F8941A821B826A
:100BC0001C821D8278C08A819B81AC81BD812F816E
:100BD0003885880F991FFC01E20FF31F80819181F6
:100BE0001982992314F481E089834A815B816C81A5
:100BF0007D818A819B81AC81BD812F813885880F61
:100C0000991FFC01E20FF31F80819181DC01AA0F83
:100C1000BB1F2F813885CA01880F991FFC01E20F85
:100C2000F31FB183A0838A819B81AC81BD81888BB6
:100C3000998BAA8BBB8B8A819B81AC81BD812F81D3
:100C40003885880F991FFC01E20FF31F0190F08196
:100C5000E02DFF87EE878985882379F089818823B5
:100C600029F0A1E0B0E0BB87AA8702C01B861A86E4
:100C70008A859B859D878C8702C01D861C864E8534
:100C80005F85AC85BD854A2B5B2B2F813885888994
:100C90009989880F991FFC01E20FF31F518340834C
:100CA0008A819B81AC81BD810196A11DB11D8A8382
:100CB0009B83AC83BD838A819B81AC81BD8188305D
:100CC0009105A105B10508F47ECFAFE5B0E0EFE5F1
:100CD000F0E090818E81892B8C9363960FB6F89407
:100CE000DEBF0FBECDBFDF91CF910895CF93DF93CD
:100CF000CDB7DEB763970FB6F894DEBF0FBECDBF9A
:100D000098878F836987EFE5F0E0908180E88923F9
:100D10008E83F8941A821B821C821D8276C08A817F
:100D20009B81AC81BD812F813885880F991FFC0183
:100D3000E20FF31F808191818170907089834A81D5
:100D40005B816C817D818A819B81AC81BD812F819A
:100D50003885880F991FFC01E20FF31F8081918174
:100D6000DC01B695A7952F813885CA01880F991F98
:100D7000FC01E20FF31FB183A0838A819B81AC81C8
:100D8000BD81888B998BAA8BBB8B8A819B81AC811F
:100D9000BD812F813885880F991FFC01E20FF31F59
:100DA0000190F081E02DFF87EE878985882379F017
:100DB0008981882329F0A0E0B0E8BB87AA8702C018
:100DC0001B861A868A859B859D878C8702C01D8617
:100DD0001C864E855F85AC85BD854A2B5B2B2F819C
:100DE000388588899989880F991FFC01E20FF31FC4
:100DF000518340838A819B81AC81BD810196A11D75
:100E0000B11D8A839B83AC83BD838A819B81AC8126
:100E1000BD8188309105A105B10508F480CFAFE50B
:100E2000B0E0EFE5F0E090818E81892B8C936396A2
:100E30000FB6F894DEBF0FBECDBFDF91CF910895FE
:100E4000CF93DF93CDB7DEB72C970FB6F894DEBF04
:100E50000FBECDBF998788876A87EFE5F0E0908164
:100E600080E889238F83F894E885F98580819181D2
:100E70009E838D8381E090E0A0E0B0E089839A8337
:100E8000AB83BC832CC089819A81AB81BC81AC01CE
:100E9000BD01415050406040704089819A81AB81D2
:100EA000BC8128853985880F991FFC01E20FF31F4B
:100EB000A081B18128853985CA01880F991FFC015D
:100EC000E20FF31FB183A08389819A81AB81BC813A
:100ED0000196A11DB11D89839A83AB83BC8389814F
:100EE0009A81AB81BC8188309105A105B10558F28A
:100EF0008A85882329F08D819E819C878B8702C0FB
:100F00001C861B86E885F9858B859C859787868757
:100F1000AFE5B0E0EFE5F0E090818F81892B8C9315
:100F20002C960FB6F894DEBF0FBECDBFDF91CF91E8
:100F30000895CF93DF93CDB7DEB72C970FB6F89413
:100F4000DEBF0FBECDBF998788876A87EFE5F0E0E7
:100F5000908180E889238F83F894E885F9858685D8
:100F600097859E838D8387E090E0A0E0B0E0898341
:100F70009A83AB83BC8329C049815A816B817C8170
:100F800089819A81AB81BC810197A109B10928852A
:100F90003985880F991FFC01E20FF31FA081B181F1
:100FA00028853985CA01880F991FFC01E20FF31FBC
:100FB000B183A08389819A81AB81BC810197A1090A
:100FC000B10989839A83AB83BC8389819A81AB8180
:100FD000BC810097A105B10579F68A85882329F09F
:100FE0008D819E819C878B8702C01C861B86E8852D
:100FF000F9858B859C8591838083AFE5B0E0EFE533
:10100000F0E090818F81892B8C932C960FB6F89409
:10101000DEBF0FBECDBFDF91CF910895CF93DF9399
:10102000CDB7DEB722970FB6F894DEBF0FBECDBFA7
:101030009A83898389819A8160E00E94CA052296F9
:101040000FB6F894DEBF0FBECDBFDF91CF910895EC
:10105000CF93DF93CDB7DEB722970FB6F894DEBFFC
:101060000FBECDBF9A83898389819A8160E00E94F7
:10107000760622960FB6F894DEBF0FBECDBFDF9185
:10108000CF910895CF93DF93CDB7DEB722970FB6F8
:10109000F894DEBF0FBECDBF9A83898389819A8180
:1010A00060E00E94200722960FB6F894DEBF0FBEC4
:1010B000CDBFDF91CF910895CF93DF93CDB7DEB74A
:1010C00022970FB6F894DEBF0FBECDBF9A838983F7
:1010D00089819A8160E00E94990722960FB6F89460
:1010E000DEBF0FBECDBFDF91CF910895CF93DF93C9
:1010F000CDB7DEB722970FB6F894DEBF0FBECDBFD7
:101100009A83898389819A8161E00E94CA05229627
:101110000FB6F894DEBF0FBECDBFDF91CF9108951B
:10112000CF93DF93CDB7DEB722970FB6F894DEBF2B
:101130000FBECDBF9A83898389819A8161E00E9425
:10114000760622960FB6F894DEBF0FBECDBFDF91B4
:10115000CF910895CF93DF93CDB7DEB722970FB627
:10116000F894DEBF0FBECDBF9A83898389819A81AF
:1011700061E00E94200722960FB6F894DEBF0FBEF2
:10118000CDBFDF91CF910895CF93DF93CDB7DEB779
:1011900022970FB6F894DEBF0FBECDBF9A83898326
:1011A00089819A8161E00E94990722960FB6F8948E
:1011B000DEBF0FBECDBFDF91CF910895CF93DF93F8
:1011C000CDB7DEB723970FB6F894DEBF0FBECDBF05
:1011D0009B838A83EFE5F0E0908180E8892389830F
:1011E000F8948A819B8120E1FC01DF01822F1D920E
:1011F0008A95E9F7AFE5B0E0EFE5F0E0908189810D
:10120000892B8C9323960FB6F894DEBF0FBECDBF0B
:10121000DF91CF910895CF93DF93CDB7DEB72297BB
:101220000FB6F894DEBF0FBECDBF9A838983AAE0C4
:10123000B1E0EAE0F1E08081806F8C93ABE0B1E057
:10124000EBE0F1E090818FE089238C93AAE2B0E09B
:10125000EAE2F0E08081806F8C93ABE2B0E0EBE2F9
:10126000F0E090818FE089238C9389819A810E949C
:10127000DE0822960FB6F894DEBF0FBECDBFDF9119
:10128000CF910895CF93DF93CDB7DEB722970FB6F6
:10129000F894DEBF0FBECDBF9A83898389819A817E
:1012A0000E940B09E981FA81108A22960FB6F89400
:1012B000DEBF0FBECDBFDF91CF910895CF93DF93F7
:1012C000CDB7DEB722970FB6F894DEBF0FBECDBF05
:1012D0009A83898389819A810E940B09E981FA8125
:1012E000108A22960FB6F894DEBF0FBECDBFDF91F5
:1012F000CF9108950F931F93CF93DF93CDB7DEB7B0
:101300008091980390919903009761F481E190E0B6
:101310000E948B118C01C8010E944209109399030D
:10132000009398038091980390919903DF91CF9156
:101330001F910F910895CF93DF93CDB7DEB7EDE204
:10134000F0E080EF8083E1E0F1E080E38083E4E09F
:10135000F1E080E88083A5E0B1E0E5E0F1E08081A4
:1013600080688C93DF91CF9108950F931F93CF9353
:10137000DF93CDB7DEB72F970FB6F894DEBF0FBE61
:10138000CDBF8D837F836E83598748873B872A87AC
:101390001D870C878E819F819C014427552780E4FF
:1013A00092E4AFE0B0E0BC01CD010E94AE17DA01DB
:1013B000C9010197A109B10989839A83AB83BC83D1
:1013C0008D81282F33273F872E878E859F85009715
:1013D00031F02E853F852130310559F153C0E5ECC0
:1013E000F0E089819A81AB81BC81892F9A2FAB2F44
:1013F000BB278083E4ECF0E089818083E2ECF0E0BD
:101400008A85992782959295907F9827807F982743
:10141000282F8C859927880F991F880F991F880F6F
:10142000991F282B88859927880F991F822B8083E5
:1014300029C0EDECF0E089819A81AB81BC81892FD4
:101440009A2FAB2FBB278083ECECF0E0898180835F
:10145000EAECF0E08A85992782959295907F98270B
:10146000807F9827282F8C859927880F991F880FB0
:10147000991F880F991F282B88859927880F991FF6
:10148000822B80832F960FB6F894DEBF0FBECDBFA0
:10149000DF91CF911F910F910895CF93DF93CDB737
:1014A000DEB725970FB6F894DEBF0FBECDBF898398
:1014B0006A834B838981282F33273D832C838C813A
:1014C0009D81009731F02C813D812130310539F12A
:1014D0004BC08A81882341F0A1ECB0E0E1ECF0E060
:1014E000808188608C9307C0A1ECB0E0E1ECF0E073
:1014F0008081877F8C938B81882341F0A1ECB0E0C1
:10150000E1ECF0E0808180698C932EC0A1ECB0E02A
:10151000E1ECF0E090818FE689238C9325C08A81ED
:10152000882341F0A9ECB0E0E9ECF0E0808188602C
:101530008C9307C0A9ECB0E0E9ECF0E08081877FF4
:101540008C938B81882341F0A9ECB0E0E9ECF0E0CA
:10155000808180698C9308C0A9ECB0E0E9ECF0E0F0
:1015600090818FE689238C9325960FB6F894DEBF81
:101570000FBECDBFDF91CF910895CF93DF93CDB74D
:10158000DEB724970FB6F894DEBF0FBECDBF8983B8
:101590006A838981282F33273C832B838B819C810D
:1015A000009739F02B813C812130310571F017C053
:1015B0000000E0ECF0E0808180E08823C9F7E6ECF1
:1015C000F0E08A8180830BC00000E8ECF0E08081CD
:1015D00080E08823C9F7EEECF0E08A8180832496CE
:1015E0000FB6F894DEBF0FBECDBFDF91CF91089547
:1015F0000F931F93CF93DF93CDB7DEB72A970FB624
:10160000F894DEBF0FBECDBF9A8389837C836B8342
:101610005E834D8338872F831A870987E981FA8192
:10162000E08189859A852F8138854D815E816B8126
:101630007C818C018E2F0E94B509E981FA818B8112
:101640009C8192838183E981FA818D819E8194833B
:101650008383E981FA818F81988596838583E981E7
:10166000FA8189859A85908787832A960FB6F894A0
:10167000DEBF0FBECDBFDF91CF911F910F910895B7
:101680000F931F93CF93DF93CDB7DEB722970FB69B
:10169000F894DEBF0FBECDBF9A83898389819A817A
:1016A00000E010E020E030E043E050E060E875E268
:1016B0000E94F80A22960FB6F894DEBF0FBECDBF87
:1016C000DF91CF911F910F910895CF93DF93CDB705
:1016D000DEB724970FB6F894DEBF0FBECDBF9A8356
:1016E00089836B834C83E981FA8180814C816B8192
:1016F0000E944D0AE981FA818B818187E981FA8113
:101700008C81828724960FB6F894DEBF0FBECDBFC2
:10171000DF91CF910895CF93DF93CDB7DEB72397B5
:101720000FB6F894DEBF0FBECDBF9A8389836B835B
:1017300089819A81FC01E15FFD4F80819181A281C5
:10174000B381803021E0920720E0A20720E0B207B9
:1017500051F189819A81FC01E15FFD4F8081918186
:10176000A281B38129813A81820F931FFC01E55F39
:10177000FE4F8B81808389819A81FC01E15FFD4F5F
:1017800080819181A281B3819C01AD012F5F3F4F88
:101790004F4F5F4F89819A81FC01E15FFD4F2083AC
:1017A00031834283538323960FB6F894DEBF0FBE76
:1017B000CDBFDF91CF910895CF93DF93CDB7DEB743
:1017C00068970FB6F894DEBF0FBECDBF9A878987A2
:1017D0007C876B872D873E874F87588B89859A85B5
:1017E000FC01E55FFD4F208131814281538180E022
:1017F00091E0A0E0B0E0821B930BA40BB50B2D850C
:101800003E854F8558892D8B3E8B4F8B588F898B0A
:101810009A8BAB8BBC8B89899A89AB89BC892D89C2
:101820003E894F89588D281739074A075B0740F4CE
:101830008D899E89AF89B88D898B9A8BAB8BBC8B38
:1018400029893A894B895C892D833E834F83588748
:1018500019821A821B821C822EC089859A85FC01FE
:10186000E55FFD4F208131814281538189819A81D9
:10187000AB81BC81BA01A901480F591F6A1F7B1FA8
:1018800089819A819C018B859C85F901E80FF91F5C
:10189000208189859A85840F951FFC013B962083C2
:1018A00089819A81AB81BC810196A11DB11D89837B
:1018B0009A83AB83BC8329813A814B815C818D8182
:1018C0009E81AF81B885281739074A075B0728F240
:1018D00089859A85FC01E55FFD4F20813181428138
:1018E00053818D819E81AF81B885280F391F4A1F92
:1018F0005B1F89859A85FC01E55FFD4F208331835D
:10190000428353838D819E81AF81B885BC01CD0117
:1019100068960FB6F894DEBF0FBECDBFDF91CF91B2
:101920000895CF93DF93CDB7DEB726970FB6F8941F
:10193000DEBF0FBECDBF9E838D8319821A821B82AC
:101940001C821CC089819A81AB81BC812D813E8122
:10195000820F931FFC013B969081ED81FE81808177
:10196000692F0E94BD0A89819A81AB81BC81019651
:10197000A11DB11D89839A83AB83BC838D819E8118
:10198000FC01E55FFD4F20813181428153818981D6
:101990009A81AB81BC8182179307A407B50790F2A7
:1019A0008D819E810B9620E031E0FC01DF01C901B1
:1019B0001D920197E9F78D819E81FC01E55FFD4F46
:1019C000108211821282138226960FB6F894DEBF1F
:1019D0000FBECDBFDF91CF910895EF92FF920F938D
:1019E0001F93CF93DF93CDB7DEB7A5970FB6F894CB
:1019F000DEBF0FBECDBF9F878E87798B688B2A8B0A
:101A00003B8B4C8B5D8B8A899B89AC89BD89009708
:101A1000A105B10549F02A893B894C895D892E8F42
:101A20003F8F48A359A308C080E091E0A0E0B0E058
:101A30008E8F9F8FA8A3B9A38E859F85FC01E15F40
:101A4000FD4F80819181A281B3812E8D3F8D48A170
:101A500059A1281739074A075B0710F58A899B891E
:101A6000AC89BD890097A105B10549F08A899B8998
:101A7000AC89BD898A8F9B8FAC8FBD8F08C020E059
:101A800031E040E050E02A8F3B8F4C8F5D8F8A8D94
:101A90009B8DAC8DBD8D8AA39BA3ACA3BDA30DC0B4
:101AA0008E859F85FC01E15FFD4F20813181428160
:101AB00053812AA33BA34CA35DA38AA19BA1ACA104
:101AC000BDA18A879B87AC87BD878A859B85AC85AE
:101AD000BD850097A105B10529F41E8A1F8A188EBD
:101AE000198ECAC0EFE5F0E0908180E889238987EC
:101AF000F8941D821E821F82188621C08D819E81CE
:101B00009C0188899989A901480F591F8D819E815F
:101B1000AF81B8852E853F85820F931FFC01E55F5D
:101B2000FE4F8081DA018C938D819E81AF81B885D3
:101B30000196A11DB11D8D839E83AF83B8872D8132
:101B40003E814F8158858A859B85AC85BD85281748
:101B500039074A075B0790F28E859F85FC01E15F9C
:101B6000FD4F20813181428153818A859B85AC85DF
:101B7000BD85281739074A075B07B9F48E859F850D
:101B8000855F9E4F20E031E0FC01DF01A9011D923D
:101B900041505040E1F78E859F85FC01E15FFD4F8C
:101BA000108211821282138257C019821A821B82FC
:101BB0001C822BC0E980FA800B811C8129813A812B
:101BC0004B815C818A859B85AC85BD85820F931F87
:101BD000A41FB51F2E853F85820F931FFC01E55F73
:101BE000FE4F20818E859F858E0D9F1DFC01E55F38
:101BF000FE4F208389819A81AB81BC810196A11D12
:101C0000B11D89839A83AB83BC8329813A814B813F
:101C10005C818A859B85AC85BD85281739074A0775
:101C20005B0740F28E859F85FC01E15FFD4F2081BF
:101C30003181428153818A859B85AC85BD85281B76
:101C4000390B4A0B5B0B8E859F85FC01E15FFD4FD5
:101C50002083318342835383AFE5B0E0EFE5F0E0CA
:101C600090818985892B8C938A859B85AC85BD85E0
:101C70008E8B9F8BA88FB98F8E899F89A88DB98DE8
:101C8000BC01CD01A5960FB6F894DEBF0FBECDBF47
:101C9000DF91CF911F910F91FF90EF900895CF9317
:101CA000DF93CDB7DEB723970FB6F894DEBF0FBE34
:101CB000CDBF9A8389836B83E981FA818B8180838D
:101CC00089819A810B9620E031E0FC01DF01C90196
:101CD0001D920197E9F789819A81855F9E4F20E0E7
:101CE00031E0FC01DF01C9011D920197E9F789810B
:101CF0009A81FC01E55FFD4F1082118212821382EE
:101D000089819A81FC01E15FFD4F1082118212826C
:101D10001382E981FA811186E981FA81128689812B
:101D20009A810E94400B23960FB6F894DEBF0FBE37
:101D3000CDBFDF91CF910895CF93DF93CDB7DEB7BD
:101D400023970FB6F894DEBF0FBECDBF9A83898369
:101D50006B83E981FA818B81808389819A810B96DB
:101D600020E031E0FC01DF01C9011D920197E9F794
:101D700089819A81855F9E4F20E031E0FC01DF017F
:101D8000C9011D920197E9F789819A81FC01E55FFC
:101D9000FD4F108211821282138289819A81FC0187
:101DA000E15FFD4F1082118212821382E981FA8174
:101DB0001186E981FA81128689819A810E94400BFD
:101DC00023960FB6F894DEBF0FBECDBFDF91CF9143
:101DD0000895EF92FF920F931F93CF93DF93CDB7A8
:101DE000DEB721970FB6F894DEBF0FBECDBF898353
:101DF00089819927880F991FFC01E656FC4F808145
:101E000091810097A1F48981E82EFF2483E192E07B
:101E10000E948B118C016981C8010E944F0EC7017D
:101E2000880F991FFC01E656FC4F118300838981BE
:101E30009927880F991FFC01E656FC4F80819181FC
:101E400021960FB6F894DEBF0FBECDBFDF91CF91C4
:101E50001F910F91FF90EF9008951F920F920FB670
:101E60000F9211242F933F934F935F936F937F9320
:101E70008F939F93AF93BF93EF93FF93CF93DF9392
:101E8000CDB7DEB72197DEBFCDBFEEECF0E08081AD
:101E9000898381E00E94E90E69810E948B0B219663
:101EA000F894DEBFCDBFDF91CF91FF91EF91BF914D
:101EB000AF919F918F917F916F915F914F913F91E2
:101EC0002F910F900FBE0F901F9018951F920F9299
:101ED0000FB60F9211242F933F934F935F936F93FD
:101EE0007F938F939F93AF93BF93EF93FF93CF9382
:101EF000DF93CDB7DEB72197DEBFCDBFE6ECF0E0D4
:101F00008081898380E00E94E90E69810E948B0BA9
:101F10002196F894DEBFCDBFDF91CF91FF91EF9175
:101F2000BF91AF919F918F917F916F915F914F91F1
:101F30003F912F910F900FBE0F901F901895CF9348
:101F4000DF93CDB7DEB722970FB6F894DEBF0FBE92
:101F5000CDBF9A838983E981FA8111821082E98158
:101F6000FA8181E08283E981FA8181E08483E981D9
:101F7000FA8181E08383E981FA8181E08583E981C7
:101F8000FA818081918181509F4FE981FA81978305
:101F90008683E981FA81208131818FEF90E0821B75
:101FA000930BE981FA8191878087E981FA818081A9
:101FB000918181509F4FE981FA8193878287E981DE
:101FC000FA81208131818FEF90E0821B930BE981B0
:101FD000FA819587848722960FB6F894DEBF0FBEEC
:101FE000CDBFDF91CF910895CF93DF93CDB7DEB70B
:101FF000E0E8F0E01082E1E8F0E083E08083A1E82F
:10200000B0E0E1E8F0E0808188608C93EFE6F0E0FA
:1020100082E08083E8E8F0E08AE196E091838083C3
:10202000E0E2F1E01082E1E2F1E085E08083E3E7C5
:10203000F0E081E08083E8E2F1E082E19AE79183D9
:102040008083E0EAF0E08BE28083E1EAF0E081E186
:102050008083E8EAF0E08FEF91E091838083ECEAFF
:10206000F0E08FEF90E091838083EAEAF0E08FEF79
:1020700090E091838083E0E9F0E08BE28083E1E906
:10208000F0E081E18083E8E9F0E08FEF91E0918377
:102090008083ECE9F0E08FEF90E091838083EAE9C0
:1020A000F0E08FEF90E0918380837894DF91CF917F
:1020B0000895CF93DF93CDB7DEB724970FB6F8948A
:1020C000DEBF0FBECDBF9A8389837C836B838981FA
:1020D0009A818130910551F48B819C812FEF8F3F44
:1020E000920721F48EE993E00E949F0F24960FB689
:1020F000F894DEBF0FBECDBFDF91CF910895CF938F
:10210000DF93CDB7DEB76FEF7FEF81E090E00E9405
:102110005910DF91CF9108951F920F920FB60F9231
:1021200011242F933F934F935F936F937F938F93DC
:102130009F93AF93BF93EF93FF93CF93DF93CDB76D
:10214000DEB78091F002882369F08EE993E06FEFAB
:102150000E94A3008EE993E061E00E94BD0010920E
:10216000F0020DC08EE993E061E00E94A3008EE9C9
:1021700093E06FEF0E94BD0081E08093F002DF9159
:10218000CF91FF91EF91BF91AF919F918F917F91EF
:102190006F915F914F913F912F910F900FBE0F90D4
:1021A0001F901895CF92DF92EF920F93CF93DF930A
:1021B000CDB7DEB70E949B090E94F40F789480E0AF
:1021C0000E94831540EA5FE060E070E00E945214D4
:1021D00080E00E9483159C0183E491E1BC01C90168
:1021E0000E942C1580E00E9483150E94A4148EE9A1
:1021F00093E06FEF70E00E94D7008EE993E06FEFFD
:102200000E94A3008EE993E061E00E94BD00C090AF
:10221000D402D090D5020E947A09EE246894E3F8A3
:1022200001E025E043E0B6010E949004FFCF1F9239
:102230000F920FB60F9211242F933F934F935F93FA
:102240006F937F938F939F93AF93BF93EF93FF937E
:10225000CF93DF93CDB7DEB78EE993E00E942601DE
:10226000DF91CF91FF91EF91BF91AF919F918F91AE
:102270007F916F915F914F913F912F910F900FBE82
:102280000F901F901895CF93DF93CDB7DEB70E94C4
:102290007A090E94AD02DF91CF910895CF93DF9329
:1022A000CDB7DEB7DF91CF910895CF93DF93CDB750
:1022B000DEB722970FB6F894DEBF0FBECDBF9A836C
:1022C000898389819A81009721F089819A810E946E
:1022D0004B1722960FB6F894DEBF0FBECDBFDF912D
:1022E000CF910895CF93DF93CDB7DEB722970FB686
:1022F000F894DEBF0FBECDBF9A83898389819A810E
:102300000E94551122960FB6F894DEBF0FBECDBFC6
:10231000DF91CF910895CF93DF93CDB7DEB72897A4
:102320000FB6F894DEBF0FBECDBF9E838D838D8127
:102330009E81009721F481E090E09E838D838D81C2
:102340009E810E94A8169C838B8316C08091AC034B
:102350009091AD039A83898389819A81009719F4BA
:1023600018861F8211C0E981FA8119958D819E819D
:102370000E94A8169C838B838B819C81009731F3EC
:102380008B819C8198878F838F81988528960FB643
:10239000F894DEBF0FBECDBFDF91CF910895CF93EC
:1023A000DF93CDB7DEB722970FB6F894DEBF0FBE2E
:1023B000CDBF9A83898389819A810E948B1122964D
:1023C0000FB6F894DEBF0FBECDBFDF91CF91089559
:1023D000CF93DF93CDB7DEB72E970FB6F894DEBF5D
:1023E0000FBECDBF8E834F83588769877A8780E47D
:1023F0008D838D81282F33274427552780E094E251
:10240000A4EFB0E0BC01CD010E94AE17DA01C90112
:102410002F81388549855A85BC01CD010E94AE17B0
:10242000DA01C90189839A83AB83BC8389819A814C
:10243000AB81BC810097A105B10519F41E861D86EC
:10244000F0C08E81882319F08E81823069F48981F1
:102450009A81AB81BC818F3F9105A105B10521F027
:1024600018F01E861D86DDC089819A81AB81BC81F2
:10247000803020E0920721E0A20720E0B20718F0A8
:102480001E861D86CEC08E81282F33273C872B8742
:102490008B859C858230910509F453C02B853C8542
:1024A0002330310554F48B859C850097C9F02B852A
:1024B0003C852130310539F1B0C08B859C85843055
:1024C000910509F46FC02B853C85243031050CF44F
:1024D0004BC08B859C858530910509F481C09DC0DA
:1024E000A5E4B0E0E5E4F0E08081887F8C93A5E48A
:1024F000B0E0E5E4F0E0808183608C93E7E4F0E015
:10250000898180838AC0A1E8B0E0E1E8F0E08081C1
:10251000887F8C93A1E8B0E0E1E8F0E080818360FF
:102520008C93E8E8F0E089818083E9E8F0E0898134
:102530009A81AB81BC81892F9A2FAB2FBB278083D7
:102540006CC0A1EBB0E0E1EBF0E08081887F8C9380
:10255000A1EBB0E0E1EBF0E0808183608C93E3EBF2
:10256000F0E08981808359C0A1E9B0E0E1E9F0E0C1
:102570008081887F8C93A1E9B0E0E1E9F0E080817F
:1025800083608C93E8E9F0E089818083E9E9F0E0F9
:1025900089819A81AB81BC81892F9A2FAB2FBB2770
:1025A00080833BC0A1EAB0E0E1EAF0E08081887F6F
:1025B0008C93A1EAB0E0E1EAF0E0808183608C9343
:1025C000E8EAF0E089818083E9EAF0E089819A8194
:1025D000AB81BC81892F9A2FAB2FBB2780831DC075
:1025E000A1E2B1E0E1E2F1E08081887F8C93A1E299
:1025F000B1E0E1E2F1E0808183608C93E8E2F1E018
:1026000089818083E9E2F1E089819A81AB81BC8193
:10261000892F9A2FAB2FBB27808321E030E03E87A4
:102620002D878D859E852E960FB6F894DEBF0FBE42
:10263000CDBFDF91CF910895CF93DF93CDB7DEB7B4
:1026400023970FB6F894DEBF0FBECDBF8983898173
:10265000282F33273B832A838A819B8182309105EF
:1026600009F450C02A813B812330310554F48A811A
:102670009B810097C9F02A813B812130310559F1B6
:102680009CC08A819B818430910509F469C02A81AC
:102690003B81243031050CF44CC08A819B8185300C
:1026A000910509F474C089C0A4E4B0E0E4E4F0E06A
:1026B00090818FE389238C93A4E4B0E0E4E4F0E01C
:1026C000808180688C93AEE6B0E0EEE6F0E0808139
:1026D00082608C9372C0A0E8B0E0E0E8F0E0908106
:1026E0008FE389238C93A0E8B0E0E0E8F0E08081FC
:1026F00080688C93AFE6B0E0EFE6F0E08081826026
:102700008C935BC0A0EBB0E0E0EBF0E090818FE356
:1027100089238C93A0EBB0E0E0EBF0E0808180684F
:102720008C93A0E7B0E0E0E7F0E0808182608C93DA
:1027300044C0A0E9B0E0E0E9F0E090818FE38923B4
:102740008C93A0E9B0E0E0E9F0E0808180688C93B0
:10275000A1E7B0E0E1E7F0E0808182608C932DC0DA
:10276000A0EAB0E0E0EAF0E090818FE389238C9367
:10277000A0EAB0E0E0EAF0E0808180688C93A2E714
:10278000B0E0E2E7F0E0808182608C9316C0A0E2C6
:10279000B1E0E0E2F1E090818FE389238C93A0E245
:1027A000B1E0E0E2F1E0808180688C93A3E7B0E0E3
:1027B000E3E7F0E0808182608C9323960FB6F89473
:1027C000DEBF0FBECDBFDF91CF910895CF93DF93D2
:1027D000CDB7DEB723970FB6F894DEBF0FBECDBFDF
:1027E00089838981282F33273B832A838A819B8190
:1027F0008230910579F12A813B812330310554F4EF
:102800008A819B810097B1F02A813B81213031057B
:10281000C9F03FC08A819B818430910559F12A819A
:102820003B8124303105F4F08A819B81853091050C
:1028300049F12FC0AEE6B0E0EEE6F0E080818D7F9A
:102840008C9327C0AFE6B0E0EFE6F0E080818D7FAB
:102850008C931FC0A0E7B0E0E0E7F0E080818D7FBF
:102860008C9317C0A1E7B0E0E1E7F0E080818D7FB5
:102870008C930FC0A2E7B0E0E2E7F0E080818D7FAB
:102880008C9307C0A3E7B0E0E3E7F0E080818D7FA1
:102890008C9323960FB6F894DEBF0FBECDBFDF91A9
:1028A000CF910895CF93DF93CDB7DEB727970FB6BB
:1028B000F894DEBF0FBECDBF9B838A834C835D83BC
:1028C0006E837F83EA81FB8120818C819D81AE8133
:1028D000BF81AC01BD01822F0E94E81189838981EB
:1028E000882351F0EA81FB818C819D81AE81BF817B
:1028F00081839283A383B4838981992727960FB616
:10290000F894DEBF0FBECDBFDF91CF910895CF9376
:10291000DF93CDB7DEB722970FB6F894DEBF0FBEB8
:10292000CDBF9A838983E981FA8181819281A381D4
:10293000B481BC01CD0122960FB6F894DEBF0FBE64
:10294000CDBFDF91CF910895CF93DF93CDB7DEB7A1
:1029500022970FB6F894DEBF0FBECDBF9A8389834E
:10296000E981FA8180810E941C1322960FB6F894A7
:10297000DEBF0FBECDBFDF91CF910895CF93DF9320
:10298000CDB7DEB722970FB6F894DEBF0FBECDBF2E
:102990009A838983E981FA8180810E94E6132296D5
:1029A0000FB6F894DEBF0FBECDBFDF91CF91089573
:1029B000CF93DF93CDB7DEB723970FB6F894DEBF82
:1029C0000FBECDBF9A8389836B83E981FA818B81A6
:1029D0008083E981FA811682158289819A8141E09A
:1029E00050E060E070E00E94521489819A810E9458
:1029F000BE1423960FB6F894DEBF0FBECDBFDF9195
:102A0000CF910895CF93DF93CDB7DEB723970FB65D
:102A1000F894DEBF0FBECDBF9A8389836B83E981B3
:102A2000FA818B818083E981FA81168215828981FE
:102A30009A8141E050E060E070E00E945214898188
:102A40009A810E94BE1423960FB6F894DEBF0FBE83
:102A5000CDBFDF91CF910895CF93DF93CDB7DEB790
:102A600024970FB6F894DEBF0FBECDBF9A8389833B
:102A70007C836B83E981FA818B819C81968385833A
:102A800024960FB6F894DEBF0FBECDBFDF91CF9175
:102A90000895CF93DF93CDB7DEB722970FB6F894A2
:102AA000DEBF0FBECDBF9A838983E981FA8116828A
:102AB000158222960FB6F894DEBF0FBECDBFDF9110
:102AC000CF910895CF93DF93CDB7DEB722970FB69E
:102AD000F894DEBF0FBECDBF9A838983E981FA8166
:102AE00085819681009731F0E981FA810580F68130
:102AF000E02D199522960FB6F894DEBF0FBECDBF1C
:102B0000DF91CF910895EF92FF920F931F93CF9390
:102B1000DF93CDB7DEB721970FB6F894DEBF0FBEB7
:102B2000CDBF898389819927880F991FFC01E255C0
:102B3000FC4F808191810097A1F48981E82EFF24C8
:102B400087E090E00E948B118C016981C8010E948E
:102B5000D814C701880F991FFC01E255FC4F11835F
:102B6000008389819927880F991FFC01E255FC4F4A
:102B70008081918121960FB6F894DEBF0FBECDBF44
:102B8000DF91CF911F910F91FF90EF9008951F92C9
:102B90000F920FB60F9211242F933F934F935F9391
:102BA0006F937F938F939F93AF93BF93EF93FF9315
:102BB000CF93DF93CDB7DEB785E00E9483150E94E7
:102BC0006215DF91CF91FF91EF91BF91AF919F91EE
:102BD0008F917F916F915F914F913F912F910F90C6
:102BE0000FBE0F901F9018951F920F920FB60F9265
:102BF00011242F933F934F935F936F937F938F9302
:102C00009F93AF93BF93EF93FF93CF93DF93CDB792
:102C1000DEB784E00E9483150E946215DF91CF9198
:102C2000FF91EF91BF91AF919F918F917F916F91A4
:102C30005F914F913F912F910F900FBE0F901F907A
:102C400018951F920F920FB60F9211242F933F9356
:102C50004F935F936F937F938F939F93AF93BF93A4
:102C6000EF93FF93CF93DF93CDB7DEB783E00E945E
:102C700083150E946215DF91CF91FF91EF91BF9173
:102C8000AF919F918F917F916F915F914F913F9104
:102C90002F910F900FBE0F901F9018951F920F92BB
:102CA0000FB60F9211242F933F934F935F936F931F
:102CB0007F938F939F93AF93BF93EF93FF93CF93A4
:102CC000DF93CDB7DEB782E00E9483150E946215C4
:102CD000DF91CF91FF91EF91BF91AF919F918F9134
:102CE0007F916F915F914F913F912F910F900FBE08
:102CF0000F901F9018951F920F920FB60F921124EC
:102D00002F933F934F935F936F937F938F939F93F3
:102D1000AF93BF93EF93FF93CF93DF93CDB7DEB71E
:102D200080E00E9483150E946215DF91CF91FF9190
:102D3000EF91BF91AF919F918F917F916F915F9133
:102D40004F913F912F910F900FBE0F901F901895AC
:102D5000CF93DF93AC01029710F442E050E0A091D2
:102D6000BC03B091BD03FD01C0E0D0E020E030E045
:102D700020C0808191818417950769F482819381B5
:102D8000209719F09B838A8304C09093BD0380939E
:102D9000BC03CF0132C04817590738F4211531055B
:102DA00019F08217930708F49C01EF010280F38168
:102DB000E02D3097F1F62115310589F1C901841B09
:102DC000950B049708F4A901E0E0F0E026C08D918E
:102DD0009C91119782179307E9F44817590779F4E2
:102DE000ED018A819B81309719F09383828304C01F
:102DF0009093BD038093BC03CD01029649C0841B10
:102E0000950BFD01E80FF91F4193519302978D93A4
:102E10009C933AC0FD01A281B3811097C1F68091C5
:102E2000BA039091BB03892B41F480919303909155
:102E300094039093BB038093BA0320919503309140
:102E400096032115310541F42DB73EB780919103CA
:102E500090919203281B390BE091BA03F091BB03C8
:102E60002E1B3F0B2417350788F0CA01029628173E
:102E7000390760F0CF01840F951F02969093BB0332
:102E80008093BA0341935193CF0102C080E090E058
:102E9000DF91CF910895CF93DF93009709F44EC04F
:102EA000EC0122971B821A82A091BC03B091BD0352
:102EB000109711F140E050E001C0DC01AC17BD07F4
:102EC00000F1BB83AA83FE0121913191E20FF31F30
:102ED000EA17FB0771F42E5F3F4F8D919C9111977C
:102EE000820F931F99838883FD01828193819B8345
:102EF0008A834115510559F4D093BD03C093BC0397
:102F00001DC0FD0182819381AD010097B1F6FA01E8
:102F1000D383C28321913191E20FF31FEC17FD0798
:102F200069F42E5F3F4F88819981820F931FFA01C8
:102F3000918380838A819B8193838283DF91CF9168
:102F4000089587FB082E062687FD819567FD61950C
:102F500027D00EF4919507FC81950895A1E21A2ED1
:102F6000AA1BBB1BFD010DC0AA1FBB1FEE1FFF1F2D
:102F7000A217B307E407F50720F0A21BB30BE40B7D
:102F8000F50B661F771F881F991F1A9469F76095C4
:102F90007095809590959B01AC01BD01CF0108957E
:102FA000991B79E004C0991F961708F0961B881F9B
:102FB0007A95C9F780950895EE0FFF1F0590F4915B
:062FC000E02D1994FFCF83
:102FC60020022A0234023E02480252025C026602D3
:102FD60070027A0284028E029802A202AC02B60243
:102FE60007000500050005000700020006000200B4
:102FF60002000700070001000700040007000700A1
:103006000100070001000700050005000700010098
:103016000100070004000700010007000700040084
:10302600070005000700070001000100010001007C
:103036000700050007000500070007000500070058
:103046000100070007000500070005000500040051
:103056000400070005000700070004000400040040
:103066000700010001000700050007000700040033
:10307600070004000700070004000700040004001E
:103086000F070E060D050C040B030A0209010800C2
:10309600F102FB0205030F03190323032D03370374
:1030A60041034B0355035F03690373037D038703E2
:1030B60001070005000500050007000200060002E2
:1030C60000020007000700010007000400070007D0
:1030D60000010007000100070005000500070001C8
:1030E60000010007000400070001000700070004B4
:1030F60000070005000700070001000100010001AC
:103106000007000500070005000700070005000787
:103116000001000700070005000700050005000480
:10312600000400070005000700070004000400046F
:103136000007000100010007000500070007000462
:10314600000700040007000700040007000400044D
:08315600002000BE0300000090
:00000001FF
